{
  "address": "0x6F96235a35d6a53fE9afC1b55Fe1601ce5ABaB37",
  "abi": [
    {
      "inputs": [
        {
          "internalType": "address",
          "name": "_registry",
          "type": "address"
        },
        {
          "internalType": "address",
          "name": "_registrar",
          "type": "address"
        },
        {
          "internalType": "address",
          "name": "_publicResolver",
          "type": "address"
        },
        {
          "internalType": "bytes32",
          "name": "_baseNode",
          "type": "bytes32"
        },
        {
          "internalType": "address",
          "name": "_unlockContract",
          "type": "address"
        },
        {
          "internalType": "address",
          "name": "_gateImplementation",
          "type": "address"
        }
      ],
      "stateMutability": "nonpayable",
      "type": "constructor"
    },
    {
      "inputs": [
        {
          "internalType": "uint256",
          "name": "chainid",
          "type": "uint256"
        }
      ],
      "name": "ChainNotSupported",
      "type": "error"
    },
    {
      "inputs": [],
      "name": "InstanceAlreadyExists",
      "type": "error"
    },
    {
      "inputs": [],
      "name": "InvalidTokenAmount",
      "type": "error"
    },
    {
      "inputs": [],
      "name": "InvalidTokenSender",
      "type": "error"
    },
    {
      "inputs": [],
      "name": "NoCodeOwner",
      "type": "error"
    },
    {
      "inputs": [],
      "name": "NoInstanceAccess",
      "type": "error"
    },
    {
      "inputs": [],
      "name": "NoInstanceCreator",
      "type": "error"
    },
    {
      "inputs": [],
      "name": "SubscribeToGainAccess",
      "type": "error"
    },
    {
      "anonymous": false,
      "inputs": [
        {
          "indexed": true,
          "internalType": "address",
          "name": "previousOwner",
          "type": "address"
        },
        {
          "indexed": true,
          "internalType": "address",
          "name": "newOwner",
          "type": "address"
        }
      ],
      "name": "OwnershipTransferred",
      "type": "event"
    },
    {
      "inputs": [],
      "name": "DBNS_NODE",
      "outputs": [
        {
          "internalType": "bytes32",
          "name": "",
          "type": "bytes32"
        }
      ],
      "stateMutability": "view",
      "type": "function"
    },
    {
      "inputs": [],
      "name": "DOMAIN_ID",
      "outputs": [
        {
          "internalType": "uint256",
          "name": "",
          "type": "uint256"
        }
      ],
      "stateMutability": "view",
      "type": "function"
    },
    {
      "inputs": [],
      "name": "PUBLIC_RESOLVER",
      "outputs": [
        {
          "internalType": "contract IFNSResolver",
          "name": "",
          "type": "address"
        }
      ],
      "stateMutability": "view",
      "type": "function"
    },
    {
      "inputs": [],
      "name": "REGISTRAR",
      "outputs": [
        {
          "internalType": "contract IFNSRegistrar",
          "name": "",
          "type": "address"
        }
      ],
      "stateMutability": "view",
      "type": "function"
    },
    {
      "inputs": [],
      "name": "REGISTRY",
      "outputs": [
        {
          "internalType": "contract IFNS",
          "name": "",
          "type": "address"
        }
      ],
      "stateMutability": "view",
      "type": "function"
    },
    {
      "inputs": [],
      "name": "TABLELAND",
      "outputs": [
        {
          "internalType": "contract ITablelandTables",
          "name": "",
          "type": "address"
        }
      ],
      "stateMutability": "view",
      "type": "function"
    },
    {
      "inputs": [
        {
          "internalType": "bytes32",
          "name": "",
          "type": "bytes32"
        }
      ],
      "name": "codeOwner",
      "outputs": [
        {
          "internalType": "address",
          "name": "",
          "type": "address"
        }
      ],
      "stateMutability": "view",
      "type": "function"
    },
    {
      "inputs": [
        {
          "internalType": "string",
          "name": "_name",
          "type": "string"
        }
      ],
      "name": "createDBSpace",
      "outputs": [],
      "stateMutability": "nonpayable",
      "type": "function"
    },
    {
      "inputs": [
        {
          "internalType": "bytes32",
          "name": "_DBSpace",
          "type": "bytes32"
        },
        {
          "internalType": "string",
          "name": "_name",
          "type": "string"
        }
      ],
      "name": "createDBSubSpace",
      "outputs": [],
      "stateMutability": "nonpayable",
      "type": "function"
    },
    {
      "inputs": [
        {
          "internalType": "bytes32",
          "name": "_instance",
          "type": "bytes32"
        },
        {
          "internalType": "string",
          "name": "_name",
          "type": "string"
        },
        {
          "internalType": "string",
          "name": "_about",
          "type": "string"
        },
        {
          "internalType": "string",
          "name": "_chatID",
          "type": "string"
        },
        {
          "internalType": "string",
          "name": "_codeIPNS",
          "type": "string"
        },
        {
          "internalType": "string",
          "name": "_IPNSEncryptedKey",
          "type": "string"
        }
      ],
      "name": "createInstanceCode",
      "outputs": [],
      "stateMutability": "nonpayable",
      "type": "function"
    },
    {
      "inputs": [
        {
          "internalType": "bytes32",
          "name": "_node",
          "type": "bytes32"
        },
        {
          "internalType": "uint256",
          "name": "_price",
          "type": "uint256"
        },
        {
          "internalType": "address[]",
          "name": "_members",
          "type": "address[]"
        },
        {
          "internalType": "string",
          "name": "_metadataCID",
          "type": "string"
        },
        {
          "internalType": "string",
          "name": "_chatID",
          "type": "string"
        },
        {
          "internalType": "string",
          "name": "_IPNS",
          "type": "string"
        },
        {
          "internalType": "string",
          "name": "_IPNSEncryptedKey",
          "type": "string"
        }
      ],
      "name": "createSpaceInstance",
      "outputs": [],
      "stateMutability": "nonpayable",
      "type": "function"
    },
    {
      "inputs": [
        {
          "internalType": "bytes32",
          "name": "_instanceID",
          "type": "bytes32"
        }
      ],
      "name": "extendInstanceSubscription",
      "outputs": [],
      "stateMutability": "payable",
      "type": "function"
    },
    {
      "inputs": [
        {
          "internalType": "address",
          "name": "_sender",
          "type": "address"
        },
        {
          "internalType": "address",
          "name": "_gatedContract",
          "type": "address"
        }
      ],
      "name": "getAccess",
      "outputs": [
        {
          "internalType": "bool",
          "name": "",
          "type": "bool"
        }
      ],
      "stateMutability": "view",
      "type": "function"
    },
    {
      "inputs": [
        {
          "internalType": "bytes32",
          "name": "_salt",
          "type": "bytes32"
        }
      ],
      "name": "getDeterministicAddress",
      "outputs": [
        {
          "internalType": "address",
          "name": "",
          "type": "address"
        }
      ],
      "stateMutability": "view",
      "type": "function"
    },
    {
      "inputs": [
        {
          "internalType": "bytes32",
          "name": "_instanceID",
          "type": "bytes32"
        },
        {
          "internalType": "address",
          "name": "_subscriber",
          "type": "address"
        }
      ],
      "name": "getRemainingSubscriptionTime",
      "outputs": [
        {
          "internalType": "uint256",
          "name": "",
          "type": "uint256"
        }
      ],
      "stateMutability": "view",
      "type": "function"
    },
    {
      "inputs": [],
      "name": "getTime",
      "outputs": [
        {
          "internalType": "uint256",
          "name": "",
          "type": "uint256"
        }
      ],
      "stateMutability": "view",
      "type": "function"
    },
    {
      "inputs": [
        {
          "internalType": "bytes32",
          "name": "_instanceID",
          "type": "bytes32"
        },
        {
          "internalType": "address",
          "name": "_subscriber",
          "type": "address"
        }
      ],
      "name": "hasActiveSubscription",
      "outputs": [
        {
          "internalType": "bool",
          "name": "",
          "type": "bool"
        }
      ],
      "stateMutability": "view",
      "type": "function"
    },
    {
      "inputs": [
        {
          "internalType": "bytes32",
          "name": "_instance",
          "type": "bytes32"
        },
        {
          "internalType": "address",
          "name": "_sender",
          "type": "address"
        }
      ],
      "name": "hasMutateAccess",
      "outputs": [
        {
          "internalType": "bool",
          "name": "access",
          "type": "bool"
        }
      ],
      "stateMutability": "view",
      "type": "function"
    },
    {
      "inputs": [
        {
          "internalType": "bytes32",
          "name": "_instance",
          "type": "bytes32"
        },
        {
          "internalType": "address",
          "name": "_sender",
          "type": "address"
        }
      ],
      "name": "hasViewAccess",
      "outputs": [
        {
          "internalType": "bool",
          "name": "",
          "type": "bool"
        }
      ],
      "stateMutability": "view",
      "type": "function"
    },
    {
      "inputs": [
        {
          "internalType": "bytes32",
          "name": "_instance",
          "type": "bytes32"
        },
        {
          "internalType": "address[]",
          "name": "_members",
          "type": "address[]"
        }
      ],
      "name": "insertNewMerbers",
      "outputs": [],
      "stateMutability": "nonpayable",
      "type": "function"
    },
    {
      "inputs": [
        {
          "internalType": "bytes32",
          "name": "",
          "type": "bytes32"
        }
      ],
      "name": "instanceLock",
      "outputs": [
        {
          "internalType": "address",
          "name": "creator",
          "type": "address"
        },
        {
          "internalType": "address",
          "name": "lockAddress",
          "type": "address"
        }
      ],
      "stateMutability": "view",
      "type": "function"
    },
    {
      "inputs": [
        {
          "internalType": "bytes32",
          "name": "",
          "type": "bytes32"
        },
        {
          "internalType": "address",
          "name": "",
          "type": "address"
        }
      ],
      "name": "instanceSubscriptions",
      "outputs": [
        {
          "internalType": "uint256",
          "name": "",
          "type": "uint256"
        }
      ],
      "stateMutability": "view",
      "type": "function"
    },
    {
      "inputs": [
        {
          "internalType": "bytes32",
          "name": "",
          "type": "bytes32"
        }
      ],
      "name": "instances",
      "outputs": [
        {
          "internalType": "address",
          "name": "gatedContract",
          "type": "address"
        },
        {
          "internalType": "uint256",
          "name": "price",
          "type": "uint256"
        },
        {
          "internalType": "address",
          "name": "creator",
          "type": "address"
        }
      ],
      "stateMutability": "view",
      "type": "function"
    },
    {
      "inputs": [
        {
          "internalType": "bytes32",
          "name": "",
          "type": "bytes32"
        }
      ],
      "name": "isType",
      "outputs": [
        {
          "internalType": "enum Core.Types",
          "name": "",
          "type": "uint8"
        }
      ],
      "stateMutability": "view",
      "type": "function"
    },
    {
      "inputs": [
        {
          "internalType": "address",
          "name": "",
          "type": "address"
        },
        {
          "internalType": "address",
          "name": "",
          "type": "address"
        },
        {
          "internalType": "address",
          "name": "",
          "type": "address"
        },
        {
          "internalType": "bytes",
          "name": "",
          "type": "bytes"
        }
      ],
      "name": "keyPurchasePrice",
      "outputs": [
        {
          "internalType": "uint256",
          "name": "minKeyPrice",
          "type": "uint256"
        }
      ],
      "stateMutability": "view",
      "type": "function"
    },
    {
      "inputs": [
        {
          "internalType": "address",
          "name": "",
          "type": "address"
        },
        {
          "internalType": "address",
          "name": "",
          "type": "address"
        },
        {
          "internalType": "uint256",
          "name": "tokenId",
          "type": "uint256"
        },
        {
          "internalType": "bytes",
          "name": "",
          "type": "bytes"
        }
      ],
      "name": "onERC721Received",
      "outputs": [
        {
          "internalType": "bytes4",
          "name": "",
          "type": "bytes4"
        }
      ],
      "stateMutability": "nonpayable",
      "type": "function"
    },
    {
      "inputs": [
        {
          "internalType": "uint256",
          "name": "",
          "type": "uint256"
        },
        {
          "internalType": "address",
          "name": "from",
          "type": "address"
        },
        {
          "internalType": "address",
          "name": "",
          "type": "address"
        },
        {
          "internalType": "address",
          "name": "",
          "type": "address"
        },
        {
          "internalType": "bytes",
          "name": "",
          "type": "bytes"
        },
        {
          "internalType": "uint256",
          "name": "",
          "type": "uint256"
        },
        {
          "internalType": "uint256",
          "name": "",
          "type": "uint256"
        }
      ],
      "name": "onKeyPurchase",
      "outputs": [],
      "stateMutability": "view",
      "type": "function"
    },
    {
      "inputs": [],
      "name": "owner",
      "outputs": [
        {
          "internalType": "address",
          "name": "",
          "type": "address"
        }
      ],
      "stateMutability": "view",
      "type": "function"
    },
    {
      "inputs": [
        {
          "internalType": "bytes32",
          "name": "_instanceID",
          "type": "bytes32"
        }
      ],
      "name": "purchaseInstanceSubscription",
      "outputs": [],
      "stateMutability": "payable",
      "type": "function"
    },
    {
      "inputs": [
        {
          "internalType": "bytes32",
          "name": "_instance",
          "type": "bytes32"
        },
        {
          "internalType": "address[]",
          "name": "_members",
          "type": "address[]"
        }
      ],
      "name": "removeMembers",
      "outputs": [],
      "stateMutability": "nonpayable",
      "type": "function"
    },
    {
      "inputs": [],
      "name": "renounceOwnership",
      "outputs": [],
      "stateMutability": "nonpayable",
      "type": "function"
    },
    {
      "inputs": [
        {
          "internalType": "uint256",
          "name": "",
          "type": "uint256"
        }
      ],
      "name": "tableIDs",
      "outputs": [
        {
          "internalType": "uint256",
          "name": "",
          "type": "uint256"
        }
      ],
      "stateMutability": "view",
      "type": "function"
    },
    {
      "inputs": [
        {
          "internalType": "uint256",
          "name": "",
          "type": "uint256"
        }
      ],
      "name": "tables",
      "outputs": [
        {
          "internalType": "string",
          "name": "",
          "type": "string"
        }
      ],
      "stateMutability": "view",
      "type": "function"
    },
    {
      "inputs": [
        {
          "internalType": "address",
          "name": "recipient",
          "type": "address"
        }
      ],
      "name": "transferDomain",
      "outputs": [],
      "stateMutability": "nonpayable",
      "type": "function"
    },
    {
      "inputs": [
        {
          "internalType": "address",
          "name": "newOwner",
          "type": "address"
        }
      ],
      "name": "transferOwnership",
      "outputs": [],
      "stateMutability": "nonpayable",
      "type": "function"
    },
    {
      "inputs": [
        {
          "internalType": "bytes32",
          "name": "_codeID",
          "type": "bytes32"
        },
        {
          "internalType": "string",
          "name": "_name",
          "type": "string"
        },
        {
          "internalType": "string",
          "name": "_about",
          "type": "string"
        }
      ],
      "name": "updateCode",
      "outputs": [],
      "stateMutability": "nonpayable",
      "type": "function"
    },
    {
      "inputs": [
        {
          "internalType": "bytes32",
          "name": "_instanceID",
          "type": "bytes32"
        },
        {
          "internalType": "string",
          "name": "_metadataCID",
          "type": "string"
        }
      ],
      "name": "updateInstance",
      "outputs": [],
      "stateMutability": "nonpayable",
      "type": "function"
    },
    {
      "inputs": [],
      "name": "withdraw",
      "outputs": [],
      "stateMutability": "nonpayable",
      "type": "function"
    },
    {
      "inputs": [
        {
          "internalType": "bytes32",
          "name": "_instanceID",
          "type": "bytes32"
        }
      ],
      "name": "withdraw",
      "outputs": [],
      "stateMutability": "nonpayable",
      "type": "function"
    },
    {
      "stateMutability": "payable",
      "type": "receive"
    }
  ],
  "transactionHash": "0xb25b79936166109062d794d3ea2647446e9c9f4795654b452e11ea2427e697ab",
  "args": [
    "0x00000000000C2E074eC69A0dFb2997BA6C7d2e1e",
    "0x57f1887a8BF19b14fC0dF6Fd9B2acc9Af147eA85",
    "0x8FADE66B79cC9f707aB26799354482EB93a5B7dD",
    "0x93cdeb708b7545dc668eb9280176169d1c33cfd8ed6f04690a0bcc88a93fc4ae",
    "0x36b34e10295cCE69B652eEB5a8046041074515Da",
    "0x474E6528Ac992C7b0205a68b65ED9EFD31e0b0c3"
  ],
  "numDeployments": 1,
  "solcInputHash": "6f5f727b1cde4f322674aa81db41557b",
  "bytecode": "0x6101208060405234620007e95760c08162004c228038038091620000248285620008ea565b833981010312620007e9576200003a816200090e565b62000048602083016200090e565b62000056604084016200090e565b6060840151916200007860a062000070608088016200090e565b96016200090e565b6001600160a01b0394851660805290841660a05290831660c05260e091909152600280546001600160a01b031916918316919091179055620000b962000fc1565b16906101009182526200013e62000138604051620000d781620008b2565b603881527f44425370616365494420746578742c20444253756253706163654f664944207460208201527f6578742c20444253756253706163654e616d65207465787400000000000000006040820152620001316200093f565b9062000f44565b620009bc565b60405160e081016001600160401b038111828210176200072c576200024c91620001389160405260b281527f496e7374616e6365494420746578742c20696e7374616e63654f66537061636560208201527f20746578742c20696e7374616e63655479706520746578742c206d657461646160408201527f746143494420746578742c2063686174494420746578742c2049504e5320746560608201527f78742c2049504e53456e637279707465644b657920746578742c20676174656460808201527f436f6e747261637420746578742c20707269636520746578742c206c6f636b2060a0820152711d195e1d0b0818dc99585d1bdc881d195e1d60721b60c08201526200013162000c73565b60405160a081016001600160401b038111828210176200072c576200030c916200013891604052607081527f496e7374616e6365494420746578742c20636f6465494420746578742c206e6160208201527f6d6520746578742c2061626f757420746578742c20636861744944207465787460408201527f2c2049504e5320746578742c2049504e53456e637279707465644b657920746560608201526f1e1d0b0818dc99585d1bdc881d195e1d60821b60808201526200013162000cae565b6200037c620001386040516200032281620008b2565b603b81527f496e7374616e6365494420746578742c2073756273637269626572207465787460208201527f2c20746f6b656e494420746578742c20656e647341742074657874000000000060408201526200013162000cdb565b620003c6620001386040516200039281620008ce565b601c81527f496e7374616e6365494420746578742c206d656d62657220746578740000000060208201526200013162000d06565b60018060a01b03825116604051906361a23d0f60e01b8252816044810130600483015260406024830152600354809152606482019060648160051b8401019160036000526020600020916000915b818310620007fa57505050509181600081819503925af1908115620007ee5760009162000742575b508051906001600160401b0382116200072c576801000000000000000082116200072c57602090600554836005558084106200070b575b50016005600052602060002060005b838110620006f6578585620004966200093f565b60055415620006e05760056000527f036b6384b5eca791c62761152d0c79bb0604c104a5fb6f4eb0703f3154bb3db054620004dd91620004d7919062000d58565b62000b2e565b620004e762000c73565b60055460011015620006e05760056000527f036b6384b5eca791c62761152d0c79bb0604c104a5fb6f4eb0703f3154bb3db1546200052b91620004d7919062000d58565b6200053562000cae565b60055460021015620006e05760056000527f036b6384b5eca791c62761152d0c79bb0604c104a5fb6f4eb0703f3154bb3db2546200057991620004d7919062000d58565b6200058362000cdb565b60055460031015620006e05760056000527f036b6384b5eca791c62761152d0c79bb0604c104a5fb6f4eb0703f3154bb3db354620005c791620004d7919062000d58565b620005d162000d06565b60055460041015620006e05760056000527f036b6384b5eca791c62761152d0c79bb0604c104a5fb6f4eb0703f3154bb3db4546200061591620004d7919062000d58565b60068054336001600160a01b0319821681179092556040519291906001600160a01b03167f8be0079c531659141344cd1fd0a4f28419497f9722a3daafe3b4186f6b6457e0600080a3600980546001600160a01b0319166001600160a01b0392909216919091179055613aaf91826200117383396080518281816123c70152612a97015260a0518281816105f9015281816111490152612172015260c0518281816101e8015281816110e50152612aec015260e051826121c40152518181816105b401526136210152f35b634e487b7160e01b600052603260045260246000fd5b60019060208451940193818401550162000482565b6200072590600560005284846000209182019101620009a3565b3862000473565b634e487b7160e01b600052604160045260246000fd5b90503d806000833e620007568183620008ea565b810190602081830312620007e9578051906001600160401b038211620007e957019080601f83011215620007e9578151916001600160401b0383116200072c578260051b9060405193620007ae6020840186620008ea565b8452602080850192820101928311620007e957602001905b828210620007d857505050386200043c565b8151815260209182019101620007c6565b600080fd5b6040513d6000823e3d90fd5b8785036063190181528354939550919390926000916200081a8262000966565b80825291600181169081156200088e57506001146200084d575b5050602060018092960192019301909186949362000414565b909150856000526020600020916000925b8184106200087757505001602090810190600162000834565b60018160209254838787010152019301926200085e565b60ff191660208381019190915292151560051b909101820192506001905062000834565b606081019081106001600160401b038211176200072c57604052565b604081019081106001600160401b038211176200072c57604052565b601f909101601f19168101906001600160401b038211908210176200072c57604052565b51906001600160a01b0382168203620007e957565b6001600160401b0381116200072c57601f01601f191660200190565b604051906200094e82620008ce565b600982526864625f73706163657360b81b6020830152565b90600182811c9216801562000998575b60208310146200098257565b634e487b7160e01b600052602260045260246000fd5b91607f169162000976565b818110620009af575050565b60008155600101620009a3565b600354680100000000000000008110156200072c5760019182820180600355821015620006e0576003600090815281517fc2575a0e9e593c00f959f8c92f12db2869c3395a3b0502d05e2516446f71f85b90930193602093929091906001600160401b03841162000b1a5762000a33865462000966565b601f811162000adc575b508491601f851160011462000a7957939450849291908362000a6d575b50501b916000199060031b1c1916179055565b01519250388062000a5a565b86815285812093958591601f198316915b8883831062000ac1575050501062000aa7575b505050811b019055565b015160001960f88460031b161c1916905538808062000a9d565b85870151885590960195948501948793509081019062000a8a565b62000b0890878452868420601f870160051c81019188881062000b0f575b601f0160051c0190620009a3565b3862000a3d565b909150819062000afa565b634e487b7160e01b82526041600452602482fd5b60048054906801000000000000000082101562000c5e57600180830180835583101562000c49576000828152602080822086519501959094936001600160401b03851162000c36575062000b83865462000966565b601f811162000c04575b508491601f851160011462000bbc57939450849291908362000a6d5750501b916000199060031b1c1916179055565b86815285812093958591601f198316915b8883831062000be9575050501062000aa757505050811b019055565b85870151885590960195948501948793509081019062000bcd565b62000c2f90878452868420601f870160051c81019188881062000b0f57601f0160051c0190620009a3565b3862000b8d565b634e487b7160e01b835260419052602482fd5b603282634e487b7160e01b6000525260246000fd5b604190634e487b7160e01b6000525260246000fd5b6040519062000c8282620008ce565b601382527f64625f7370616365735f696e7374616e636573000000000000000000000000006020830152565b6040519062000cbd82620008ce565b600f82526e696e7374616e6365735f636f64657360881b6020830152565b6040519062000cea82620008ce565b600d82526c737562736372697074696f6e7360981b6020830152565b6040519062000d1582620008ce565b60078252666d656d6265727360c81b6020830152565b9081519160005b83811062000d44575050016000815290565b806020809284010151818501520162000d32565b62000dc19062000db262000d9493600162000d7e62000d774662000dc4565b9262000dc4565b9162000da7604051978896602088019062000d2b565b9183605f60f81b93848152019062000d2b565b908152019062000d2b565b03601f198101835282620008ea565b90565b806000917a184f03e93ff9f4daa797ed6e38ed64bf6a1f0100000000000000008082101562000f35575b506d04ee2d6d415b85acef81000000008083101562000f25575b50662386f26fc100008083101562000f15575b506305f5e1008083101562000f05575b506127108083101562000ef5575b50606482101562000ee4575b600a8092101562000ed9575b6001908160218186019562000e668762000923565b9662000e766040519889620008ea565b80885262000e87601f199162000923565b01366020890137860101905b62000ea0575b5050505090565b600019019083906f181899199a1a9b1b9c1cb0b131b232b360811b8282061a83530491821562000ed35791908262000e93565b62000e99565b916001019162000e51565b919060646002910491019162000e45565b6004919392049101913862000e39565b6008919392049101913862000e2b565b6010919392049101913862000e1b565b6020919392049101913862000e08565b60409350810491503862000dee565b600162000f8c9262000faa62000dc1938362000f9b62000f644662000dc4565b82604051998a976c021a922a0aa22902a20a126229609d1b60208a0152602d89019062000d2b565b605f60f81b8152019062000d2b565b600560fb1b8152019062000d2b565b602960f81b815203601e19810184520182620008ea565b4660010362000fe25773012969f7e3439a9b04025b5a049eb9bad82a8c1290565b46600a03620010035773fad44bf5b843de943a09d4f3e84949a11d3aa3e690565b4661a4b1036200102557739abd75e8640871a5a20d3b4ee6330a04c962affd90565b4661a4ba036200104757731a22854c5b1642760a827f20137a67930ae108d290565b466089036200106857735c4e6a9e5c1e1bf445a062006faf19ea6c49afea90565b4661013a036200108a577359ef8bf2d6c102b4c42aef9189e1a9f0abfd652d90565b4662aa36a703620010ad5773c50c62498448acc8dbde43da77f8d5d2e2c7597d90565b466101a403620010cf5773c72e8a7be04f2469f8c2db3f1bdf69a7d516abba90565b4662066eee03620010f25773223a74b8323914afdc3ff1e5005564dc17231d6e90565b4662013881036200111557734b48841d4b32c4650e4abc117a03fe8b51f38f6890565b466204cb2f03620011385773030bcf3d50cad04c2e57391b12740982a930862190565b46617a69036200115a5773e7f1725e7734ce288f8367e1bb143e90bb3f051290565b60405163264e42cf60e01b8152466004820152602490fdfe608080604052600436101561001d575b50361561001b57600080fd5b005b600090813560e01c90816306433b1b146123b3575080630c9ddf6d1461223657806311ad2f3414612203578063150b7a0214612128578063221c1fd1146120765780632711447f14612029578063284e82e814611ec75780633ac275221461172a5780633ccfd60b146117075780633e203835146116d85780633ec29e721461158657806347d121c51461155f578063557ed1ba146115445780635e895f29146114e257806367e0970914611449578063715018a6146113eb57806371671bf2146112bf5780637a9b777414611250578063820cc5571461123257806382211846146110be57806383a8b3d014610cb357806384ec965314610c865780638897538314610c5f5780638a8fd25014610c0d5780638da5cb5b14610be45780638e19899e14610b0d5780639ad66a23146107a6578063a58dcc9514610726578063a5df63d6146106f5578063bfc51b7e14610666578063c6a36c4b14610628578063cb609077146105e3578063d68d087c1461059e578063db7baba914610581578063dd321bfc1461053a578063e0cf1e4c1461032d578063e2b1e4ed146102e0578063f2fde38b1461021a5763ffeb4a300361000f57346102175780600319360112610217576040517f00000000000000000000000000000000000000000000000000000000000000006001600160a01b03168152602090f35b80fd5b503461021757602036600319011261021757610234612423565b61023c612728565b6001600160a01b0390811690811561028c57600654826001600160601b0360a01b821617600655167f8be0079c531659141344cd1fd0a4f28419497f9722a3daafe3b4186f6b6457e0600080a380f35b60405162461bcd60e51b815260206004820152602660248201527f4f776e61626c653a206e6577206f776e657220697320746865207a65726f206160448201526564647265737360d01b6064820152608490fd5b5034610217576020366003190112610217576004358152600c60205260ff60408220541660405190600781101561031957602092508152f35b634e487b7160e01b83526021600452602483fd5b50346102175761033c36612577565b8183929352602090600a8252604083209360018060a01b039461036a86600281845416930154163314612a0f565b806104ce575b5061037a906134fb565b91835b82518110156104ca576104c5906104c0660102ba422a922960cd1b88610463886104b9896103de8a6103ad61263e565b969054978b6103ea6103e56103c06133c1565b936103c961263e565b989054946103d860039d612fb1565b9a6133f1565b5116613020565b612fb1565b9461045a6040519687878101996c024b739ba30b731b2a4a2101e9609d1b8b526d01020a7221036b2b6b132b9101e960951b815161043081602d948d86880191016126e0565b83019182015282519061044b82603b958c87850191016126e0565b0103601b8101895201876124e1565b881b1c90612dcc565b916040519889936b02222a622aa2290232927a6960a51b8486015261049281518092602c9687890191016126e0565b84019283015251906104aa82603395868401906126e0565b010360138101875201856124e1565b1b1c61361f565b61339c565b61037d565b8480f35b803b156105365784604051809263362eb0ab60e11b82528660048301528183816104fb602482018a612a47565b03925af1801561052b57908591610513575b50610370565b61051c90612498565b61052757833861050d565b8380fd5b6040513d87823e3d90fd5b8480fd5b5034610217576040366003190112610217576040610556612439565b9160043581526007602052209060018060a01b03166000526020526020604060002054604051908152f35b503461021757806003193601126102175760209054604051908152f35b50346102175780600319360112610217576040517f00000000000000000000000000000000000000000000000000000000000000006001600160a01b03168152602090f35b50346102175780600319360112610217576040517f00000000000000000000000000000000000000000000000000000000000000006001600160a01b03168152602090f35b50346102175760203660031901126102175760408091600435815260086020522060018060a01b036001818354169201541682519182526020820152f35b50346102175761067536612465565b909291808352600c60205260ff60408420541660078110156106e1576106de93946106a560056106d893146127d2565b6106b96106b336868461279b565b84612a84565b808752600c60205260408720805460ff1916600517905593369161279b565b91612c0f565b80f35b634e487b7160e01b84526021600452602484fd5b503461021757604036600319011261021757602061071c610714612439565b60043561386b565b6040519015158152f35b503461021757602036600319011261021757602060018060a01b03605560438260025416604051903060388301526f5af43d82803e903d91602b57fd5bf3ff60248301526014820152733d602d80600a3d3981f3363d3d373d3d3d363d73815260043560588201526037600c820120607882015201209060405191168152f35b506003199060203683018113610b0957600435926040516107c6816124ab565b600190818152833681830137604051916107df836124ab565b808352843681850137604051936107f5856124ab565b8185528536818701376040519461080b866124ab565b828652868601938736863760405194610823866124ab565b848652888a5b818110610af9575060405161083d816124ab565b86815281369101378a8a52600889526040808b2086015490516310e5697360e01b81526001600160a01b0390911697908a816004818c5afa908115610aee578c91610abc575b50918b98969391999795949230610899846133e4565b526108a3896133e4565b52336108ae8b6133e4565b52604051633381899760e01b815260a06004820152975160a4890181905297998a9860c48a0192908b8e5b828210610a8f575050505091610900826109209594888c61091096030160248d0152612a47565b90868a83030160448b0152612a47565b9084888303016064890152612a47565b9185830301608486015282518083528883019289808360051b83010195019388915b8b848410610a5a5750505050505050828091039134905af18015610a4f5783906109b9575b61097191506133e4565b519083835260078152604083209033600052528060406000205562278d004201908142116109a5576106de92933390613257565b634e487b7160e01b83526011600452602483fd5b503d8084833e6109c981836124e1565b8101908281830312610527578051906001600160401b03821161053657019080601f830112156105275781516109fe81612502565b92610a0c60405194856124e1565b818452848085019260051b820101928311610a4b5784809101915b838310610a3b575050505061097190610967565b8251815291810191859101610a27565b8580fd5b6040513d85823e3d90fd5b919497995092958792959850610a7b8291601f198682030187528a51612703565b9801930193018a9795929389979592610942565b9194889b9d5083839295979994989a9b9d505181520195019101908b99979694928e9b999694928e6108d9565b90508a81813d8311610ae7575b610ad381836124e1565b81010312610ae2575138610883565b600080fd5b503d610ac9565b6040513d8e823e3d90fd5b606082828a010152018990610829565b5080fd5b503461021757602036600319011261021757600435815260086020526040812060405190610b3a826124ab565b80546001600160a01b0390811680845260019092015481166020840190815290913303610bd257819051169083823192803b15610b0957818091606460405180948193636ce5768960e11b83528160048401523060248401528960448401525af18015610bc757610bb3575b50506106de92511661399e565b610bbc90612498565b610527578338610ba6565b6040513d84823e3d90fd5b60405163c00f906f60e01b8152600490fd5b50346102175780600319360112610217576006546040516001600160a01b039091168152602090f35b503461021757602036600319011261021757600435600554811015610b095760209060056000527f036b6384b5eca791c62761152d0c79bb0604c104a5fb6f4eb0703f3154bb3db00154604051908152f35b503461021757604036600319011261021757602061071c610c7e612439565b60043561292b565b503461021757604036600319011261021757602061071c610ca5612423565b610cad612439565b90612b9e565b50346102175760c0366003190112610217576004356024356001600160401b0381116110ba57610ce79036906004016123f6565b6044929192356001600160401b03811161053657610d099036906004016123f6565b9190926064356001600160401b0381116110b657610d2b9036906004016123f6565b91906084356001600160401b0381116110b257610d4c9036906004016123f6565b969060a4356001600160401b0381116110ae57610d6d9036906004016123f6565b939092610d7a338761292b565b1561109c578b9a8b988b6040518060209c8d8201938c8552808a60408501378201906040820152038c81018252604001610db490826124e1565b519020809d528d600c8b52604090205460ff16600781101561108857611076578c8e52600b8a526040808f208054336001600160a01b0319909116179055600c8b528e20805460ff19166006179055610e0f9136919061279b565b983690610e1b9261279b565b953690610e279261279b565b973690610e339261279b565b913690610e3f9261279b565b96610e486125ba565b97905496610e54613138565b93610e5d6125ba565b9b905496610e6a906134fb565b610e7390612fb1565b94610e7d906134fb565b610e8690612fb1565b92610e9090612fb1565b97610e9a90612fb1565b93610ea490612fb1565b91610eae90612fb1565b90610eb890612fb1565b91610ec233613020565b610ecb90612fb1565b948a6040519a888c9951908184808d01920191610ee7926126e0565b890196600b60fa1b978884820152815191828560218401920191610f0a926126e0565b01908760218301528051809360228401920191610f26926126e0565b01856022820152815191828d60238401920191610f42926126e0565b01846023820152815191828c60248401920191610f5e926126e0565b01836024820152815191828b60258401920191610f7a926126e0565b01826025820152815191828a60268401920191610f96926126e0565b01906026820152815191828860278401920191610fb2926126e0565b0103600781018452602701610fc790846124e1565b6040519160808301978389106001600160401b038a1117611060577f496e7374616e636549442c20636f646549442c206e616d652c2061626f75742c611056966106de9a604052604886528501527f206368617449442c2049504e532c2049504e53456e637279707465644b65792c6040850152671031b932b0ba37b960c11b606085015260031b1c90612d2c565b9160031b1c61361f565b634e487b7160e01b600052604160045260246000fd5b604051631144626f60e01b8152600490fd5b634e487b7160e01b8f52602160045260248ffd5b6040516346627df160e01b8152600490fd5b8a80fd5b8880fd5b8680fd5b8280fd5b503461021757602036600319011261021757806110d9612423565b81546001600160a01b037f00000000000000000000000000000000000000000000000000000000000000008116929091833b156105365782916044869283604051958694859362d5fa2b60e81b8552600485015216978860248401525af190811561121357849161121e575b50507f00000000000000000000000000000000000000000000000000000000000000001690600154823b156111f65760405190630a3b53db60e21b82526004820152816024820152838160448183875af19081156112135784916111fb575b5050600154823b156111f65760648492836040519586948593632142170760e11b8552306004860152602485015260448401525af18015610bc7576111e65750f35b6111ef90612498565b6102175780f35b505050fd5b61120490612498565b61120f5782386111a4565b5050fd5b6040513d86823e3d90fd5b61122790612498565b61120f578238611145565b50346102175780600319360112610217576020600154604051908152f35b5034610217576020366003190112610217576004356001600160401b038111610b09576112846106de9136906004016123f6565b6106d861129d855461129736858761279b565b90612a84565b92838652600c60205260408620600560ff19825416179055855492369161279b565b503461021757602080600319360112610b09576004356004548110156110ba5760046000527f8a35acfbc15ff81a39ae7d344fd709f28e8600b4aa8c65c6b64bfe7fe36bd19b0190604051918381549460019086821c938288169788156113e1575b86861089146113cd57868899878a98999a5291826000146113a957505060011461136d575b505050611355925003836124e1565b611369604051928284938452830190612703565b0390f35b869350819291528282205b8583106113915750506113559350820101388080611346565b80548389018501528794508693909201918101611378565b93509450505061135594915060ff191682840152151560051b820101388080611346565b634e487b7160e01b83526022600452602483fd5b94607f1694611321565b5034610217578060031936011261021757611404612728565b600680546001600160a01b031981169091556000906001600160a01b03167f8be0079c531659141344cd1fd0a4f28419497f9722a3daafe3b4186f6b6457e08280a380f35b50346102175761145836612577565b818352600a602052826040812061148060018060a01b03600281845416930154163314612a0f565b80611491575b50506106de91613405565b803b15610b0957816040518092632f41d6e160e21b8252602060048301528183816114bf602482018a612a47565b03925af18015610bc75715611486576114d790612498565b6110ba578238611486565b50346102175760e0366003190112610217576114fc612439565b61150461244f565b506001600160a01b0360643581811603610ae2576084356001600160401b038111610527576115379036906004016123f6565b5050309116036102175780f35b50346102175780600319360112610217576020604051428152f35b503461021757604036600319011261021757602061071c61157e612439565b60043561283e565b50346102175761159536612465565b828452600a6020908152604085206002015490939291906001600160a01b03163303611693576116796115d26106de95949361105693369161279b565b926115db612607565b95905494611607611689602d6115ef612ff1565b9461164f6103e56115fe612607565b96905497612fb1565b9861164a602e604051809c6d036b2ba30b230ba30a1a4a2101e960951b8883015261163a815180928a86860191016126e0565b810103600e81018d52018b6124e1565b6134fb565b60405198826c024b739ba30b731b2a4a2101e9609d1b8b94850152825192839186860191016126e0565b810103600d8101885201866124e1565b60031b1c90613163565b60405162461bcd60e51b815260048101859052601860248201527f44424e533a204e6f20696e7374616e63652061636365737300000000000000006044820152606490fd5b50346102175760403660031901126102175760206116ff6116f7612439565b6004356138fd565b604051908152f35b5034610217578060031936011261021757611720612728565b6106de473361399e565b50346102175760e0366003190112610217576001600160401b036044351161021757366023604435011215610217576001600160401b036044356004013511610217573660246044356004013560051b604435010111610217576064356001600160401b038111610b09576117a39036906004016123f6565b6084356001600160401b038111610527576117c29036906004016123f6565b9260a4356001600160401b038111610a4b576117e29036906004016123f6565b94909160c4356001600160401b038111611ec3576118049036906004016123f6565b94906004358952600c60205260ff60408a2054166007811015611eaf57600561182d91146127d2565b604051602081019060043582528987604083013761185e6040828d8d820190838201520360208101845201826124e1565b51902094858a52600c60205260ff60408b2054166007811015611e9b5761107657899260443560040135611d2b575b6040518060608101106001600160401b03606083011117611060578060608d920160405260018060a01b0386168152602435602082015260026040808301933385528b8152600a60205220602060018060a01b03845116936001600160601b0360a01b948584541617835501516001820155019160018060a01b03905116908254161790558a60018060a01b03851615156024351515600014611cb0575050868b52600c60205260408b20805460ff191660031790556119578761194f61281e565b6024356136a2565b945b878c52600c60205260ff60408d2054169960078b1015611c9c57369061197e9261279b565b95369061198a9261279b565b9836906119969261279b565b9536906119a29261279b565b966119ab612607565b979054966119b7612ff1565b946119c0612607565b9b9054986119cd906134fb565b6119d690612fb1565b956119e26004356134fb565b6119eb90612fb1565b946119f590612e49565b6119fe90612fb1565b98611a0890612fb1565b95611a1290612fb1565b93611a1c90612fb1565b91611a2690612fb1565b90611a3090613020565b611a3990612fb1565b91611a45602435612e49565b611a4e90612fb1565b93611a5890613020565b611a6190612fb1565b94611a6b33613020565b611a7490612fb1565b976040519b8c8b819c5160208193019160200191611a91926126e0565b8b0198600b60fa1b998a602082015281519182602183019160200191611ab6926126e0565b0189602182015281519182602283019160200191611ad3926126e0565b0188602282015281519182602383019160200191611af0926126e0565b0187602382015281519182602483019160200191611b0d926126e0565b0186602482015281519182602583019160200191611b2a926126e0565b0185602582015281519182602683019160200191611b47926126e0565b0184602682015281519182602783019160200191611b64926126e0565b0183602782015281519182602883019160200191611b81926126e0565b0182602882015281519182602983019160200191611b9e926126e0565b0190602982015281519182602a83019160200191611bbb926126e0565b0103600a81018352602a01611bd090836124e1565b6040519060a08201938285106001600160401b03861117611060576106de9761105695604052607b84527f496e7374616e636549442c20696e7374616e63654f6653706163652c20696e7360208501527f74616e6365547970652c206d657461646174614349442c206368617449442c2060408501527f49504e532c2049504e53456e637279707465644b65792c206761746564436f6e60608501527f74726163742c2070726963652c206c6f636b2c2063726561746f720000000000608085015260031b1c90612d2c565b634e487b7160e01b8d52602160045260248dfd5b8080611d24575b15611ce7575050868b52600c60205260408b20805460ff19166001179055611ce18761194f61281e565b94611959565b90959015611d0b57878c52600c60205260408c20805460ff19166002179055611959565b600c60205260408c20805460ff19166004179055611959565b508c611cb7565b9250611d433660443560040135602460443501612519565b600254608881901c62ffffff16763d602d80600a3d3981f3363d3d373d3d3d363d73000000178c5260781b6effffffffffffffffffffffffffffff19166e5af43d82803e903d91602b57fd5bf31760205286603760098df5906001600160a01b03821615611e56578b8091604051611de681611dd8602082019463a224cee760e01b8652602060248401526044830190612a47565b03601f1981018352826124e1565b519082855af1611df4612b6e565b5015611e1f5792611e1a611e143660443560040135602460443501612519565b88613405565b61188d565b60405162461bcd60e51b815260206004820152600f60248201526e6572726f72206465706c6f79696e6760881b6044820152606490fd5b60405162461bcd60e51b815260206004820152601760248201527f455243313136373a2063726561746532206661696c65640000000000000000006044820152606490fd5b634e487b7160e01b8b52602160045260248bfd5b634e487b7160e01b8a52602160045260248afd5b8780fd5b50602090816003193601126102175760043591611ee433846138fd565b838352600782526040808420338552835280842054858552600884528185206001015491516310e5697360e01b815292939092916001600160a01b0316908083600481855afa92831561201e578693611fef575b50813b15610a4b5791859160405193849263d813cc1960e01b8452600484015285602484015230604484015260809081606485015260605191826084860152855b838110611fd75750505060a483828683839584010152601f8019910116810103019134905af1801561121357611fc4575b5062278d0082018092116109a5576106de92933390613257565b611fd090939193612498565b9138611faa565b8082015188820160a401528a96508795508201611f79565b9080935081813d8311612017575b61200781836124e1565b81010312610a4b57519138611f38565b503d611ffd565b6040513d88823e3d90fd5b50346102175760203660031901126102175760406060916004358152600a6020522060018060a01b0390818154169160026001830154920154169060405192835260208301526040820152f35b503461021757608036600319011261021757612090612423565b50612099612439565b506120a261244f565b506064356001600160401b038111610b09576120c29036906004016123f6565b50506040516310e5697360e01b8152602081600481335afa908115610bc75782916120f3575b602082604051908152f35b90506020813d8211612120575b8161210d602093836124e1565b81010312610b09576020915051386120e8565b3d9150612100565b503461021757608036600319011261021757612142612423565b5061214b612439565b506044356064356001600160401b0381116110ba5761216e9036906004016123f6565b50507f00000000000000000000000000000000000000000000000000000000000000006001600160a01b031633036121f1578154156121ba575b604051630a85bd0160e11b8152602090f35b806121e8916001557f0000000000000000000000000000000000000000000000000000000000000000612b4a565b905538806121a8565b604051634a93b62160e11b8152600490fd5b5034610217576020366003190112610217576020906004358152600b8252604060018060a01b0391205416604051908152f35b5034610217576060366003190112610217576004356001600160401b036024358181116105275761226b9036906004016123f6565b9091604435908111610536576122859036906004016123f6565b848652600b60209081526040872054909391906001600160a01b031633036123a1576106de956122cb611056946122c360299861239196369161279b565b93369161279b565b916123066116896122da6125ba565b9990549861236b6103e56122ec613138565b9761164a603161230c6122fd6125ba565b9a90549b612fb1565b9c612fb1565b9b6040519c8d916603730b6b2901e960cd1b89840152612335815180928b6027870191016126e0565b8201690161030b137baba101e960b51b602782015261235c825180938b87850191016126e0565b0103601181018d52018b6124e1565b604051988268031b7b232a4a2101e960bd1b8b94850152825192839186860191016126e0565b81010360098101885201866124e1565b6040516306815cbd60e41b8152600490fd5b905034610b095781600319360112610b09577f00000000000000000000000000000000000000000000000000000000000000006001600160a01b03168152602090f35b9181601f84011215610ae2578235916001600160401b038311610ae25760208381860195010111610ae257565b600435906001600160a01b0382168203610ae257565b602435906001600160a01b0382168203610ae257565b604435906001600160a01b0382168203610ae257565b906040600319830112610ae25760043591602435906001600160401b038211610ae257612494916004016123f6565b9091565b6001600160401b03811161106057604052565b604081019081106001600160401b0382111761106057604052565b606081019081106001600160401b0382111761106057604052565b90601f801991011681019081106001600160401b0382111761106057604052565b6001600160401b0381116110605760051b60200190565b929161252482612502565b9161253260405193846124e1565b829481845260208094019160051b8101928311610ae257905b8282106125585750505050565b81356001600160a01b0381168103610ae257815290830190830161254b565b906040600319830112610ae25760043591602435906001600160401b038211610ae25780602383011215610ae2578160246125b793600401359101612519565b90565b600554600210156125f15760056000527f036b6384b5eca791c62761152d0c79bb0604c104a5fb6f4eb0703f3154bb3db290600090565b634e487b7160e01b600052603260045260246000fd5b600554600110156125f15760056000527f036b6384b5eca791c62761152d0c79bb0604c104a5fb6f4eb0703f3154bb3db190600090565b600554600410156125f15760056000527f036b6384b5eca791c62761152d0c79bb0604c104a5fb6f4eb0703f3154bb3db490600090565b600554156125f15760056000527f036b6384b5eca791c62761152d0c79bb0604c104a5fb6f4eb0703f3154bb3db090600090565b600554600310156125f15760056000527f036b6384b5eca791c62761152d0c79bb0604c104a5fb6f4eb0703f3154bb3db390600090565b60005b8381106126f35750506000910152565b81810151838201526020016126e3565b9060209161271c815180928185528580860191016126e0565b601f01601f1916010190565b6006546001600160a01b0316330361273c57565b606460405162461bcd60e51b815260206004820152602060248201527f4f776e61626c653a2063616c6c6572206973206e6f7420746865206f776e65726044820152fd5b6001600160401b03811161106057601f01601f191660200190565b9291926127a782612780565b916127b560405193846124e1565b829481845281830111610ae2578281602093846000960137010152565b156127d957565b60405162461bcd60e51b815260206004820152601b60248201527f44424e533a204e6f6465206973206e6f742061207375626e6f646500000000006044820152606490fd5b6040519061282b826124ab565b600482526344424e5360e01b6020830152565b906000828152600a60205260018060a01b0360408220541690600c60205260ff60408220541660078110156129175760030361287f5750506125b79161386b565b838152600c60205260ff6040822054166007811015612917576001036128c057506128aa9082612b9e565b9182156128b657505090565b6125b7925061386b565b8392508093915052600c60205260ff6040832054166007811015610319576002149081156128f5575b50156125b75750600190565b825250600c602052604081205460ff16600781101561291757600414386128e9565b634e487b7160e01b82526021600452602482fd5b919060008091848352600a60205260018060a01b038060408520541695600c60205260ff60408620541693600785101597886129fb57600386036129a65750508452600a60205280600260408620015416911614935b612917576004811190811561299d575b506129995750565b9150565b90501538612991565b9392509650508395600184146000146129cb5750906129c491612b9e565b935b612981565b95508395600284146000146129e55750906129c491612b9e565b9550505081600482036129c65760019450612981565b634e487b7160e01b87526021600452602487fd5b15612a1657565b60405162461bcd60e51b81526020600482015260096024820152684e6f2061636365737360b81b6044820152606490fd5b90815180825260208080930193019160005b828110612a67575050505090565b83516001600160a01b031685529381019392810192600101612a59565b906020815191012060018060a01b0391827f00000000000000000000000000000000000000000000000000000000000000001692833b15610ae25760009360a4859260405196879384926305ef2c7f60e41b84528760048501528860248501523060448501527f00000000000000000000000000000000000000000000000000000000000000001660648401528160848401525af1928315612b3e576125b793612b2f575b50612b4a565b612b3890612498565b38612b29565b6040513d6000823e3d90fd5b906040519060208201928352604082015260408152612b68816124c6565b51902090565b3d15612b99573d90612b7f82612780565b91612b8d60405193846124e1565b82523d6000602084013e565b606090565b6040516370a0823160e01b81526001600160a01b0391821660048201529160209183916024918391165afa908115612b3e57600091612bde575b50151590565b906020823d8211612c07575b81612bf7602093836124e1565b8101031261021757505138612bd8565b3d9150612bea565b611056612d2a93612c1e612675565b9490549360405190612c2f826124ab565b600982526103e5612cd960226020956864625f73706163657360b81b87870152612c78612c726103e5612c6c612c63612675565b989054996134fb565b936134fb565b98612fb1565b6040519882612c908b945180928c80880191016126e0565b830190600b60fa1b91828b820152612cb1825180938d6021850191016126e0565b01906021820152612cca825180938b87850191016126e0565b010360028101885201866124e1565b7f4442537061636549442c20444253756253706163654f6649442c20444253756260405194612d07866124c6565b602986528501526853706163654e616d6560b81b604085015260031b1c90612d2c565b565b92612d3d6036926125b79495612dcc565b906040519485926b024a729a2a92a1024a72a27960a51b6020850152612d6d815180926020602c880191016126e0565b8301600560fb1b602c820152612d8d825180936020602d850191016126e0565b0167052ac8298aa8aa6560c31b602d820152612db38251809360206035850191016126e0565b01602960f81b60358201520360168101845201826124e1565b60226125b791612de4612dde46612e49565b94612e49565b6040519482612dfd8794518092602080880191016126e0565b830190605f60f81b91826020820152612e208251809360206021850191016126e0565b01906021820152612e3a82518093602087850191016126e0565b010360028101845201826124e1565b806000917a184f03e93ff9f4daa797ed6e38ed64bf6a1f01000000000000000080821015612fa3575b506d04ee2d6d415b85acef810000000080831015612f94575b50662386f26fc1000080831015612f85575b506305f5e10080831015612f76575b5061271080831015612f67575b506064821015612f57575b600a80921015612f4d575b60019081602181860195612ee287612780565b96612ef060405198896124e1565b808852612eff601f1991612780565b01366020890137860101905b612f17575b5050505090565b600019019083906f181899199a1a9b1b9c1cb0b131b232b360811b8282061a835304918215612f4857919082612f0b565b612f10565b9160010191612ecf565b9190606460029104910191612ec4565b60049193920491019138612eb9565b60089193920491019138612eac565b60109193920491019138612e9d565b60209193920491019138612e8b565b604093508104915038612e72565b6125b760226040518093602760f81b90816020840152612fdb8151809260206021870191016126e0565b82019060218201520360028101845201826124e1565b60405190612ffe826124ab565b601382527264625f7370616365735f696e7374616e63657360681b6020830152565b604051906001600160a01b0316613036826124c6565b602a82526020820160403682378251156125f1576030905381516001908110156125f157607860218401536029905b8082116130b95750506130755790565b606460405162461bcd60e51b815260206004820152602060248201527f537472696e67733a20686578206c656e67746820696e73756666696369656e746044820152fd5b9091600f81166010811015613112576f181899199a1a9b1b9c1cb0b131b232b360811b901a6130e88486613127565b5360041c9180156130fd576000190190613065565b60246000634e487b7160e01b81526011600452fd5b60246000634e487b7160e01b81526032600452fd5b9081518110156125f1570160200190565b60405190613145826124ab565b600f82526e696e7374616e6365735f636f64657360881b6020830152565b9061317091939293612dcc565b9060405191602091828401928484106001600160401b03851117611060576125b794602c9460405260008152918051613212575b506132036040519687946602aa82220aa22960cd1b848701526131d0815180928660278a0191016126e0565b85016401029a2aa160dd1b60278201526131f282518093868a850191016126e0565b0191835193849187850191016126e0565b0103600c8101845201826124e1565b90915061325060276040518093660102ba422a922960cd1b86830152613240815180928886860191016126e0565b81010360078101845201826124e1565b90386131a4565b9091612d2a93611056916132696126a9565b959054946103e561334d602360405194613282866124ab565b600d86526020966c737562736372697074696f6e7360981b888801526132d06103e56132ca6103e5612dde6103e56132c46132bb6126a9565b9c90549d6134fb565b97613020565b9a612e49565b9060405199836132e98c955180928d80890191016126e0565b840191600b60fa1b92838c82015261330b8c83519384916021850191016126e0565b01826021820152613325825180938d6022850191016126e0565b0190602282015261333e825180938b87850191016126e0565b010360038101885201866124e1565b7f496e7374616e636549442c20737562736372696265722c20746f6b656e49442c6040519461337b866124c6565b602786528501526608195b991cd05d60ca1b604085015260031b1c90612d2c565b60001981146133ab5760010190565b634e487b7160e01b600052601160045260246000fd5b604051906133ce826124ab565b60078252666d656d6265727360c81b6020830152565b8051156125f15760200190565b80518210156125f15760209160051b010190565b613411909291926134fb565b9160005b81518110156134f5576134f0906104c061342d61263e565b90546134376133c1565b916134e861344361263e565b90546003956134518d612fb1565b9161346a6103e58d6103de8d60018060a01b03926133f1565b937124b739ba30b731b2a4a2161036b2b6b132b960711b60406134cd81519788885161349e8160209b8c80860191016126e0565b8101600b60fa1b8a8201528251906134be826021958d87850191016126e0565b0103600181018a5201886124e1565b51946134d8866124ab565b60128652850152881b1c90612d2c565b921b1c61361f565b613415565b50509050565b60405190613508826124c6565b6040825260209182810191604036843760405190613525826124ab565b601082526f181899199a1a9b1b9c1cb0b131b232b360811b8583015260005b8581106135845750505061060f60f31b926125b792613574602293604051968794850152518092858501906126e0565b81010360028101845201826124e1565b81811a9083518015613609576001600160f81b03199081906135a890850487613127565b51169060019383851b92848404600214851517156133ab5760001a6135cd848a613127565b5386518015613609576135e1910687613127565b51169281018091116133ab576135fe6136049360001a9187613127565b5361339c565b613544565b634e487b7160e01b600052601260045260246000fd5b7f00000000000000000000000000000000000000000000000000000000000000006001600160a01b031691823b15610ae2576136889260009283604051809681958294631bbd786d60e11b84523060048501526024840152606060448401526064830190612703565b03925af18015612b3e576136995750565b612d2a90612498565b90916136f2939260095460009384916040918251988995869263216c908360e11b845262278d0060048501528660248501526044840152600019606484015260c0608484015260c4830190612703565b60a482018590526001600160a01b039560209586949190920391839188165af1968715613861578597613829575b5082871694853b1561021757815163debe2b0d60e01b815260048101829052603260248201528181604481838b5af180156138105761381a575b50853b156102175781516374cac47d60e01b81523060048201528160248201528160448201528160648201528160848201528160a48201528160c4820152818160e481838b5af180156138105790859392916137f4575b5060086001948351976137c3896124ab565b338952818901998a5283525220935116926001600160601b0360a01b93848254161781550192511690825416179055565b81935061380390949294612498565b610b0957918391386137b1565b83513d84823e3d90fd5b61382390612498565b3861375a565b9096508181813d831161385a575b61384181836124e1565b8101031261053657518281168103610536579538613720565b503d613837565b81513d87823e3d90fd5b60009081526008602090815260408083206001015490516370a0823160e01b81526001600160a01b039485166004820152929383916024918391165afa9182156138f15780926138bd575b5050151590565b9091506020823d82116138e9575b816138d8602093836124e1565b8101031261021757505138806138b6565b3d91506138cb565b604051903d90823e3d90fd5b600081815260208093600782526040832060018060a01b0380921684528252604083205493835260088252600160408420015416926024604051809581936354b249fb60e01b835260048301525afa928315613991578193613960575b50505090565b9091809350813d831161398a575b61397881836124e1565b8101031261021757505138808061395a565b503d61396e565b50604051903d90823e3d90fd5b814710613a34576000918291829182916001600160a01b03165af16139c1612b6e565b50156139c957565b60405162461bcd60e51b815260206004820152603a60248201527f416464726573733a20756e61626c6520746f2073656e642076616c75652c207260448201527f6563697069656e74206d617920686176652072657665727465640000000000006064820152608490fd5b60405162461bcd60e51b815260206004820152601d60248201527f416464726573733a20696e73756666696369656e742062616c616e63650000006044820152606490fdfea26469706673582212209b8832bca21c410b27d2686d47acb0946bd29a6e894c83ce30d371b9d0227f5764736f6c63430008140033",
  "devdoc": {
    "details": "Create a decentralized Database NameSpaces Where space and subSpaces can get created and anyone can create instances inside a space and contribute to the public this is possible by integrating tableland SQL in solidity ENS system to support a decentralized Namespace of Database spaces IPNS and Push protocol for code and space discussions",
    "kind": "dev",
    "methods": {
      "createDBSpace(string)": {
        "details": "Create a new space under the given node",
        "params": {
          "_name": "The name of the new space"
        }
      },
      "createDBSubSpace(bytes32,string)": {
        "details": "Create a new subnode under the given node",
        "params": {
          "_DBSpace": "The parent node",
          "_name": "The name of the new subnode"
        }
      },
      "createInstanceCode(bytes32,string,string,string,string,string)": {
        "details": "Create a new instance under the given node",
        "params": {
          "_about": "The about of the new instance",
          "_chatID": "The chatID of the new instance",
          "_codeIPNS": "The IPNS of the new instance",
          "_instance": "The parent node",
          "_name": "The name of the new instance"
        }
      },
      "createSpaceInstance(bytes32,uint256,address[],string,string,string,string)": {
        "details": "Create a new instance under the given node",
        "params": {
          "_IPNS": "The IPNS of the new instance",
          "_chatID": "The chatID of the new instance",
          "_members": "The hatID of the new instance",
          "_metadataCID": "The name of the new instance",
          "_node": "The parent node"
        }
      },
      "hasViewAccess(bytes32,address)": {
        "details": "Check if the sender has access to the given instance",
        "params": {
          "_instance": "The instance to check",
          "_sender": "The sender to check"
        },
        "returns": {
          "_0": "bool"
        }
      },
      "owner()": {
        "details": "Returns the address of the current owner."
      },
      "renounceOwnership()": {
        "details": "Leaves the contract without owner. It will not be possible to call `onlyOwner` functions. Can only be called by the current owner. NOTE: Renouncing ownership will leave the contract without an owner, thereby disabling any functionality that is only available to the owner."
      },
      "transferOwnership(address)": {
        "details": "Transfers ownership of the contract to a new account (`newOwner`). Can only be called by the current owner."
      },
      "withdraw(bytes32)": {
        "details": "withdraw function for an agentID",
        "params": {
          "_instanceID": "to withdraw money from the lock contract"
        }
      }
    },
    "title": "DBNS",
    "version": 1
  },
  "userdoc": {
    "errors": {
      "ChainNotSupported(uint256)": [
        {
          "notice": "Current chain does not have a TablelandTables deployment."
        }
      ]
    },
    "kind": "user",
    "methods": {
      "withdraw(bytes32)": {
        "notice": "We give back to the agent creator 70% of the total income from that agent the platform keeps 30% of that amount"
      }
    },
    "version": 1
  },
  "storageLayout": {
    "storage": [
      {
        "astId": 4545,
        "contract": "contracts/DBNS.sol:DBNS",
        "label": "DBNS_NODE",
        "offset": 0,
        "slot": "0",
        "type": "t_bytes32"
      },
      {
        "astId": 4549,
        "contract": "contracts/DBNS.sol:DBNS",
        "label": "DOMAIN_ID",
        "offset": 0,
        "slot": "1",
        "type": "t_uint256"
      },
      {
        "astId": 4754,
        "contract": "contracts/DBNS.sol:DBNS",
        "label": "implementation",
        "offset": 0,
        "slot": "2",
        "type": "t_address"
      },
      {
        "astId": 4849,
        "contract": "contracts/DBNS.sol:DBNS",
        "label": "createTableStatements",
        "offset": 0,
        "slot": "3",
        "type": "t_array(t_string_storage)dyn_storage"
      },
      {
        "astId": 4852,
        "contract": "contracts/DBNS.sol:DBNS",
        "label": "tables",
        "offset": 0,
        "slot": "4",
        "type": "t_array(t_string_storage)dyn_storage"
      },
      {
        "astId": 4855,
        "contract": "contracts/DBNS.sol:DBNS",
        "label": "tableIDs",
        "offset": 0,
        "slot": "5",
        "type": "t_array(t_uint256)dyn_storage"
      },
      {
        "astId": 7,
        "contract": "contracts/DBNS.sol:DBNS",
        "label": "_owner",
        "offset": 0,
        "slot": "6",
        "type": "t_address"
      },
      {
        "astId": 5723,
        "contract": "contracts/DBNS.sol:DBNS",
        "label": "instanceSubscriptions",
        "offset": 0,
        "slot": "7",
        "type": "t_mapping(t_bytes32,t_mapping(t_address,t_uint256))"
      },
      {
        "astId": 5728,
        "contract": "contracts/DBNS.sol:DBNS",
        "label": "instanceLock",
        "offset": 0,
        "slot": "8",
        "type": "t_mapping(t_bytes32,t_struct(InstanceStruct)5717_storage)"
      },
      {
        "astId": 5731,
        "contract": "contracts/DBNS.sol:DBNS",
        "label": "UNLOCK",
        "offset": 0,
        "slot": "9",
        "type": "t_contract(IUnlockV12)3630"
      },
      {
        "astId": 4128,
        "contract": "contracts/DBNS.sol:DBNS",
        "label": "instances",
        "offset": 0,
        "slot": "10",
        "type": "t_mapping(t_bytes32,t_struct(SpaceInstance)4123_storage)"
      },
      {
        "astId": 4132,
        "contract": "contracts/DBNS.sol:DBNS",
        "label": "codeOwner",
        "offset": 0,
        "slot": "11",
        "type": "t_mapping(t_bytes32,t_address)"
      },
      {
        "astId": 4137,
        "contract": "contracts/DBNS.sol:DBNS",
        "label": "isType",
        "offset": 0,
        "slot": "12",
        "type": "t_mapping(t_bytes32,t_enum(Types)4116)"
      }
    ],
    "types": {
      "t_address": {
        "encoding": "inplace",
        "label": "address",
        "numberOfBytes": "20"
      },
      "t_array(t_string_storage)dyn_storage": {
        "base": "t_string_storage",
        "encoding": "dynamic_array",
        "label": "string[]",
        "numberOfBytes": "32"
      },
      "t_array(t_uint256)dyn_storage": {
        "base": "t_uint256",
        "encoding": "dynamic_array",
        "label": "uint256[]",
        "numberOfBytes": "32"
      },
      "t_bytes32": {
        "encoding": "inplace",
        "label": "bytes32",
        "numberOfBytes": "32"
      },
      "t_contract(IUnlockV12)3630": {
        "encoding": "inplace",
        "label": "contract IUnlockV12",
        "numberOfBytes": "20"
      },
      "t_enum(Types)4116": {
        "encoding": "inplace",
        "label": "enum Core.Types",
        "numberOfBytes": "1"
      },
      "t_mapping(t_address,t_uint256)": {
        "encoding": "mapping",
        "key": "t_address",
        "label": "mapping(address => uint256)",
        "numberOfBytes": "32",
        "value": "t_uint256"
      },
      "t_mapping(t_bytes32,t_address)": {
        "encoding": "mapping",
        "key": "t_bytes32",
        "label": "mapping(bytes32 => address)",
        "numberOfBytes": "32",
        "value": "t_address"
      },
      "t_mapping(t_bytes32,t_enum(Types)4116)": {
        "encoding": "mapping",
        "key": "t_bytes32",
        "label": "mapping(bytes32 => enum Core.Types)",
        "numberOfBytes": "32",
        "value": "t_enum(Types)4116"
      },
      "t_mapping(t_bytes32,t_mapping(t_address,t_uint256))": {
        "encoding": "mapping",
        "key": "t_bytes32",
        "label": "mapping(bytes32 => mapping(address => uint256))",
        "numberOfBytes": "32",
        "value": "t_mapping(t_address,t_uint256)"
      },
      "t_mapping(t_bytes32,t_struct(InstanceStruct)5717_storage)": {
        "encoding": "mapping",
        "key": "t_bytes32",
        "label": "mapping(bytes32 => struct Unlock.InstanceStruct)",
        "numberOfBytes": "32",
        "value": "t_struct(InstanceStruct)5717_storage"
      },
      "t_mapping(t_bytes32,t_struct(SpaceInstance)4123_storage)": {
        "encoding": "mapping",
        "key": "t_bytes32",
        "label": "mapping(bytes32 => struct Core.SpaceInstance)",
        "numberOfBytes": "32",
        "value": "t_struct(SpaceInstance)4123_storage"
      },
      "t_string_storage": {
        "encoding": "bytes",
        "label": "string",
        "numberOfBytes": "32"
      },
      "t_struct(InstanceStruct)5717_storage": {
        "encoding": "inplace",
        "label": "struct Unlock.InstanceStruct",
        "members": [
          {
            "astId": 5714,
            "contract": "contracts/DBNS.sol:DBNS",
            "label": "creator",
            "offset": 0,
            "slot": "0",
            "type": "t_address"
          },
          {
            "astId": 5716,
            "contract": "contracts/DBNS.sol:DBNS",
            "label": "lockAddress",
            "offset": 0,
            "slot": "1",
            "type": "t_address"
          }
        ],
        "numberOfBytes": "64"
      },
      "t_struct(SpaceInstance)4123_storage": {
        "encoding": "inplace",
        "label": "struct Core.SpaceInstance",
        "members": [
          {
            "astId": 4118,
            "contract": "contracts/DBNS.sol:DBNS",
            "label": "gatedContract",
            "offset": 0,
            "slot": "0",
            "type": "t_address"
          },
          {
            "astId": 4120,
            "contract": "contracts/DBNS.sol:DBNS",
            "label": "price",
            "offset": 0,
            "slot": "1",
            "type": "t_uint256"
          },
          {
            "astId": 4122,
            "contract": "contracts/DBNS.sol:DBNS",
            "label": "creator",
            "offset": 0,
            "slot": "2",
            "type": "t_address"
          }
        ],
        "numberOfBytes": "96"
      },
      "t_uint256": {
        "encoding": "inplace",
        "label": "uint256",
        "numberOfBytes": "32"
      }
    }
  }
}