{
  "address": "0x0432C22A3f26B2EEe1F848f9201EB3B8f40B53cC",
  "abi": [
    {
      "inputs": [
        {
          "internalType": "address",
          "name": "_nameWrapper",
          "type": "address"
        },
        {
          "internalType": "address",
          "name": "_publicResolver",
          "type": "address"
        },
        {
          "internalType": "address",
          "name": "_unlockContract",
          "type": "address"
        },
        {
          "internalType": "address",
          "name": "_hats",
          "type": "address"
        }
      ],
      "stateMutability": "nonpayable",
      "type": "constructor"
    },
    {
      "inputs": [
        {
          "internalType": "uint256",
          "name": "chainid",
          "type": "uint256"
        }
      ],
      "name": "ChainNotSupported",
      "type": "error"
    },
    {
      "inputs": [],
      "name": "InvalidTokenAmount",
      "type": "error"
    },
    {
      "inputs": [],
      "name": "InvalidTokenSender",
      "type": "error"
    },
    {
      "inputs": [],
      "name": "NoInstanceAccess",
      "type": "error"
    },
    {
      "inputs": [],
      "name": "NoInstanceCreator",
      "type": "error"
    },
    {
      "inputs": [],
      "name": "SubscribeToGainAccess",
      "type": "error"
    },
    {
      "anonymous": false,
      "inputs": [
        {
          "indexed": true,
          "internalType": "address",
          "name": "previousOwner",
          "type": "address"
        },
        {
          "indexed": true,
          "internalType": "address",
          "name": "newOwner",
          "type": "address"
        }
      ],
      "name": "OwnershipTransferred",
      "type": "event"
    },
    {
      "inputs": [],
      "name": "DBNS_NODE",
      "outputs": [
        {
          "internalType": "bytes32",
          "name": "",
          "type": "bytes32"
        }
      ],
      "stateMutability": "view",
      "type": "function"
    },
    {
      "inputs": [],
      "name": "HATS",
      "outputs": [
        {
          "internalType": "contract IHats",
          "name": "",
          "type": "address"
        }
      ],
      "stateMutability": "view",
      "type": "function"
    },
    {
      "inputs": [],
      "name": "NAME_WRAPPER",
      "outputs": [
        {
          "internalType": "contract INameWrapper",
          "name": "",
          "type": "address"
        }
      ],
      "stateMutability": "view",
      "type": "function"
    },
    {
      "inputs": [],
      "name": "PUBLIC_RESOLVER",
      "outputs": [
        {
          "internalType": "contract IENSResolver",
          "name": "",
          "type": "address"
        }
      ],
      "stateMutability": "view",
      "type": "function"
    },
    {
      "inputs": [],
      "name": "TABLELAND",
      "outputs": [
        {
          "internalType": "contract ITablelandTables",
          "name": "",
          "type": "address"
        }
      ],
      "stateMutability": "view",
      "type": "function"
    },
    {
      "inputs": [
        {
          "internalType": "bytes32",
          "name": "",
          "type": "bytes32"
        }
      ],
      "name": "codeOwner",
      "outputs": [
        {
          "internalType": "address",
          "name": "",
          "type": "address"
        }
      ],
      "stateMutability": "view",
      "type": "function"
    },
    {
      "inputs": [
        {
          "internalType": "string",
          "name": "_name",
          "type": "string"
        },
        {
          "internalType": "string",
          "name": "_subspace",
          "type": "string"
        }
      ],
      "name": "createDBSpace",
      "outputs": [],
      "stateMutability": "nonpayable",
      "type": "function"
    },
    {
      "inputs": [
        {
          "internalType": "bytes32",
          "name": "_DBSpace",
          "type": "bytes32"
        },
        {
          "internalType": "string",
          "name": "_name",
          "type": "string"
        },
        {
          "internalType": "string",
          "name": "_subspace",
          "type": "string"
        }
      ],
      "name": "createDBSubSpace",
      "outputs": [],
      "stateMutability": "nonpayable",
      "type": "function"
    },
    {
      "inputs": [
        {
          "internalType": "bytes32",
          "name": "_instance",
          "type": "bytes32"
        },
        {
          "internalType": "string",
          "name": "_name",
          "type": "string"
        },
        {
          "internalType": "string",
          "name": "_about",
          "type": "string"
        },
        {
          "internalType": "string",
          "name": "_chatID",
          "type": "string"
        },
        {
          "internalType": "string",
          "name": "_codeIPNS",
          "type": "string"
        }
      ],
      "name": "createInstanceCode",
      "outputs": [],
      "stateMutability": "nonpayable",
      "type": "function"
    },
    {
      "inputs": [
        {
          "internalType": "bytes32",
          "name": "_node",
          "type": "bytes32"
        },
        {
          "internalType": "uint256",
          "name": "_hatID",
          "type": "uint256"
        },
        {
          "internalType": "uint256",
          "name": "_price",
          "type": "uint256"
        },
        {
          "internalType": "string",
          "name": "_name",
          "type": "string"
        },
        {
          "internalType": "string",
          "name": "_about",
          "type": "string"
        },
        {
          "internalType": "string",
          "name": "_img",
          "type": "string"
        },
        {
          "internalType": "string",
          "name": "_chatID",
          "type": "string"
        },
        {
          "internalType": "string",
          "name": "_IPNS",
          "type": "string"
        }
      ],
      "name": "createSpaceInstance",
      "outputs": [],
      "stateMutability": "nonpayable",
      "type": "function"
    },
    {
      "inputs": [
        {
          "internalType": "uint256",
          "name": "_tokenId",
          "type": "uint256"
        },
        {
          "internalType": "bytes32",
          "name": "_instanceID",
          "type": "bytes32"
        }
      ],
      "name": "extendSubscription",
      "outputs": [],
      "stateMutability": "payable",
      "type": "function"
    },
    {
      "inputs": [
        {
          "internalType": "address",
          "name": "_sender",
          "type": "address"
        },
        {
          "internalType": "uint256",
          "name": "_hatID",
          "type": "uint256"
        }
      ],
      "name": "getHatAccess",
      "outputs": [
        {
          "internalType": "bool",
          "name": "",
          "type": "bool"
        }
      ],
      "stateMutability": "view",
      "type": "function"
    },
    {
      "inputs": [
        {
          "internalType": "bytes32",
          "name": "_instanceID",
          "type": "bytes32"
        },
        {
          "internalType": "address",
          "name": "_subscriber",
          "type": "address"
        }
      ],
      "name": "hasActiveSubscription",
      "outputs": [
        {
          "internalType": "bool",
          "name": "",
          "type": "bool"
        }
      ],
      "stateMutability": "view",
      "type": "function"
    },
    {
      "inputs": [
        {
          "internalType": "bytes32",
          "name": "_instance",
          "type": "bytes32"
        },
        {
          "internalType": "address",
          "name": "_sender",
          "type": "address"
        }
      ],
      "name": "hasMutateAccess",
      "outputs": [
        {
          "internalType": "bool",
          "name": "access",
          "type": "bool"
        }
      ],
      "stateMutability": "view",
      "type": "function"
    },
    {
      "inputs": [
        {
          "internalType": "bytes32",
          "name": "_instance",
          "type": "bytes32"
        },
        {
          "internalType": "address",
          "name": "_sender",
          "type": "address"
        }
      ],
      "name": "hasViewAccess",
      "outputs": [
        {
          "internalType": "bool",
          "name": "",
          "type": "bool"
        }
      ],
      "stateMutability": "view",
      "type": "function"
    },
    {
      "inputs": [
        {
          "internalType": "bytes32",
          "name": "",
          "type": "bytes32"
        }
      ],
      "name": "instanceLock",
      "outputs": [
        {
          "internalType": "address",
          "name": "creator",
          "type": "address"
        },
        {
          "internalType": "address",
          "name": "lockAddress",
          "type": "address"
        }
      ],
      "stateMutability": "view",
      "type": "function"
    },
    {
      "inputs": [
        {
          "internalType": "bytes32",
          "name": "",
          "type": "bytes32"
        },
        {
          "internalType": "address",
          "name": "",
          "type": "address"
        }
      ],
      "name": "instanceSubscriptions",
      "outputs": [
        {
          "internalType": "uint256",
          "name": "",
          "type": "uint256"
        }
      ],
      "stateMutability": "view",
      "type": "function"
    },
    {
      "inputs": [
        {
          "internalType": "bytes32",
          "name": "",
          "type": "bytes32"
        }
      ],
      "name": "instances",
      "outputs": [
        {
          "internalType": "uint256",
          "name": "hatID",
          "type": "uint256"
        },
        {
          "internalType": "uint256",
          "name": "price",
          "type": "uint256"
        },
        {
          "internalType": "address",
          "name": "creator",
          "type": "address"
        }
      ],
      "stateMutability": "view",
      "type": "function"
    },
    {
      "inputs": [
        {
          "internalType": "bytes32",
          "name": "",
          "type": "bytes32"
        }
      ],
      "name": "isType",
      "outputs": [
        {
          "internalType": "enum Core.Types",
          "name": "",
          "type": "uint8"
        }
      ],
      "stateMutability": "view",
      "type": "function"
    },
    {
      "inputs": [
        {
          "internalType": "address",
          "name": "",
          "type": "address"
        },
        {
          "internalType": "address",
          "name": "",
          "type": "address"
        },
        {
          "internalType": "address",
          "name": "",
          "type": "address"
        },
        {
          "internalType": "bytes",
          "name": "",
          "type": "bytes"
        }
      ],
      "name": "keyPurchasePrice",
      "outputs": [
        {
          "internalType": "uint256",
          "name": "minKeyPrice",
          "type": "uint256"
        }
      ],
      "stateMutability": "view",
      "type": "function"
    },
    {
      "inputs": [
        {
          "internalType": "address",
          "name": "",
          "type": "address"
        },
        {
          "internalType": "address",
          "name": "",
          "type": "address"
        },
        {
          "internalType": "uint256[]",
          "name": "",
          "type": "uint256[]"
        },
        {
          "internalType": "uint256[]",
          "name": "",
          "type": "uint256[]"
        },
        {
          "internalType": "bytes",
          "name": "",
          "type": "bytes"
        }
      ],
      "name": "onERC1155BatchReceived",
      "outputs": [
        {
          "internalType": "bytes4",
          "name": "",
          "type": "bytes4"
        }
      ],
      "stateMutability": "pure",
      "type": "function"
    },
    {
      "inputs": [
        {
          "internalType": "address",
          "name": "",
          "type": "address"
        },
        {
          "internalType": "address",
          "name": "",
          "type": "address"
        },
        {
          "internalType": "uint256",
          "name": "tokenId",
          "type": "uint256"
        },
        {
          "internalType": "uint256",
          "name": "value",
          "type": "uint256"
        },
        {
          "internalType": "bytes",
          "name": "",
          "type": "bytes"
        }
      ],
      "name": "onERC1155Received",
      "outputs": [
        {
          "internalType": "bytes4",
          "name": "",
          "type": "bytes4"
        }
      ],
      "stateMutability": "nonpayable",
      "type": "function"
    },
    {
      "inputs": [
        {
          "internalType": "uint256",
          "name": "",
          "type": "uint256"
        },
        {
          "internalType": "address",
          "name": "from",
          "type": "address"
        },
        {
          "internalType": "address",
          "name": "",
          "type": "address"
        },
        {
          "internalType": "address",
          "name": "",
          "type": "address"
        },
        {
          "internalType": "bytes",
          "name": "",
          "type": "bytes"
        },
        {
          "internalType": "uint256",
          "name": "",
          "type": "uint256"
        },
        {
          "internalType": "uint256",
          "name": "",
          "type": "uint256"
        }
      ],
      "name": "onKeyPurchase",
      "outputs": [],
      "stateMutability": "view",
      "type": "function"
    },
    {
      "inputs": [],
      "name": "owner",
      "outputs": [
        {
          "internalType": "address",
          "name": "",
          "type": "address"
        }
      ],
      "stateMutability": "view",
      "type": "function"
    },
    {
      "inputs": [
        {
          "internalType": "bytes32",
          "name": "_instanceID",
          "type": "bytes32"
        }
      ],
      "name": "purchaseSubscription",
      "outputs": [],
      "stateMutability": "payable",
      "type": "function"
    },
    {
      "inputs": [],
      "name": "renounceOwnership",
      "outputs": [],
      "stateMutability": "nonpayable",
      "type": "function"
    },
    {
      "inputs": [
        {
          "internalType": "bytes4",
          "name": "interfaceId",
          "type": "bytes4"
        }
      ],
      "name": "supportsInterface",
      "outputs": [
        {
          "internalType": "bool",
          "name": "",
          "type": "bool"
        }
      ],
      "stateMutability": "pure",
      "type": "function"
    },
    {
      "inputs": [
        {
          "internalType": "uint256",
          "name": "",
          "type": "uint256"
        }
      ],
      "name": "tableIDs",
      "outputs": [
        {
          "internalType": "uint256",
          "name": "",
          "type": "uint256"
        }
      ],
      "stateMutability": "view",
      "type": "function"
    },
    {
      "inputs": [
        {
          "internalType": "uint256",
          "name": "",
          "type": "uint256"
        }
      ],
      "name": "tables",
      "outputs": [
        {
          "internalType": "string",
          "name": "",
          "type": "string"
        }
      ],
      "stateMutability": "view",
      "type": "function"
    },
    {
      "inputs": [
        {
          "internalType": "address",
          "name": "recipient",
          "type": "address"
        }
      ],
      "name": "transferDomain",
      "outputs": [],
      "stateMutability": "nonpayable",
      "type": "function"
    },
    {
      "inputs": [
        {
          "internalType": "address",
          "name": "newOwner",
          "type": "address"
        }
      ],
      "name": "transferOwnership",
      "outputs": [],
      "stateMutability": "nonpayable",
      "type": "function"
    },
    {
      "inputs": [],
      "name": "withdraw",
      "outputs": [],
      "stateMutability": "nonpayable",
      "type": "function"
    },
    {
      "inputs": [
        {
          "internalType": "bytes32",
          "name": "_instanceID",
          "type": "bytes32"
        }
      ],
      "name": "withdraw",
      "outputs": [],
      "stateMutability": "nonpayable",
      "type": "function"
    },
    {
      "stateMutability": "payable",
      "type": "receive"
    }
  ],
  "transactionHash": "0xec2150b17d29237813f45c55921f0a0a4ab505face7136c46e186b0cd725b632",
  "args": [
    "0x0635513f179D50A207757E05759CbD106d7dFcE8",
    "0x8fade66b79cc9f707ab26799354482eb93a5b7dd",
    "0x36b34e10295cCE69B652eEB5a8046041074515Da",
    "0x3bc1A0Ad72417f2d411118085256fC53CBdDd137"
  ],
  "numDeployments": 1,
  "solcInputHash": "b3dccd9e0b1ca0fd3b91d649b73930d1",
  "bytecode": "0x6101008060405234620005c45760808162003a958038038091620000248285620006c5565b833981010312620005c4576200003a81620006e9565b6200004860208301620006e9565b6200006460606200005c60408601620006e9565b9401620006e9565b6001600160a01b0392831660805290821660a052811660c0526200008762000d0b565b1660e0526200011d62000117604051620000a1816200068d565b604c81527f44425370616365494420746578742c20444253756253706163654f664944207460208201527f6578742c20444253706163654e616d6520746578742c2044425375625370616360408201526b1953d993985b59481d195e1d60a21b6060820152620001106200071a565b9062000c8e565b62000797565b60405160e081016001600160401b0381118282101762000507576200021b91620001179160405260a281527f496e7374616e6365494420746578742c20696e7374616e63654f66537061636560208201527f20746578742c20696e7374616e63655479706520746578742c206e616d65207460408201527f6578742c2061626f757420746578742c20696d6720746578742c20636861744960608201527f4420746578742c2049504e5320746578742c20686174494420746578742c207060808201527f7269636520746578742c206c6f636b20746578742c2063726561746f7220746560a0820152611e1d60f21b60c08201526200011062000a0d565b620002a46200011760405162000231816200068d565b605081527f496e7374616e6365494420746578742c206e616d6520746578742c2061626f7560208201527f7420746578742c2063686174494420746578742c20636f646549504e5320746560408201526f1e1d0b0818dc99585d1bdc881d195e1d60821b60608201526200011062000a48565b60018060a01b0360e05116604051906361a23d0f60e01b8252816044810130600483015260406024830152600154809152606482019060648160051b8401019160016000526020600020916000915b818310620005d557505050509181600081819503925af1908115620005c9576000916200051d575b5080516001600160401b0381116200050757680100000000000000008111620005075760206003928354838555808410620004e7575b500182600052602060002060005b838110620004d2578585620003736200071a565b815415620004bc57620003956200039b91836000526020600020549062000aa2565b620008e3565b620003a562000a0d565b815460011015620004bc5762000395620003cd91836000526001602060002001549062000aa2565b620003d762000a48565b90805460021015620004bc57620004009162000395916000526002602060002001549062000aa2565b60048054336001600160a01b0319808316821790935560405193916001600160a01b03167f8be0079c531659141344cd1fd0a4f28419497f9722a3daafe3b4186f6b6457e0600080a360018060a01b0316906007541617600755612bd8908162000ebd82396080518181816103a0015281816110d10152818161196b0152611f92015260a0518181816101a60152818161106d0152611f52015260c0518181816112bf015261203c015260e0518181816104ec01526127880152f35b634e487b7160e01b600052603260045260246000fd5b6001906020845194019381840155016200035f565b620005009085600052848460002091820191016200077e565b3862000351565b634e487b7160e01b600052604160045260246000fd5b90503d806000833e620005318183620006c5565b810190602081830312620005c4578051906001600160401b038211620005c457019080601f83011215620005c4578151916001600160401b03831162000507578260051b9060405193620005896020840186620006c5565b8452602080850192820101928311620005c457602001905b828210620005b357505050386200031b565b8151815260209182019101620005a1565b600080fd5b6040513d6000823e3d90fd5b878503606319018152835493955091939092600091620005f58262000741565b808252916001811690811562000669575060011462000628575b50506020600180929601920193019091869493620002f3565b909150856000526020600020916000925b818410620006525750500160209081019060016200060f565b600181602092548387870101520193019262000639565b60ff191660208381019190915292151560051b90910182019250600190506200060f565b608081019081106001600160401b038211176200050757604052565b604081019081106001600160401b038211176200050757604052565b601f909101601f19168101906001600160401b038211908210176200050757604052565b51906001600160a01b0382168203620005c457565b6001600160401b0381116200050757601f01601f191660200190565b604051906200072982620006a9565b600982526864625f73706163657360b81b6020830152565b90600182811c9216801562000773575b60208310146200075d57565b634e487b7160e01b600052602260045260246000fd5b91607f169162000751565b8181106200078a575050565b600081556001016200077e565b600190815490680100000000000000008210156200050757828201808455821015620004bc57600092808452602092838520019382519260018060401b038411620008cf57620007e8865462000741565b601f811162000891575b508491601f85116001146200082e57939450849291908362000822575b50501b916000199060031b1c1916179055565b0151925038806200080f565b86815285812093958591601f198316915b888383106200087657505050106200085c575b505050811b019055565b015160001960f88460031b161c1916905538808062000852565b8587015188559096019594850194879350908101906200083f565b620008bd90878452868420601f870160051c810191888810620008c4575b601f0160051c01906200077e565b38620007f2565b9091508190620008af565b634e487b7160e01b82526041600452602482fd5b60025468010000000000000000811015620005075760019182820180600255821015620004bc576002600090815281517f405787fa12a823e0f2b7631cc41b3ba8828b3321ca811111fa75cd3aa3bb5ace90930193602093929091906001600160401b038411620008cf576200095a865462000741565b601f8111620009db575b508491601f851160011462000993579394508492919083620008225750501b916000199060031b1c1916179055565b86815285812093958591601f198316915b88838310620009c057505050106200085c57505050811b019055565b858701518855909601959485019487935090810190620009a4565b62000a0690878452868420601f870160051c810191888810620008c457601f0160051c01906200077e565b3862000964565b6040519062000a1c82620006a9565b601382527f64625f7370616365735f696e7374616e636573000000000000000000000000006020830152565b6040519062000a5782620006a9565b600f82526e696e7374616e6365735f636f64657360881b6020830152565b9081519160005b83811062000a8e575050016000815290565b806020809284010151818501520162000a7c565b62000b0b9062000afc62000ade93600162000ac862000ac14662000b0e565b9262000b0e565b9162000af1604051978896602088019062000a75565b9183605f60f81b93848152019062000a75565b908152019062000a75565b03601f198101835282620006c5565b90565b806000917a184f03e93ff9f4daa797ed6e38ed64bf6a1f0100000000000000008082101562000c7f575b506d04ee2d6d415b85acef81000000008083101562000c6f575b50662386f26fc100008083101562000c5f575b506305f5e1008083101562000c4f575b506127108083101562000c3f575b50606482101562000c2e575b600a8092101562000c23575b6001908160218186019562000bb087620006fe565b9662000bc06040519889620006c5565b80885262000bd1601f1991620006fe565b01366020890137860101905b62000bea575b5050505090565b600019019083906f181899199a1a9b1b9c1cb0b131b232b360811b8282061a83530491821562000c1d5791908262000bdd565b62000be3565b916001019162000b9b565b919060646002910491019162000b8f565b6004919392049101913862000b83565b6008919392049101913862000b75565b6010919392049101913862000b65565b6020919392049101913862000b52565b60409350810491503862000b38565b600162000cd69262000cf462000b0b938362000ce562000cae4662000b0e565b82604051998a976c021a922a0aa22902a20a126229609d1b60208a0152602d89019062000a75565b605f60f81b8152019062000a75565b600560fb1b8152019062000a75565b602960f81b815203601e19810184520182620006c5565b4660010362000d2c5773012969f7e3439a9b04025b5a049eb9bad82a8c1290565b46600a0362000d4d5773fad44bf5b843de943a09d4f3e84949a11d3aa3e690565b4661a4b10362000d6f57739abd75e8640871a5a20d3b4ee6330a04c962affd90565b4661a4ba0362000d9157731a22854c5b1642760a827f20137a67930ae108d290565b4660890362000db257735c4e6a9e5c1e1bf445a062006faf19ea6c49afea90565b4661013a0362000dd4577359ef8bf2d6c102b4c42aef9189e1a9f0abfd652d90565b4662aa36a70362000df75773c50c62498448acc8dbde43da77f8d5d2e2c7597d90565b466101a40362000e195773c72e8a7be04f2469f8c2db3f1bdf69a7d516abba90565b4662066eee0362000e3c5773223a74b8323914afdc3ff1e5005564dc17231d6e90565b46620138810362000e5f57734b48841d4b32c4650e4abc117a03fe8b51f38f6890565b466204cb2f0362000e825773030bcf3d50cad04c2e57391b12740982a930862190565b46617a690362000ea45773e7f1725e7734ce288f8367e1bb143e90bb3f051290565b60405163264e42cf60e01b8152466004820152602490fdfe608080604052600436101561001d575b50361561001b57600080fd5b005b600090813560e01c90816301ffc9a7146119cd5750806311ad2f341461199a578063192cf07d146119555780631b7e4244146116165780631da4495314611503578063221c1fd1146114485780632711447f146113fd5780633ccfd60b146113da57806347d121c5146113b35780635e895f291461134c578063715018a6146112ee5780637150ef88146112a957806371671bf21461117d5780638221184614611046578063889753831461101f5780638a8fd25014610fcd5780638da5cb5b14610fa45780638e19899e14610ecd5780639fb24cef14610e55578063a5df63d614610e2e578063baa4ae5814610dfc578063bc197c8114610d7f578063c6a36c4b14610d41578063ca9d528b146107c3578063d0ed11101461051b578063d68d087c146104d6578063db7baba9146104b9578063dd321bfc14610472578063e2b1e4ed14610425578063f23a6e6114610359578063f2fde38b14610293578063f9737c7c146101d85763ffeb4a300361000f57346101d557806003193601126101d5576040517f00000000000000000000000000000000000000000000000000000000000000006001600160a01b03168152602090f35b80fd5b50346101d55760603660031901126101d557600435906001600160401b0360243581811161028f5761020e903690600401611bf9565b9060443590811161028f57610227903690600401611bf9565b90838352600a60205260ff60408420541693600685101561027b576102526004610278959614611cc8565b61025c8282611f11565b808652600a60205260408620805460ff1916600417905561212a565b80f35b634e487b7160e01b84526021600452602484fd5b8280fd5b50346101d55760203660031901126101d5576102ad611a05565b6102b5611c70565b6001600160a01b0390811690811561030557600454826001600160601b0360a01b821617600455167f8be0079c531659141344cd1fd0a4f28419497f9722a3daafe3b4186f6b6457e0600080a380f35b60405162461bcd60e51b815260206004820152602660248201527f4f776e61626c653a206e6577206f776e657220697320746865207a65726f206160448201526564647265737360d01b6064820152608490fd5b50346101d55760a03660031901126101d557610373611a05565b5061037c611a1b565b506084356001600160401b0381116104215761039c903690600401611a47565b50507f00000000000000000000000000000000000000000000000000000000000000006001600160a01b0316330361040f576001606435036103fd578054156103f2575b60405163f23a6e6160e01b8152602090f35b6044359055386103e0565b604051632160733960e01b8152600490fd5b604051634a93b62160e11b8152600490fd5b5080fd5b50346101d55760203660031901126101d5576004358152600a60205260ff60408220541660405190600681101561045e57602092508152f35b634e487b7160e01b83526021600452602483fd5b50346101d55760403660031901126101d557604061048e611a1b565b9160043581526005602052209060018060a01b03166000526020526020604060002054604051908152f35b50346101d557806003193601126101d55760209054604051908152f35b50346101d557806003193601126101d5576040517f00000000000000000000000000000000000000000000000000000000000000006001600160a01b03168152602090f35b50346101d55760a03660031901126101d5576004356001600160401b036024358181116107bf57610550903690600401611bf9565b906044358181116107bb57610569903690600401611bf9565b6064358281116107b757610581903690600401611bf9565b916084359081116107b75761059a903690600401611bf9565b906105a53386611e16565b156107a5576102789461079b92604051916020926105d9816105cb858783019586611d14565b03601f198101835282611b75565b519020808952600983526040808a2080546001600160a01b03191633179055600a84528920805460ff191660051790556106666107416025610619611ac1565b9a905499876040519761062b89611b3f565b600f89526e696e7374616e6365735f636f64657360881b828a015261068361067d61067761067161066b61065d611ac1565b9c90549d61264a565b6124f2565b976124f2565b9d6124f2565b946124f2565b916124f2565b9061069061066633612532565b936040519c866106a98f9851809288808c019101611b96565b87016106c9600b60fa1b9687818401528351938491602185019101611b96565b018460218201526106e48d8351938491602285019101611b96565b018360228201526106ff8c8351938491602385019101611b96565b01826023820152610719825180938d602485019101611b96565b01906024820152610732825180938b8785019101611b96565b01036005810188520186611b75565b7f496e7374616e636549442c206e616d652c2061626f75742c206368617449442c6040519461076f86611b5a565b60328652850152711031b7b232a4a82729961031b932b0ba37b960711b604085015260031b1c9061227d565b9160031b1c612786565b6040516346627df160e01b8152600490fd5b8580fd5b8480fd5b8380fd5b50346101d5576101003660031901126101d5576064356001600160401b038111610421576107f5903690600401611bf9565b6084356001600160401b03811161028f57610814903690600401611bf9565b60a4356001600160401b0381116107bf57610833903690600401611bf9565b60c4356001600160401b0381116107bb57610852903690600401611bf9565b9260e4356001600160401b0381116107b757610872903690600401611bf9565b906004358652600a8060205260ff6040882054166006811015610d2d57600461089b9114611cc8565b60405160208101906108b4816105cb8760043586611d14565b51902092604051606081018181106001600160401b03821117610c885760405260243581526002602082019160443583526040810192338452878c52600860205260408c2091518255516001820155019060018060a01b039051166001600160601b0360a01b825416179055876044351515600014610cb257508388528160205260408820600260ff198254161790556109518484604435612809565b915b84895260205260ff604089205416956006871015610c9e57610973611a74565b979054966040519461098486611b3f565b601386527264625f7370616365735f696e7374616e63657360681b60208701526109ac611a74565b9b9054986109b99061264a565b6109c2906124f2565b956109ce60043561264a565b6109d7906124f2565b946109e19061238a565b6109ea906124f2565b986109f4906124f2565b956109fe906124f2565b93610a08906124f2565b91610a12906124f2565b90610a1c906124f2565b90610a2860243561238a565b92610a3460443561238a565b94610a3e90612532565b610a47906124f2565b95610a5133612532565b610a5a906124f2565b986040519c8d8c819d5160208193019160200191610a7792611b96565b8c0199600b60fa1b9a8b602082015281519182602183019160200191610a9c92611b96565b018a602182015281519182602283019160200191610ab992611b96565b0189602282015281519182602383019160200191610ad692611b96565b0188602382015281519182602483019160200191610af392611b96565b0187602482015281519182602583019160200191610b1092611b96565b0186602582015281519182602683019160200191610b2d92611b96565b0185602682015281519182602783019160200191610b4a92611b96565b0184602782015281519182602883019160200191610b6792611b96565b0183602882015281519182602983019160200191610b8492611b96565b0182602982015281519182602a83019160200191610ba192611b96565b0190602a82015281519182602b83019160200191610bbe92611b96565b0103600b81018352602b01610bd39083611b75565b6040519060a08201938285106001600160401b03861117610c88576102789761079b95604052606684527f496e7374616e636549442c20696e7374616e63654f6653706163652c20696e7360208501527f74616e6365547970652c206e616d652c2061626f75742c20696d672c2063686160408501527f7449442c2049504e532c2068617449442c2070726963652c206c6f636b2c20636060850152653932b0ba37b960d11b608085015260031b1c9061227d565b634e487b7160e01b600052604160045260246000fd5b634e487b7160e01b89526021600452602489fd5b60243515158080610d26575b15610ceb575050838852816020526040882060ff198154169055610ce58484604435612809565b91610953565b90929015610d0e578489528060205260408920600160ff19825416179055610953565b8060205260408920600360ff19825416179055610953565b5089610cbe565b634e487b7160e01b88526021600452602488fd5b50346101d55760203660031901126101d55760408091600435815260066020522060018060a01b036001818354169201541682519182526020820152f35b50346101d55760a03660031901126101d557610d99611a05565b50610da2611a1b565b506001600160401b0360443581811161028f57610dc3903690600401611c40565b505060643581811161028f57610ddd903690600401611c40565b505060843590811161042157610df7903690600401611a47565b505080fd5b50346101d55760403660031901126101d5576020610e24610e1b611a05565b6024359061200e565b6040519015158152f35b50346101d55760403660031901126101d5576020610e24610e4d611a1b565b600435612a1c565b50346101d55760403660031901126101d5576001600160401b0360043581811161028f57610e87903690600401611bf9565b60243591821161028f57610ea2610278923690600401611bf9565b90610eae818554611f11565b808552600a60205260408520805460ff1916600417905584549061212a565b50346101d55760203660031901126101d557600435815260066020526040812060405190610efa82611b3f565b80546001600160a01b0390811680845260019092015481166020840190815290913303610f9257819051169083823192803b1561042157818091606460405180948193636ce5768960e11b83528160048401523060248401528960448401525af18015610f8757610f73575b5050610278925116612aa2565b610f7c90611b2c565b6107bf578338610f66565b6040513d84823e3d90fd5b60405163c00f906f60e01b8152600490fd5b50346101d557806003193601126101d5576004546040516001600160a01b039091168152602090f35b50346101d55760203660031901126101d5576004356003548110156104215760209060036000527fc2575a0e9e593c00f959f8c92f12db2869c3395a3b0502d05e2516446f71f85b0154604051908152f35b50346101d55760403660031901126101d5576020610e2461103e611a1b565b600435611e16565b50346101d55760203660031901126101d55780611061611a05565b81546001600160a01b037f00000000000000000000000000000000000000000000000000000000000000008116929091833b156107bb5782916044869283604051958694859362d5fa2b60e81b8552600485015216978860248401525af190811561117257849161115a575b50507f000000000000000000000000000000000000000000000000000000000000000016908254823b156111555760c48492836040519586948593637921219560e11b8552306004860152602485015260448401526001606484015260a060848401528160a48401525af18015610f87576111455750f35b61114e90611b2c565b6101d55780f35b505050fd5b61116390611b2c565b61116e5782386110cd565b5050fd5b6040513d86823e3d90fd5b50346101d5576020806003193601126104215760043560025481101561028f5760026000527f405787fa12a823e0f2b7631cc41b3ba8828b3321ca811111fa75cd3aa3bb5ace0190604051918381549460019086821c9382881697881561129f575b868610891461128b57868899878a98999a52918260001461126757505060011461122b575b50505061121392500383611b75565b611227604051928284938452830190611bb9565b0390f35b869350819291528282205b85831061124f5750506112139350820101388080611204565b80548389018501528794508693909201918101611236565b93509450505061121394915060ff191682840152151560051b820101388080611204565b634e487b7160e01b83526022600452602483fd5b94607f16946111df565b50346101d557806003193601126101d5576040517f00000000000000000000000000000000000000000000000000000000000000006001600160a01b03168152602090f35b50346101d557806003193601126101d557611307611c70565b600480546001600160a01b031981169091556000906001600160a01b03167f8be0079c531659141344cd1fd0a4f28419497f9722a3daafe3b4186f6b6457e08280a380f35b50346101d55760e03660031901126101d557611366611a1b565b61136e611a31565b506001600160a01b03606435818116036113ae576084356001600160401b0381116107bf576113a1903690600401611a47565b5050309116036101d55780f35b600080fd5b50346101d55760403660031901126101d5576020610e246113d2611a1b565b600435611d31565b50346101d557806003193601126101d5576113f3611c70565b6102784733612aa2565b50346101d55760203660031901126101d55760406060916004358152600860205220805490600181015490600260018060a01b03910154169060405192835260208301526040820152f35b50346101d55760803660031901126101d557611462611a05565b5061146b611a1b565b50611474611a31565b506064356001600160401b03811161042157611494903690600401611a47565b50506040516310e5697360e01b815290602082600481335afa9081156114f757906114c5575b602090604051908152f35b506020813d82116114ef575b816114de60209383611b75565b810103126113ae57602090516114ba565b3d91506114d1565b604051903d90823e3d90fd5b5060403660031901126101d557602435815260206006815260018060a01b03600160408420015416604051916310e5697360e01b83528083600481855afa9283156111725784936115e7575b50813b156107bf5791839160405193849263d813cc1960e01b84526004840152600435602484015230604484015260809081606485015260605191826084860152855b8381106115cf5750505060a483828683839584010152601f8019910116810103019134905af18015610f87576115c6575080f35b61027890611b2c565b8082015188820160a401528896508795508201611592565b9080935081813d831161160f575b6115ff8183611b75565b810103126107bf5751913861154f565b503d6115f5565b506020600319818136011261028f5760405161163181611b3f565b6001908181528336818301376040519161164a83611b3f565b8083528436818501376040519361166085611b3f565b8185528536818701376040519461167686611b3f565b82865286860193873686376040519461168e86611b3f565b848652888a5b81811061194557506040516116a881611b3f565b86815281369101376004358a526006895260018060a01b038560408c20015416966040516310e5697360e01b81528a816004818c5afa90811561193a578c91611909575b50918b98969391999795949230611702846129d2565b5261170c896129d2565b52336117178b6129d2565b52604051633381899760e01b815260a06004820152975160a4890181905297998a9860c48a0192908b8e5b8282106118dc575050505091611769826117899594888c61177996030160248d01526129df565b90868a83030160448b01526129df565b90848883030160648901526129df565b9185830301608486015282518083528883019289808360051b83010195019388915b8b8484106118a75750505050505050828091039134905af1801561189c5783906117f6575b6117da91506129d2565b5190600435835260058152604083209033845252604082205580f35b503d8084833e6118068183611b75565b810182828203126107bf5781516001600160401b03928382116107b7570181601f820112156107bb578051928311611888578260051b906040519361184d86840186611b75565b845284808501928201019283116107b75784809101915b83831061187857505050506117da906117d0565b8251815291810191859101611864565b634e487b7160e01b85526041600452602485fd5b6040513d85823e3d90fd5b9194979950929587929598506118c88291601f198682030187528a51611bb9565b9801930193018a97959293899795926117ab565b9194889b9d5083839295979994989a9b9d505181520195019101908b99979694928e9b999694928e611742565b90508a81813d8311611933575b6119208183611b75565b8101031261192f5751386116ec565b8b80fd5b503d611916565b6040513d8e823e3d90fd5b606082828a010152018990611694565b50346101d557806003193601126101d5576040517f00000000000000000000000000000000000000000000000000000000000000006001600160a01b03168152602090f35b50346101d55760203660031901126101d557602090600435815260098252604060018060a01b0391205416604051908152f35b9050346104215760203660031901126104215760043563ffffffff60e01b811680910361028f57630271189760e51b14815260209150f35b600435906001600160a01b03821682036113ae57565b602435906001600160a01b03821682036113ae57565b604435906001600160a01b03821682036113ae57565b9181601f840112156113ae578235916001600160401b0383116113ae57602083818601950101116113ae57565b60035460011015611aab5760036000527fc2575a0e9e593c00f959f8c92f12db2869c3395a3b0502d05e2516446f71f85c90600090565b634e487b7160e01b600052603260045260246000fd5b60035460021015611aab5760036000527fc2575a0e9e593c00f959f8c92f12db2869c3395a3b0502d05e2516446f71f85d90600090565b60035415611aab5760036000527fc2575a0e9e593c00f959f8c92f12db2869c3395a3b0502d05e2516446f71f85b90600090565b6001600160401b038111610c8857604052565b604081019081106001600160401b03821117610c8857604052565b606081019081106001600160401b03821117610c8857604052565b90601f801991011681019081106001600160401b03821117610c8857604052565b60005b838110611ba95750506000910152565b8181015183820152602001611b99565b90602091611bd281518092818552858086019101611b96565b601f01601f1916010190565b6001600160401b038111610c8857601f01601f191660200190565b81601f820112156113ae57803590611c1082611bde565b92611c1e6040519485611b75565b828452602083830101116113ae57816000926020809301838601378301015290565b9181601f840112156113ae578235916001600160401b0383116113ae576020808501948460051b0101116113ae57565b6004546001600160a01b03163303611c8457565b606460405162461bcd60e51b815260206004820152602060248201527f4f776e61626c653a2063616c6c6572206973206e6f7420746865206f776e65726044820152fd5b15611ccf57565b60405162461bcd60e51b815260206004820152601b60248201527f44424e533a204e6f6465206973206e6f742061207375626e6f646500000000006044820152606490fd5b602092918152611d2c82518093858085019101611b96565b010190565b9060008281526008602052604081205490600a60205260ff6040822054166006811015611e0257600203611d6d575050611d6a91612a1c565b90565b838152600a60205260ff6040822054166006811015611e0257611dab5750611d95908261200e565b918215611da157505090565b611d6a9250612a1c565b8392508093915052600a60205260ff604083205416600681101561045e57600114908115611de0575b5015611d6a5750600190565b825250600a602052604081205460ff166006811015611e025760031438611dd4565b634e487b7160e01b82526021600452602482fd5b9190600092600081815260206008815260409283832054600a835260ff85852054166006811015611efd57600203611e67575082526008905220600201546001600160a01b0391821691161491505b565b94939190808452600a825260ff83852054166006811015611efd57611e955750505050611d6a92935061200e565b808452600a825260ff83852054166006811015611efd57600103611ec25750505050611d6a92935061200e565b8352600a905281205460ff16925090506006821015611ee95750600303611e655760019150565b634e487b7160e01b81526021600452602490fd5b634e487b7160e01b85526021600452602485fd5b906020611f409260405193849384926309306bd160e21b8452600484015260e0602484015260e4830190611bb9565b3060448301528160018060a01b0391827f000000000000000000000000000000000000000000000000000000000000000016606483015260009687918260848301528260a48301528260c483015203927f0000000000000000000000000000000000000000000000000000000000000000165af19182156114f7578092611fc657505090565b9091506020823d8211611fee575b81611fe160209383611b75565b810103126101d557505190565b3d9150611fd4565b908160209103126113ae575180151581036113ae5790565b604051635ab7bab160e11b81526001600160a01b0382811660048301526024820184905291929091602091907f0000000000000000000000000000000000000000000000000000000000000000168284604481845afa9384156120ff5760009461210b575b508315612083575b505050905090565b6040516321a9204d60e11b81526001600160a01b039590951660048601526024850191909152909291508290829060449082905afa9182156120ff576000926120d2575b50508038808061207b565b6120f19250803d106120f8575b6120e98183611b75565b810190611ff6565b38806120c7565b503d6120df565b6040513d6000823e3d90fd5b612123919450833d85116120f8576120e98183611b75565b9238612073565b9091611e659361079b9161213c611af8565b9590549461066661221c60236040519461215586611b3f565b600986526020966864625f73706163657360b81b8888015261219f61219961219361066661218d612184611af8565b9a90549b61264a565b9561264a565b926124f2565b996124f2565b9060405199836121b88c955180928d8089019101611b96565b840191600b60fa1b92838c8201526121da8c8351938491602185019101611b96565b018260218201526121f4825180938d602285019101611b96565b0190602282015261220d825180938b8785019101611b96565b01036003810188520186611b75565b7f4442537061636549442c20444253756253706163654f6649442c2044425370616040519461224a86611b5a565b603886528501527f63654e616d652c20444253756253706163654f664e616d650000000000000000604085015260031b1c905b61232f93603692612371611d6a9561229d6122974661238a565b9361238a565b9461230860226040518098602097886122bf8185019788815193849201611b96565b830190605f60f81b91828b8201526122e0825180938d602185019101611b96565b019060218201526122f9825180938b8785019101611b96565b01036002810189520187611b75565b6040519889966b024a729a2a92a1024a72a27960a51b86890152518092602c890190611b96565b8501600560fb1b602c82015261234e8251809386602d85019101611b96565b019167052ac8298aa8aa6560c31b602d8401528351938491603585019101611b96565b01602960f81b6035820152036016810184520182611b75565b806000917a184f03e93ff9f4daa797ed6e38ed64bf6a1f010000000000000000808210156124e4575b506d04ee2d6d415b85acef8100000000808310156124d5575b50662386f26fc10000808310156124c6575b506305f5e100808310156124b7575b50612710808310156124a8575b506064821015612498575b600a8092101561248e575b6001908160218186019561242387611bde565b966124316040519889611b75565b808852612440601f1991611bde565b01366020890137860101905b612458575b5050505090565b600019019083906f181899199a1a9b1b9c1cb0b131b232b360811b8282061a8353049182156124895791908261244c565b612451565b9160010191612410565b9190606460029104910191612405565b600491939204910191386123fa565b600891939204910191386123ed565b601091939204910191386123de565b602091939204910191386123cc565b6040935081049150386123b3565b611d6a60226040518093602760f81b9081602084015261251c815180926020602187019101611b96565b8201906021820152036002810184520182611b75565b604051906001600160a01b031661254882611b5a565b602a8252602082016040368237825115611aab57603090538151600190811015611aab57607860218401536029905b8082116125cb5750506125875790565b606460405162461bcd60e51b815260206004820152602060248201527f537472696e67733a20686578206c656e67746820696e73756666696369656e746044820152fd5b9091600f81166010811015612624576f181899199a1a9b1b9c1cb0b131b232b360811b901a6125fa8486612639565b5360041c91801561260f576000190190612577565b60246000634e487b7160e01b81526011600452fd5b60246000634e487b7160e01b81526032600452fd5b908151811015611aab570160200190565b6040519061265782611b5a565b6040825260209182810191604036843760405161267381611b3f565b601081526f181899199a1a9b1b9c1cb0b131b232b360811b8582015260005b8581106126d25750505061060f60f31b92611d6a926126c260229360405196879485015251809285850190611b96565b8101036002810184520182611b75565b815183821a8115612770576001600160f81b03199182906126f590830486612639565b51169160019184831b938585046002148615171561275a5760001a61271a858a612639565b53855180156127705761272e910686612639565b511690820180921161275a576127489060001a9186612639565b53600019811461275a57600101612692565b634e487b7160e01b600052601160045260246000fd5b634e487b7160e01b600052601260045260246000fd5b7f00000000000000000000000000000000000000000000000000000000000000006001600160a01b031691823b156113ae576127ef9260009283604051809681958294631bbd786d60e11b84523060048501526024840152606060448401526064830190611bb9565b03925af180156120ff576128005750565b611e6590611b2c565b9091612859939260075460009384916040918251988995869263216c908360e11b845262278d0060048501528660248501526044840152600019606484015260c0608484015260c4830190611bb9565b60a482018590526001600160a01b039560209586949190920391839188165af19687156129c8578597612990575b5082871694853b156101d557815163debe2b0d60e01b815260048101829052603260248201528181604481838b5af1801561297757612981575b50853b156101d55781516374cac47d60e01b81523060048201528160248201528160448201528160648201528160848201528160a48201528160c4820152818160e481838b5af1801561297757908593929161295b575b50600660019483519761292a89611b3f565b338952818901998a5283525220935116926001600160601b0360a01b93848254161781550192511690825416179055565b81935061296a90949294611b2c565b6104215791839138612918565b83513d84823e3d90fd5b61298a90611b2c565b386128c1565b9096508181813d83116129c1575b6129a88183611b75565b810103126107bb575182811681036107bb579538612887565b503d61299e565b81513d87823e3d90fd5b805115611aab5760200190565b90815180825260208080930193019160005b8281106129ff575050505090565b83516001600160a01b0316855293810193928101926001016129f1565b60009081526006602090815260408083206001015490516370a0823160e01b81526001600160a01b039485166004820152929383916024918391165afa9182156114f7578092612a6e575b5050151590565b9091506020823d8211612a9a575b81612a8960209383611b75565b810103126101d55750513880612a67565b3d9150612a7c565b814710612b5d576000918291829182916001600160a01b03165af13d15612b58573d612acd81611bde565b90612adb6040519283611b75565b8152600060203d92013e5b15612aed57565b60405162461bcd60e51b815260206004820152603a60248201527f416464726573733a20756e61626c6520746f2073656e642076616c75652c207260448201527f6563697069656e74206d617920686176652072657665727465640000000000006064820152608490fd5b612ae6565b60405162461bcd60e51b815260206004820152601d60248201527f416464726573733a20696e73756666696369656e742062616c616e63650000006044820152606490fdfea2646970667358221220b7539c504293e2bc5120a72241ede004006bc935e6f1850d11b80583ab0f13f864736f6c63430008140033",
  "devdoc": {
    "details": "Create a decentralized Database NameSpaces Where space and subSpaces can get created and anyone can create instances inside a space and contribute to the public this is possible by integrating tableland SQL in solidity ENS system to support a decentralized Namespace of Database spaces IPNS and Push protocol for code and space discussions",
    "kind": "dev",
    "methods": {
      "createDBSpace(string,string)": {
        "details": "Create a new space under the given node",
        "params": {
          "_name": "The name of the new space"
        }
      },
      "createDBSubSpace(bytes32,string,string)": {
        "details": "Create a new subnode under the given node",
        "params": {
          "_DBSpace": "The parent node",
          "_name": "The name of the new subnode"
        }
      },
      "createInstanceCode(bytes32,string,string,string,string)": {
        "details": "Create a new instance under the given node",
        "params": {
          "_about": "The about of the new instance",
          "_chatID": "The chatID of the new instance",
          "_codeIPNS": "The IPNS of the new instance",
          "_instance": "The parent node",
          "_name": "The name of the new instance"
        }
      },
      "createSpaceInstance(bytes32,uint256,uint256,string,string,string,string,string)": {
        "details": "Create a new instance under the given node",
        "params": {
          "_IPNS": "The IPNS of the new instance",
          "_about": "The about of the new instance",
          "_chatID": "The chatID of the new instance",
          "_hatID": "The hatID of the new instance",
          "_img": "The img of the new instance",
          "_name": "The name of the new instance",
          "_node": "The parent node"
        }
      },
      "hasViewAccess(bytes32,address)": {
        "details": "Check if the sender has access to the given instance",
        "params": {
          "_instance": "The instance to check",
          "_sender": "The sender to check"
        },
        "returns": {
          "_0": "bool"
        }
      },
      "owner()": {
        "details": "Returns the address of the current owner."
      },
      "purchaseSubscription(bytes32)": {
        "details": "PurchaseSubscription function for an agentID",
        "params": {
          "_instanceID": "to subscribe"
        }
      },
      "renounceOwnership()": {
        "details": "Leaves the contract without owner. It will not be possible to call `onlyOwner` functions. Can only be called by the current owner. NOTE: Renouncing ownership will leave the contract without an owner, thereby disabling any functionality that is only available to the owner."
      },
      "supportsInterface(bytes4)": {
        "details": "Returns true if this contract implements the interface defined by `interfaceId`. See the corresponding https://eips.ethereum.org/EIPS/eip-165#how-interfaces-are-identified[EIP section] to learn more about how these ids are created. This function call must use less than 30 000 gas."
      },
      "transferOwnership(address)": {
        "details": "Transfers ownership of the contract to a new account (`newOwner`). Can only be called by the current owner."
      },
      "withdraw(bytes32)": {
        "details": "withdraw function for an agentID",
        "params": {
          "_instanceID": "to withdraw money from the lock contract"
        }
      }
    },
    "title": "DBNS",
    "version": 1
  },
  "userdoc": {
    "errors": {
      "ChainNotSupported(uint256)": [
        {
          "notice": "Current chain does not have a TablelandTables deployment."
        }
      ]
    },
    "kind": "user",
    "methods": {
      "withdraw(bytes32)": {
        "notice": "We give back to the agent creator 70% of the total income from that agent the platform keeps 30% of that amount"
      }
    },
    "version": 1
  },
  "storageLayout": {
    "storage": [
      {
        "astId": 4941,
        "contract": "contracts/DBNS.sol:DBNS",
        "label": "DBNS_NODE",
        "offset": 0,
        "slot": "0",
        "type": "t_bytes32"
      },
      {
        "astId": 5178,
        "contract": "contracts/DBNS.sol:DBNS",
        "label": "createTableStatements",
        "offset": 0,
        "slot": "1",
        "type": "t_array(t_string_storage)dyn_storage"
      },
      {
        "astId": 5181,
        "contract": "contracts/DBNS.sol:DBNS",
        "label": "tables",
        "offset": 0,
        "slot": "2",
        "type": "t_array(t_string_storage)dyn_storage"
      },
      {
        "astId": 5184,
        "contract": "contracts/DBNS.sol:DBNS",
        "label": "tableIDs",
        "offset": 0,
        "slot": "3",
        "type": "t_array(t_uint256)dyn_storage"
      },
      {
        "astId": 641,
        "contract": "contracts/DBNS.sol:DBNS",
        "label": "_owner",
        "offset": 0,
        "slot": "4",
        "type": "t_address"
      },
      {
        "astId": 5667,
        "contract": "contracts/DBNS.sol:DBNS",
        "label": "instanceSubscriptions",
        "offset": 0,
        "slot": "5",
        "type": "t_mapping(t_bytes32,t_mapping(t_address,t_uint256))"
      },
      {
        "astId": 5672,
        "contract": "contracts/DBNS.sol:DBNS",
        "label": "instanceLock",
        "offset": 0,
        "slot": "6",
        "type": "t_mapping(t_bytes32,t_struct(InstanceStruct)5661_storage)"
      },
      {
        "astId": 5675,
        "contract": "contracts/DBNS.sol:DBNS",
        "label": "UNLOCK",
        "offset": 0,
        "slot": "7",
        "type": "t_contract(IUnlockV12)4332"
      },
      {
        "astId": 4662,
        "contract": "contracts/DBNS.sol:DBNS",
        "label": "instances",
        "offset": 0,
        "slot": "8",
        "type": "t_mapping(t_bytes32,t_struct(SpaceInstance)4657_storage)"
      },
      {
        "astId": 4666,
        "contract": "contracts/DBNS.sol:DBNS",
        "label": "codeOwner",
        "offset": 0,
        "slot": "9",
        "type": "t_mapping(t_bytes32,t_address)"
      },
      {
        "astId": 4671,
        "contract": "contracts/DBNS.sol:DBNS",
        "label": "isType",
        "offset": 0,
        "slot": "10",
        "type": "t_mapping(t_bytes32,t_enum(Types)4650)"
      }
    ],
    "types": {
      "t_address": {
        "encoding": "inplace",
        "label": "address",
        "numberOfBytes": "20"
      },
      "t_array(t_string_storage)dyn_storage": {
        "base": "t_string_storage",
        "encoding": "dynamic_array",
        "label": "string[]",
        "numberOfBytes": "32"
      },
      "t_array(t_uint256)dyn_storage": {
        "base": "t_uint256",
        "encoding": "dynamic_array",
        "label": "uint256[]",
        "numberOfBytes": "32"
      },
      "t_bytes32": {
        "encoding": "inplace",
        "label": "bytes32",
        "numberOfBytes": "32"
      },
      "t_contract(IUnlockV12)4332": {
        "encoding": "inplace",
        "label": "contract IUnlockV12",
        "numberOfBytes": "20"
      },
      "t_enum(Types)4650": {
        "encoding": "inplace",
        "label": "enum Core.Types",
        "numberOfBytes": "1"
      },
      "t_mapping(t_address,t_uint256)": {
        "encoding": "mapping",
        "key": "t_address",
        "label": "mapping(address => uint256)",
        "numberOfBytes": "32",
        "value": "t_uint256"
      },
      "t_mapping(t_bytes32,t_address)": {
        "encoding": "mapping",
        "key": "t_bytes32",
        "label": "mapping(bytes32 => address)",
        "numberOfBytes": "32",
        "value": "t_address"
      },
      "t_mapping(t_bytes32,t_enum(Types)4650)": {
        "encoding": "mapping",
        "key": "t_bytes32",
        "label": "mapping(bytes32 => enum Core.Types)",
        "numberOfBytes": "32",
        "value": "t_enum(Types)4650"
      },
      "t_mapping(t_bytes32,t_mapping(t_address,t_uint256))": {
        "encoding": "mapping",
        "key": "t_bytes32",
        "label": "mapping(bytes32 => mapping(address => uint256))",
        "numberOfBytes": "32",
        "value": "t_mapping(t_address,t_uint256)"
      },
      "t_mapping(t_bytes32,t_struct(InstanceStruct)5661_storage)": {
        "encoding": "mapping",
        "key": "t_bytes32",
        "label": "mapping(bytes32 => struct Unlock.InstanceStruct)",
        "numberOfBytes": "32",
        "value": "t_struct(InstanceStruct)5661_storage"
      },
      "t_mapping(t_bytes32,t_struct(SpaceInstance)4657_storage)": {
        "encoding": "mapping",
        "key": "t_bytes32",
        "label": "mapping(bytes32 => struct Core.SpaceInstance)",
        "numberOfBytes": "32",
        "value": "t_struct(SpaceInstance)4657_storage"
      },
      "t_string_storage": {
        "encoding": "bytes",
        "label": "string",
        "numberOfBytes": "32"
      },
      "t_struct(InstanceStruct)5661_storage": {
        "encoding": "inplace",
        "label": "struct Unlock.InstanceStruct",
        "members": [
          {
            "astId": 5658,
            "contract": "contracts/DBNS.sol:DBNS",
            "label": "creator",
            "offset": 0,
            "slot": "0",
            "type": "t_address"
          },
          {
            "astId": 5660,
            "contract": "contracts/DBNS.sol:DBNS",
            "label": "lockAddress",
            "offset": 0,
            "slot": "1",
            "type": "t_address"
          }
        ],
        "numberOfBytes": "64"
      },
      "t_struct(SpaceInstance)4657_storage": {
        "encoding": "inplace",
        "label": "struct Core.SpaceInstance",
        "members": [
          {
            "astId": 4652,
            "contract": "contracts/DBNS.sol:DBNS",
            "label": "hatID",
            "offset": 0,
            "slot": "0",
            "type": "t_uint256"
          },
          {
            "astId": 4654,
            "contract": "contracts/DBNS.sol:DBNS",
            "label": "price",
            "offset": 0,
            "slot": "1",
            "type": "t_uint256"
          },
          {
            "astId": 4656,
            "contract": "contracts/DBNS.sol:DBNS",
            "label": "creator",
            "offset": 0,
            "slot": "2",
            "type": "t_address"
          }
        ],
        "numberOfBytes": "96"
      },
      "t_uint256": {
        "encoding": "inplace",
        "label": "uint256",
        "numberOfBytes": "32"
      }
    }
  }
}