{
  "address": "0xD3768a326BAA48EA73B56FD70852Eb71E90CdCf4",
  "abi": [
    {
      "inputs": [
        {
          "internalType": "address",
          "name": "_registry",
          "type": "address"
        },
        {
          "internalType": "address",
          "name": "_registrar",
          "type": "address"
        },
        {
          "internalType": "address",
          "name": "_publicResolver",
          "type": "address"
        },
        {
          "internalType": "address",
          "name": "_unlockContract",
          "type": "address"
        },
        {
          "internalType": "address",
          "name": "_gateImplementation",
          "type": "address"
        }
      ],
      "stateMutability": "nonpayable",
      "type": "constructor"
    },
    {
      "inputs": [
        {
          "internalType": "uint256",
          "name": "chainid",
          "type": "uint256"
        }
      ],
      "name": "ChainNotSupported",
      "type": "error"
    },
    {
      "inputs": [],
      "name": "InstanceAlreadyExists",
      "type": "error"
    },
    {
      "inputs": [],
      "name": "InvalidTokenAmount",
      "type": "error"
    },
    {
      "inputs": [],
      "name": "InvalidTokenSender",
      "type": "error"
    },
    {
      "inputs": [],
      "name": "NoCodeOwner",
      "type": "error"
    },
    {
      "inputs": [],
      "name": "NoInstanceAccess",
      "type": "error"
    },
    {
      "inputs": [],
      "name": "NoInstanceCreator",
      "type": "error"
    },
    {
      "inputs": [],
      "name": "SubscribeToGainAccess",
      "type": "error"
    },
    {
      "anonymous": false,
      "inputs": [
        {
          "indexed": true,
          "internalType": "address",
          "name": "previousOwner",
          "type": "address"
        },
        {
          "indexed": true,
          "internalType": "address",
          "name": "newOwner",
          "type": "address"
        }
      ],
      "name": "OwnershipTransferred",
      "type": "event"
    },
    {
      "inputs": [],
      "name": "DBNS_NODE",
      "outputs": [
        {
          "internalType": "bytes32",
          "name": "",
          "type": "bytes32"
        }
      ],
      "stateMutability": "view",
      "type": "function"
    },
    {
      "inputs": [],
      "name": "PUBLIC_RESOLVER",
      "outputs": [
        {
          "internalType": "contract IFNSResolver",
          "name": "",
          "type": "address"
        }
      ],
      "stateMutability": "view",
      "type": "function"
    },
    {
      "inputs": [],
      "name": "REGISTRAR",
      "outputs": [
        {
          "internalType": "contract IFNSRegistrar",
          "name": "",
          "type": "address"
        }
      ],
      "stateMutability": "view",
      "type": "function"
    },
    {
      "inputs": [],
      "name": "REGISTRY",
      "outputs": [
        {
          "internalType": "contract IFNS",
          "name": "",
          "type": "address"
        }
      ],
      "stateMutability": "view",
      "type": "function"
    },
    {
      "inputs": [],
      "name": "TABLELAND",
      "outputs": [
        {
          "internalType": "contract ITablelandTables",
          "name": "",
          "type": "address"
        }
      ],
      "stateMutability": "view",
      "type": "function"
    },
    {
      "inputs": [
        {
          "internalType": "bytes32",
          "name": "",
          "type": "bytes32"
        }
      ],
      "name": "codeOwner",
      "outputs": [
        {
          "internalType": "address",
          "name": "",
          "type": "address"
        }
      ],
      "stateMutability": "view",
      "type": "function"
    },
    {
      "inputs": [
        {
          "internalType": "string",
          "name": "_name",
          "type": "string"
        },
        {
          "internalType": "string",
          "name": "_subspace",
          "type": "string"
        }
      ],
      "name": "createDBSpace",
      "outputs": [],
      "stateMutability": "nonpayable",
      "type": "function"
    },
    {
      "inputs": [
        {
          "internalType": "bytes32",
          "name": "_DBSpace",
          "type": "bytes32"
        },
        {
          "internalType": "string",
          "name": "_name",
          "type": "string"
        },
        {
          "internalType": "string",
          "name": "_subspace",
          "type": "string"
        }
      ],
      "name": "createDBSubSpace",
      "outputs": [],
      "stateMutability": "nonpayable",
      "type": "function"
    },
    {
      "inputs": [
        {
          "internalType": "bytes32",
          "name": "_instance",
          "type": "bytes32"
        },
        {
          "internalType": "string",
          "name": "_name",
          "type": "string"
        },
        {
          "internalType": "string",
          "name": "_about",
          "type": "string"
        },
        {
          "internalType": "string",
          "name": "_chatID",
          "type": "string"
        },
        {
          "internalType": "string",
          "name": "_codeIPNS",
          "type": "string"
        }
      ],
      "name": "createInstanceCode",
      "outputs": [],
      "stateMutability": "nonpayable",
      "type": "function"
    },
    {
      "inputs": [
        {
          "internalType": "bytes32",
          "name": "_node",
          "type": "bytes32"
        },
        {
          "internalType": "uint256",
          "name": "_price",
          "type": "uint256"
        },
        {
          "internalType": "address[]",
          "name": "_members",
          "type": "address[]"
        },
        {
          "internalType": "string",
          "name": "_metadataCID",
          "type": "string"
        },
        {
          "internalType": "string",
          "name": "_chatID",
          "type": "string"
        },
        {
          "internalType": "string",
          "name": "_IPNS",
          "type": "string"
        }
      ],
      "name": "createSpaceInstance",
      "outputs": [],
      "stateMutability": "nonpayable",
      "type": "function"
    },
    {
      "inputs": [
        {
          "internalType": "bytes32",
          "name": "_instanceID",
          "type": "bytes32"
        }
      ],
      "name": "extendInstanceSubscription",
      "outputs": [],
      "stateMutability": "payable",
      "type": "function"
    },
    {
      "inputs": [
        {
          "internalType": "address",
          "name": "_sender",
          "type": "address"
        },
        {
          "internalType": "address",
          "name": "_gatedContract",
          "type": "address"
        }
      ],
      "name": "getAccess",
      "outputs": [
        {
          "internalType": "bool",
          "name": "",
          "type": "bool"
        }
      ],
      "stateMutability": "view",
      "type": "function"
    },
    {
      "inputs": [
        {
          "internalType": "bytes32",
          "name": "_instanceID",
          "type": "bytes32"
        },
        {
          "internalType": "address",
          "name": "_subscriber",
          "type": "address"
        }
      ],
      "name": "getRemainingSubscriptionTime",
      "outputs": [
        {
          "internalType": "uint256",
          "name": "",
          "type": "uint256"
        }
      ],
      "stateMutability": "view",
      "type": "function"
    },
    {
      "inputs": [],
      "name": "getTime",
      "outputs": [
        {
          "internalType": "uint256",
          "name": "",
          "type": "uint256"
        }
      ],
      "stateMutability": "view",
      "type": "function"
    },
    {
      "inputs": [
        {
          "internalType": "bytes32",
          "name": "_instanceID",
          "type": "bytes32"
        },
        {
          "internalType": "address",
          "name": "_subscriber",
          "type": "address"
        }
      ],
      "name": "hasActiveSubscription",
      "outputs": [
        {
          "internalType": "bool",
          "name": "",
          "type": "bool"
        }
      ],
      "stateMutability": "view",
      "type": "function"
    },
    {
      "inputs": [
        {
          "internalType": "bytes32",
          "name": "_instance",
          "type": "bytes32"
        },
        {
          "internalType": "address",
          "name": "_sender",
          "type": "address"
        }
      ],
      "name": "hasMutateAccess",
      "outputs": [
        {
          "internalType": "bool",
          "name": "access",
          "type": "bool"
        }
      ],
      "stateMutability": "view",
      "type": "function"
    },
    {
      "inputs": [
        {
          "internalType": "bytes32",
          "name": "_instance",
          "type": "bytes32"
        },
        {
          "internalType": "address",
          "name": "_sender",
          "type": "address"
        }
      ],
      "name": "hasViewAccess",
      "outputs": [
        {
          "internalType": "bool",
          "name": "",
          "type": "bool"
        }
      ],
      "stateMutability": "view",
      "type": "function"
    },
    {
      "inputs": [
        {
          "internalType": "bytes32",
          "name": "_instance",
          "type": "bytes32"
        },
        {
          "internalType": "address[]",
          "name": "_members",
          "type": "address[]"
        }
      ],
      "name": "insertNewMerbers",
      "outputs": [],
      "stateMutability": "nonpayable",
      "type": "function"
    },
    {
      "inputs": [
        {
          "internalType": "bytes32",
          "name": "",
          "type": "bytes32"
        }
      ],
      "name": "instanceLock",
      "outputs": [
        {
          "internalType": "address",
          "name": "creator",
          "type": "address"
        },
        {
          "internalType": "address",
          "name": "lockAddress",
          "type": "address"
        }
      ],
      "stateMutability": "view",
      "type": "function"
    },
    {
      "inputs": [
        {
          "internalType": "bytes32",
          "name": "",
          "type": "bytes32"
        },
        {
          "internalType": "address",
          "name": "",
          "type": "address"
        }
      ],
      "name": "instanceSubscriptions",
      "outputs": [
        {
          "internalType": "uint256",
          "name": "",
          "type": "uint256"
        }
      ],
      "stateMutability": "view",
      "type": "function"
    },
    {
      "inputs": [
        {
          "internalType": "bytes32",
          "name": "",
          "type": "bytes32"
        }
      ],
      "name": "instances",
      "outputs": [
        {
          "internalType": "address",
          "name": "gatedContract",
          "type": "address"
        },
        {
          "internalType": "uint256",
          "name": "price",
          "type": "uint256"
        },
        {
          "internalType": "address",
          "name": "creator",
          "type": "address"
        }
      ],
      "stateMutability": "view",
      "type": "function"
    },
    {
      "inputs": [
        {
          "internalType": "bytes32",
          "name": "",
          "type": "bytes32"
        }
      ],
      "name": "isType",
      "outputs": [
        {
          "internalType": "enum Core.Types",
          "name": "",
          "type": "uint8"
        }
      ],
      "stateMutability": "view",
      "type": "function"
    },
    {
      "inputs": [
        {
          "internalType": "address",
          "name": "",
          "type": "address"
        },
        {
          "internalType": "address",
          "name": "",
          "type": "address"
        },
        {
          "internalType": "address",
          "name": "",
          "type": "address"
        },
        {
          "internalType": "bytes",
          "name": "",
          "type": "bytes"
        }
      ],
      "name": "keyPurchasePrice",
      "outputs": [
        {
          "internalType": "uint256",
          "name": "minKeyPrice",
          "type": "uint256"
        }
      ],
      "stateMutability": "view",
      "type": "function"
    },
    {
      "inputs": [
        {
          "internalType": "address",
          "name": "",
          "type": "address"
        },
        {
          "internalType": "address",
          "name": "",
          "type": "address"
        },
        {
          "internalType": "uint256",
          "name": "tokenId",
          "type": "uint256"
        },
        {
          "internalType": "bytes",
          "name": "",
          "type": "bytes"
        }
      ],
      "name": "onERC721Received",
      "outputs": [
        {
          "internalType": "bytes4",
          "name": "",
          "type": "bytes4"
        }
      ],
      "stateMutability": "nonpayable",
      "type": "function"
    },
    {
      "inputs": [
        {
          "internalType": "uint256",
          "name": "",
          "type": "uint256"
        },
        {
          "internalType": "address",
          "name": "from",
          "type": "address"
        },
        {
          "internalType": "address",
          "name": "",
          "type": "address"
        },
        {
          "internalType": "address",
          "name": "",
          "type": "address"
        },
        {
          "internalType": "bytes",
          "name": "",
          "type": "bytes"
        },
        {
          "internalType": "uint256",
          "name": "",
          "type": "uint256"
        },
        {
          "internalType": "uint256",
          "name": "",
          "type": "uint256"
        }
      ],
      "name": "onKeyPurchase",
      "outputs": [],
      "stateMutability": "view",
      "type": "function"
    },
    {
      "inputs": [],
      "name": "owner",
      "outputs": [
        {
          "internalType": "address",
          "name": "",
          "type": "address"
        }
      ],
      "stateMutability": "view",
      "type": "function"
    },
    {
      "inputs": [
        {
          "internalType": "bytes32",
          "name": "_instanceID",
          "type": "bytes32"
        }
      ],
      "name": "purchaseInstanceSubscription",
      "outputs": [],
      "stateMutability": "payable",
      "type": "function"
    },
    {
      "inputs": [
        {
          "internalType": "bytes32",
          "name": "_instance",
          "type": "bytes32"
        },
        {
          "internalType": "uint256[]",
          "name": "_tokens",
          "type": "uint256[]"
        }
      ],
      "name": "removeMembers",
      "outputs": [],
      "stateMutability": "nonpayable",
      "type": "function"
    },
    {
      "inputs": [],
      "name": "renounceOwnership",
      "outputs": [],
      "stateMutability": "nonpayable",
      "type": "function"
    },
    {
      "inputs": [
        {
          "internalType": "uint256",
          "name": "",
          "type": "uint256"
        }
      ],
      "name": "tableIDs",
      "outputs": [
        {
          "internalType": "uint256",
          "name": "",
          "type": "uint256"
        }
      ],
      "stateMutability": "view",
      "type": "function"
    },
    {
      "inputs": [
        {
          "internalType": "uint256",
          "name": "",
          "type": "uint256"
        }
      ],
      "name": "tables",
      "outputs": [
        {
          "internalType": "string",
          "name": "",
          "type": "string"
        }
      ],
      "stateMutability": "view",
      "type": "function"
    },
    {
      "inputs": [
        {
          "internalType": "address",
          "name": "recipient",
          "type": "address"
        }
      ],
      "name": "transferDomain",
      "outputs": [],
      "stateMutability": "nonpayable",
      "type": "function"
    },
    {
      "inputs": [
        {
          "internalType": "address",
          "name": "newOwner",
          "type": "address"
        }
      ],
      "name": "transferOwnership",
      "outputs": [],
      "stateMutability": "nonpayable",
      "type": "function"
    },
    {
      "inputs": [
        {
          "internalType": "bytes32",
          "name": "_codeID",
          "type": "bytes32"
        },
        {
          "internalType": "string",
          "name": "_name",
          "type": "string"
        },
        {
          "internalType": "string",
          "name": "_about",
          "type": "string"
        }
      ],
      "name": "updateCode",
      "outputs": [],
      "stateMutability": "nonpayable",
      "type": "function"
    },
    {
      "inputs": [
        {
          "internalType": "bytes32",
          "name": "_instance",
          "type": "bytes32"
        },
        {
          "internalType": "uint256",
          "name": "_hatID",
          "type": "uint256"
        },
        {
          "internalType": "uint256",
          "name": "_price",
          "type": "uint256"
        },
        {
          "internalType": "string",
          "name": "_name",
          "type": "string"
        },
        {
          "internalType": "string",
          "name": "_about",
          "type": "string"
        },
        {
          "internalType": "string",
          "name": "_img",
          "type": "string"
        },
        {
          "internalType": "string",
          "name": "_chatID",
          "type": "string"
        },
        {
          "internalType": "string",
          "name": "_IPNS",
          "type": "string"
        }
      ],
      "name": "updateInstance",
      "outputs": [],
      "stateMutability": "nonpayable",
      "type": "function"
    },
    {
      "inputs": [],
      "name": "withdraw",
      "outputs": [],
      "stateMutability": "nonpayable",
      "type": "function"
    },
    {
      "inputs": [
        {
          "internalType": "bytes32",
          "name": "_instanceID",
          "type": "bytes32"
        }
      ],
      "name": "withdraw",
      "outputs": [],
      "stateMutability": "nonpayable",
      "type": "function"
    },
    {
      "stateMutability": "payable",
      "type": "receive"
    }
  ],
  "transactionHash": "0x19b12f81c044e45715dbd3d76ed57c8012ef2841f2ebb33b68f4d0579b886919",
  "args": [
    "0x00000000000C2E074eC69A0dFb2997BA6C7d2e1e",
    "0x57f1887a8BF19b14fC0dF6Fd9B2acc9Af147eA85",
    "0x8FADE66B79cC9f707aB26799354482EB93a5B7dD",
    "0x36b34e10295cCE69B652eEB5a8046041074515Da",
    "0xd6e750fc81cDc951C462B6046dF2c1418a4100d6"
  ],
  "numDeployments": 6,
  "solcInputHash": "b45ab92dfe896c6457c500f877ca50e5",
  "bytecode": "0x6101008060405234620007b45760a081620045bb8038038091620000248285620008b5565b833981010312620007b4576200003a81620008d9565b6200004860208301620008d9565b6200005660408401620008d9565b906200007360806200006b60608701620008d9565b9501620008d9565b6001600160a01b0393841660805290831660a05290821660c052600180546001600160a01b031916918316919091179055620000ae62000f71565b1660e052620001446200013e604051620000c8816200087d565b604c81527f44425370616365494420746578742c20444253756253706163654f664944207460208201527f6578742c20444253706163654e616d6520746578742c2044425375625370616360408201526b1953d993985b59481d195e1d60a21b6060820152620001376200090a565b9062000ef4565b62000987565b60405160c081016001600160401b03811182821017620006f75762000237916200013e91604052609b81527f496e7374616e6365494420746578742c20696e7374616e63654f66537061636560208201527f20746578742c20696e7374616e63655479706520746578742c206d657461646160408201527f746143494420746578742c2063686174494420746578742c2049504e5320746560608201527f78742c206761746564436f6e747261637420746578742c20707269636520746560808201527f78742c206c6f636b20746578742c2063726561746f722074657874000000000060a08201526200013762000c23565b620002cd6200013e6040516200024d816200087d565b605d81527f496e7374616e6365494420746578742c20636f6465494420746578742c206e6160208201527f6d6520746578742c2061626f757420746578742c20636861744944207465787460408201527f2c20636f646549504e5320746578742c2063726561746f72207465787400000060608201526200013762000c5e565b604051606081016001600160401b03811182821017620006f7576200034e916200013e91604052603b81527f496e7374616e6365494420746578742c2073756273637269626572207465787460208201527f2c20746f6b656e494420746578742c20656e647341742074657874000000000060408201526200013762000c8b565b620003986200013e604051620003648162000899565b601c81527f496e7374616e6365494420746578742c206d656d62657220746578740000000060208201526200013762000cb6565b60018060a01b0360e05116604051906361a23d0f60e01b8252816044810130600483015260406024830152600254809152606482019060648160051b8401019160026000526020600020916000915b818310620007c557505050509181600081819503925af1908115620007b9576000916200070d575b508051906001600160401b038211620006f757680100000000000000008211620006f75760209060045483600455808410620006d6575b50016004600052602060002060005b838110620006c15784620004686200090a565b60045415620006ab5760046000527f8a35acfbc15ff81a39ae7d344fd709f28e8600b4aa8c65c6b64bfe7fe36bd19b54620004af91620004a9919062000d08565b62000af9565b620004b962000c23565b60045460011015620006ab5760046000527f8a35acfbc15ff81a39ae7d344fd709f28e8600b4aa8c65c6b64bfe7fe36bd19c54620004fd91620004a9919062000d08565b6200050762000c5e565b60045460021015620006ab5760046000527f8a35acfbc15ff81a39ae7d344fd709f28e8600b4aa8c65c6b64bfe7fe36bd19d546200054b91620004a9919062000d08565b6200055562000c8b565b60045460031015620006ab5760046000527f8a35acfbc15ff81a39ae7d344fd709f28e8600b4aa8c65c6b64bfe7fe36bd19e546200059991620004a9919062000d08565b620005a362000cb6565b60045460041015620006ab5760046000527f8a35acfbc15ff81a39ae7d344fd709f28e8600b4aa8c65c6b64bfe7fe36bd19f54620005e791620004a9919062000d08565b60058054336001600160a01b0319821681179092556040519291906001600160a01b03167f8be0079c531659141344cd1fd0a4f28419497f9722a3daafe3b4186f6b6457e0600080a3600880546001600160a01b0319166001600160a01b0392909216919091179055613498908162001123823960805181818161209e0152612753015260a0518181816107f8015281816116fa0152611f6e015260c0518181816101d20152818161169601526127a8015260e05181818161042e015261300a0152f35b634e487b7160e01b600052603260045260246000fd5b60019060208451940193818401550162000455565b620006f0906004600052848460002091820191016200096e565b3862000446565b634e487b7160e01b600052604160045260246000fd5b90503d806000833e620007218183620008b5565b810190602081830312620007b4578051906001600160401b038211620007b457019080601f83011215620007b4578151916001600160401b038311620006f7578260051b9060405193620007796020840186620008b5565b8452602080850192820101928311620007b457602001905b828210620007a357505050386200040f565b815181526020918201910162000791565b600080fd5b6040513d6000823e3d90fd5b878503606319018152835493955091939092600091620007e58262000931565b808252916001811690811562000859575060011462000818575b50506020600180929601920193019091869493620003e7565b909150856000526020600020916000925b81841062000842575050016020908101906001620007ff565b600181602092548387870101520193019262000829565b60ff191660208381019190915292151560051b9091018201925060019050620007ff565b608081019081106001600160401b03821117620006f757604052565b604081019081106001600160401b03821117620006f757604052565b601f909101601f19168101906001600160401b03821190821017620006f757604052565b51906001600160a01b0382168203620007b457565b6001600160401b038111620006f757601f01601f191660200190565b60405190620009198262000899565b600982526864625f73706163657360b81b6020830152565b90600182811c9216801562000963575b60208310146200094d57565b634e487b7160e01b600052602260045260246000fd5b91607f169162000941565b8181106200097a575050565b600081556001016200096e565b60025468010000000000000000811015620006f75760019182820180600255821015620006ab576002600090815281517f405787fa12a823e0f2b7631cc41b3ba8828b3321ca811111fa75cd3aa3bb5ace90930193602093929091906001600160401b03841162000ae557620009fe865462000931565b601f811162000aa7575b508491601f851160011462000a4457939450849291908362000a38575b50501b916000199060031b1c1916179055565b01519250388062000a25565b86815285812093958591601f198316915b8883831062000a8c575050501062000a72575b505050811b019055565b015160001960f88460031b161c1916905538808062000a68565b85870151885590960195948501948793509081019062000a55565b62000ad390878452868420601f870160051c81019188881062000ada575b601f0160051c01906200096e565b3862000a08565b909150819062000ac5565b634e487b7160e01b82526041600452602482fd5b60035468010000000000000000811015620006f75760019182820180600355821015620006ab576003600090815281517fc2575a0e9e593c00f959f8c92f12db2869c3395a3b0502d05e2516446f71f85b90930193602093929091906001600160401b03841162000ae55762000b70865462000931565b601f811162000bf1575b508491601f851160011462000ba957939450849291908362000a385750501b916000199060031b1c1916179055565b86815285812093958591601f198316915b8883831062000bd6575050501062000a7257505050811b019055565b85870151885590960195948501948793509081019062000bba565b62000c1c90878452868420601f870160051c81019188881062000ada57601f0160051c01906200096e565b3862000b7a565b6040519062000c328262000899565b601382527f64625f7370616365735f696e7374616e636573000000000000000000000000006020830152565b6040519062000c6d8262000899565b600f82526e696e7374616e6365735f636f64657360881b6020830152565b6040519062000c9a8262000899565b600d82526c737562736372697074696f6e7360981b6020830152565b6040519062000cc58262000899565b60078252666d656d6265727360c81b6020830152565b9081519160005b83811062000cf4575050016000815290565b806020809284010151818501520162000ce2565b62000d719062000d6262000d4493600162000d2e62000d274662000d74565b9262000d74565b9162000d57604051978896602088019062000cdb565b9183605f60f81b93848152019062000cdb565b908152019062000cdb565b03601f198101835282620008b5565b90565b806000917a184f03e93ff9f4daa797ed6e38ed64bf6a1f0100000000000000008082101562000ee5575b506d04ee2d6d415b85acef81000000008083101562000ed5575b50662386f26fc100008083101562000ec5575b506305f5e1008083101562000eb5575b506127108083101562000ea5575b50606482101562000e94575b600a8092101562000e89575b6001908160218186019562000e1687620008ee565b9662000e266040519889620008b5565b80885262000e37601f1991620008ee565b01366020890137860101905b62000e50575b5050505090565b600019019083906f181899199a1a9b1b9c1cb0b131b232b360811b8282061a83530491821562000e835791908262000e43565b62000e49565b916001019162000e01565b919060646002910491019162000df5565b6004919392049101913862000de9565b6008919392049101913862000ddb565b6010919392049101913862000dcb565b6020919392049101913862000db8565b60409350810491503862000d9e565b600162000f3c9262000f5a62000d71938362000f4b62000f144662000d74565b82604051998a976c021a922a0aa22902a20a126229609d1b60208a0152602d89019062000cdb565b605f60f81b8152019062000cdb565b600560fb1b8152019062000cdb565b602960f81b815203601e19810184520182620008b5565b4660010362000f925773012969f7e3439a9b04025b5a049eb9bad82a8c1290565b46600a0362000fb35773fad44bf5b843de943a09d4f3e84949a11d3aa3e690565b4661a4b10362000fd557739abd75e8640871a5a20d3b4ee6330a04c962affd90565b4661a4ba0362000ff757731a22854c5b1642760a827f20137a67930ae108d290565b466089036200101857735c4e6a9e5c1e1bf445a062006faf19ea6c49afea90565b4661013a036200103a577359ef8bf2d6c102b4c42aef9189e1a9f0abfd652d90565b4662aa36a7036200105d5773c50c62498448acc8dbde43da77f8d5d2e2c7597d90565b466101a4036200107f5773c72e8a7be04f2469f8c2db3f1bdf69a7d516abba90565b4662066eee03620010a25773223a74b8323914afdc3ff1e5005564dc17231d6e90565b466201388103620010c557734b48841d4b32c4650e4abc117a03fe8b51f38f6890565b466204cb2f03620010e85773030bcf3d50cad04c2e57391b12740982a930862190565b46617a69036200110a5773e7f1725e7734ce288f8367e1bb143e90bb3f051290565b60405163264e42cf60e01b8152466004820152602490fdfe60a080604052600436101561001d575b50361561001b57600080fd5b005b600090813560e01c90816306433b1b1461208a575080630c9ddf6d1461204657806311ad2f3414612013578063150b7a0214611f275780631e71b6e614611e66578063221c1fd114611db45780632711447f14611d67578063284e82e814611c055780633ccfd60b14611be25780633e20383514611bb357806344ce9a7a14611aca57806347d121c514611aa3578063557ed1ba14611a885780635e895f2914611a2657806367e0970914611969578063715018a61461190b57806371671bf2146117df578063822118461461166f57806384ec965314611642578063889753831461161b5780638a8fd250146115c95780638da5cb5b146115a05780638e19899e146114c957806396d565cb14610c565780639ad66a23146109295780639fb24cef14610896578063a5df63d614610865578063c6a36c4b14610827578063cb609077146107e2578063d0ed11101461045d578063d68d087c14610418578063db7baba9146103fb578063dd321bfc146103b4578063e2b1e4ed14610367578063f2fde38b146102a1578063f9737c7c146102045763ffeb4a300361000f57346102015780600319360112610201576040517f00000000000000000000000000000000000000000000000000000000000000006001600160a01b03168152602090f35b80fd5b503461020157610213366120fa565b9192848695929652600b60205260ff604086205416600781101561028d579561027c61028492610249600561028a999a1461246c565b61025d610257368984612435565b86612741565b808a52600b60205260408a20805460ff19166005179055963691612435565b933691612435565b92612949565b80f35b634e487b7160e01b86526021600452602486fd5b5034610201576020366003190112610201576102bb612149565b6102c36123c2565b6001600160a01b0390811690811561031357600554826001600160601b0360a01b821617600555167f8be0079c531659141344cd1fd0a4f28419497f9722a3daafe3b4186f6b6457e0600080a380f35b60405162461bcd60e51b815260206004820152602660248201527f4f776e61626c653a206e6577206f776e657220697320746865207a65726f206160448201526564647265737360d01b6064820152608490fd5b5034610201576020366003190112610201576004358152600b60205260ff6040822054166040519060078110156103a057602092508152f35b634e487b7160e01b83526021600452602483fd5b50346102015760403660031901126102015760406103d061215f565b9160043581526006602052209060018060a01b03166000526020526020604060002054604051908152f35b503461020157806003193601126102015760209054604051908152f35b50346102015780600319360112610201576040517f00000000000000000000000000000000000000000000000000000000000000006001600160a01b03168152602090f35b50346102015760a0366003190112610201576004356001600160401b036024358181116107de576104929036906004016120cd565b926044358381116107da576104ab9036906004016120cd565b9290916064358581116107d6576104c69036906004016120cd565b9390956084359081116107d2576104e19036906004016120cd565b9690916104ee33856125c8565b156107c05789948860405161052360408260209a8b8201958b8752808b8585013782019083820152038a8101845201826121d4565b519020998a8c52600b875260ff60408d20541660078110156107ac5761079a578a8c52600a875260408c20336001600160601b0360a01b825416179055600b875260408c2060ff198154166006179055369061057e92612435565b96369061058a92612435565b94369061059692612435565b9536906105a292612435565b6105aa6122d8565b97905496604051966105bb8861219e565b600f88526e696e7374616e6365735f636f64657360881b868901526105de6122d8565b949054956105eb90612ee4565b6105f490612c93565b936105fe90612ee4565b61060790612c93565b9161061190612c93565b9761061b90612c93565b9261062590612c93565b9061062f90612c93565b9061063933612cd3565b61064290612c93565b9360405199868b975190818c808b0192019161065d9261237a565b870194600b60fa1b95868c820152815191828d602184019201916106809261237a565b01856021820152815191828c6022840192019161069c9261237a565b01846022820152815191828b602384019201916106b89261237a565b01836023820152815191828a602484019201916106d49261237a565b018260248201528151918289602584019201916106f09261237a565b0190602582015281519182876026840192019161070c9261237a565b010360068101855260260161072190856121d4565b6040519261072e846121b9565b603a845283017f496e7374616e636549442c20636f646549442c206e616d652c2061626f75742c9052604083017f206368617449442c20636f646549504e532c2063726561746f72000000000000905260031b1c61078b93612a1e565b9160031b1c9061028a91613008565b604051631144626f60e01b8152600490fd5b634e487b7160e01b8d52602160045260248dfd5b6040516346627df160e01b8152600490fd5b8880fd5b8780fd5b8580fd5b8380fd5b50346102015780600319360112610201576040517f00000000000000000000000000000000000000000000000000000000000000006001600160a01b03168152602090f35b50346102015760203660031901126102015760408091600435815260076020522060018060a01b036001818354169201541682519182526020820152f35b503461020157604036600319011261020157602061088c61088461215f565b600435613254565b6040519015158152f35b5034610201576040366003190112610201576001600160401b03600435818111610925576108c89036906004016120cd565b916024359081116107de5761028a926108e86102849236906004016120cd565b929061027c61090388546108fd36878a612435565b90612741565b95868952600b60205260408920600560ff198254161790558854943691612435565b8280fd5b506003199060203683018113610c5257600435926040516109498161219e565b600190818152833681830137604051916109628361219e565b808352843681850137604051936109788561219e565b8185528536818701376040519461098e8661219e565b828652863681880137604051936109a48561219e565b83855287895b818110610c4257506040516109be8161219e565b8581528136910137898952600788526040808a2085015490516310e5697360e01b81526001600160a01b03909116969089816004818b5afa908115610c37578b91610bfb575b5092610a7c8b989693610a6c610a8c94610a5c60a09d60049c9a9930610a2987612ed7565b52610a3382612ed7565b5233610a3e84612ed7565b526040519e8f9d8e633381899760e01b8152015260a48d019061270d565b90888c83030160248d01526126d0565b90868a83030160448b01526126d0565b90848883030160648901526126d0565b9185830301608486015282518083528883019289808360051b83010195019388915b8b848410610bc65750505050505050828091039134905af18015610bbb578390610b25575b610add9150612ed7565b519083835260068152604083209033600052528060406000205562278d00420190814211610b115761028a92933390612deb565b634e487b7160e01b83526011600452602483fd5b503d8084833e610b3581836121d4565b81019082818303126107de578051906001600160401b038211610bb757019080601f830112156107de578151610b6a816121f5565b92610b7860405194856121d4565b818452848085019260051b8201019283116107da5784809101915b838310610ba75750505050610add90610ad3565b8251815291810191859101610b93565b8480fd5b6040513d85823e3d90fd5b919497995092958792959850610be78291601f198682030187528a5161239d565b9801930193018a9795929389979592610aae565b91939290508982813d8311610c30575b610c1581836121d4565b81010312610c2b57905191929091610a6c610a04565b600080fd5b503d610c0b565b6040513d8d823e3d90fd5b60608282890101520188906109aa565b5080fd5b50346102015760c0366003190112610201576001600160401b036044351161020157366023604435011215610201576001600160401b036044356004013511610201573660246044356004013560051b604435010111610201576064356001600160401b038111610c5257610ccf9036906004016120cd565b6084929192356001600160401b03811161092557610cf19036906004016120cd565b60a4949194356001600160401b038111610bb757610d139036906004016120cd565b9390916004358652600b60205260ff60408720541660078110156114b5576005610d3d911461246c565b6040516020810190600435825286856040830137610d6d6040828981018b838201520360208101845201826121d4565b51902092838752600b60205260ff60408820541660078110156114a15761079a578697604435600401356111fa575b6040518060608101106001600160401b03606083011117611155576060810160405260018060a01b038a16815260243560208201526040810190338252868a526009602052600260408b20602060018060a01b03845116936001600160601b0360a01b948584541617835501516001820155019160018060a01b03905116908254161790558760018060a01b038a161515602435151560001461117f575050848852600b60205260408820805460ff19166003179055610e6685610e5e6124b8565b60243561308b565b955b858952600b60205260ff60408a20541694600786101561116b5793610eb561109394610ead602995610ea5610f039e9f96610f8a9b9a3691612435565b943691612435565b9a3691612435565b94610ebe6122a1565b9a90549960405197610ecf8961219e565b601389527264625f7370616365735f696e7374616e63657360681b60208a0152610f08610efa6122a1565b9f90549c612ee4565b612c93565b95610f4a610f03610f44610f3e610f38610f32610f03610f2c610f03600435612ee4565b9b612b2b565b9a612c93565b97612c93565b94612c93565b92612cd3565b91610f65610f03610f5f610f03602435612b2b565b95612cd3565b94610f72610f0333612cd3565b9760206040519e8f8c83829e5194859301910161237a565b8a0197600b60fa1b98896020820152610fad82518093602060218501910161237a565b01886021820152610fc882518093602060228501910161237a565b01876022820152610fe382518093602060238501910161237a565b01866023820152610ffe82518093602060248501910161237a565b0185602482015261101982518093602060258501910161237a565b0184602582015261103482518093602060268501910161237a565b0183602682015261104f82518093602060278501910161237a565b0182602782015261106a82518093602060288501910161237a565b01906028820152611084825180936020878501910161237a565b010360098101855201836121d4565b6040519060a08201938285106001600160401b038611176111555761028a9761114b95604052606984527f496e7374616e636549442c20696e7374616e63654f6653706163652c20696e7360208501527f74616e6365547970652c206d657461646174614349442c206368617449442c2060408501527f49504e532c206761746564436f6e74726163742c2070726963652c206c6f636b606085015268161031b932b0ba37b960b91b608085015260031b1c90612a1e565b9160031b1c613008565b634e487b7160e01b600052604160045260246000fd5b634e487b7160e01b8a52602160045260248afd5b80806111f3575b156111b6575050848852600b60205260408820805460ff191660011790556111b085610e5e6124b8565b95610e68565b909690156111da57858952600b60205260408920805460ff19166002179055610e68565b600b60205260408920805460ff19166004179055610e68565b5089611186565b96949290975061121a95939195366044356004013560246044350161220c565b600154608881901c62ffffff16763d602d80600a3d3981f3363d3d373d3d3d363d7300000017875260781b6effffffffffffffffffffffffffffff19166e5af43d82803e903d91602b57fd5bf3176020526037600987f0906001600160a01b03821615611463578680916040516112bc816112ae602082019463a224cee760e01b86526020602484015260448301906126d0565b03601f1981018352826121d4565b519082855af16112ca61281f565b501561142c57956112e7366044356004013560246044350161220c565b6080526112f383612ee4565b98865b6080515181101561141c578a9061130b61226a565b929054926040519361131c8561219e565b60078552666d656d6265727360c81b602086015261134461133b61226a565b91905494612c93565b60805191825187101561140657611401976113fc966113c661137d610f038b602061114b9960018060a01b039260051b01015116612cd3565b6040518661139582985180926020808601910161237a565b8101600b60fa1b60208201528251906113b7826021956020878501910161237a565b010360018101875201856121d4565b604051926113d38461219e565b601284527124b739ba30b731b2a4a2161036b2b6b132b960711b602085015260031b1c90612a1e565b612eb2565b6112f6565b634e487b7160e01b600052603260045260246000fd5b5091939597909294969850610d9c565b60405162461bcd60e51b815260206004820152600f60248201526e6572726f72206465706c6f79696e6760881b6044820152606490fd5b60405162461bcd60e51b8152602060048201526016602482015275115490cc4c4d8dce8818dc99585d194819985a5b195960521b6044820152606490fd5b634e487b7160e01b88526021600452602488fd5b634e487b7160e01b87526021600452602487fd5b5034610201576020366003190112610201576004358152600760205260408120604051906114f68261219e565b80546001600160a01b039081168084526001909201548116602084019081529091330361158e57819051169083823192803b15610c5257818091606460405180948193636ce5768960e11b83528160048401523060248401528960448401525af180156115835761156f575b505061028a925116613387565b6115789061218b565b6107de578338611562565b6040513d84823e3d90fd5b60405163c00f906f60e01b8152600490fd5b50346102015780600319360112610201576005546040516001600160a01b039091168152602090f35b503461020157602036600319011261020157600435600454811015610c525760209060046000527f8a35acfbc15ff81a39ae7d344fd709f28e8600b4aa8c65c6b64bfe7fe36bd19b0154604051908152f35b503461020157604036600319011261020157602061088c61163a61215f565b6004356125c8565b503461020157604036600319011261020157602061088c611661612149565b61166961215f565b9061284f565b5034610201576020366003190112610201578061168a612149565b81546001600160a01b037f00000000000000000000000000000000000000000000000000000000000000008116929091833b15610bb75782916044869283604051958694859362d5fa2b60e81b8552600485015216978860248401525af19081156117c05784916117cb575b50507f000000000000000000000000000000000000000000000000000000000000000016908254823b156117a35760405190630a3b53db60e21b82526004820152816024820152838160448183875af19081156117c05784916117a8575b5054823b156117a35760648492836040519586948593632142170760e11b8552306004860152602485015260448401525af18015611583576117935750f35b61179c9061218b565b6102015780f35b505050fd5b6117b19061218b565b6117bc578238611754565b5050fd5b6040513d86823e3d90fd5b6117d49061218b565b6117bc5782386116f6565b503461020157602080600319360112610c52576004356003548110156109255760036000527fc2575a0e9e593c00f959f8c92f12db2869c3395a3b0502d05e2516446f71f85b0190604051918381549460019086821c93828816978815611901575b86861089146118ed57868899878a98999a5291826000146118c957505060011461188d575b505050611875925003836121d4565b61188960405192828493845283019061239d565b0390f35b869350819291528282205b8583106118b15750506118759350820101388080611866565b80548389018501528794508693909201918101611898565b93509450505061187594915060ff191682840152151560051b820101388080611866565b634e487b7160e01b83526022600452602483fd5b94607f1694611841565b50346102015780600319360112610201576119246123c2565b600580546001600160a01b031981169091556000906001600160a01b03167f8be0079c531659141344cd1fd0a4f28419497f9722a3daafe3b4186f6b6457e08280a380f35b503461020157604036600319011261020157806024356001600160401b038111611a235736602382011215611a23576119ac90369060248160040135910161220c565b60043582526009602052604082206119d560018060a01b03600281845416930154163314612698565b806119de575050f35b803b156117bc57604051632f41d6e160e21b8152602060048201529183918391829084908290611a129060248301906126d0565b03925af18015611583576117935750f35b50fd5b50346102015760e036600319011261020157611a4061215f565b611a48612175565b506001600160a01b0360643581811603610c2b576084356001600160401b0381116107de57611a7b9036906004016120cd565b5050309116036102015780f35b50346102015780600319360112610201576020604051428152f35b503461020157604036600319011261020157602061088c611ac261215f565b6004356124d8565b503461020157604036600319011261020157602435906001600160401b038211610201573660238301121561020157816004013591611b08836121f5565b90611b1660405192836121d4565b83825260209360248584019160051b83010191368311610bb757602401905b828210611ba45750505081926004358352600981526040832091611b6a60018060a01b03600281865416950154163314612698565b82611b7457505050f35b823b156117a357611a129284928360405180968195829463b80f55c960e01b84526004840152602483019061270d565b81358152908501908501611b35565b5034610201576040366003190112610201576020611bda611bd261215f565b6004356132e6565b604051908152f35b5034610201578060031936011261020157611bfb6123c2565b61028a4733613387565b50602090816003193601126102015760043591611c2233846132e6565b838352600682526040808420338552835280842054858552600784528185206001015491516310e5697360e01b815292939092916001600160a01b0316908083600481855afa928315611d5c578693611d2d575b50813b156107da5791859160405193849263d813cc1960e01b8452600484015285602484015230604484015260809081606485015260605191826084860152855b838110611d155750505060a483828683839584010152601f8019910116810103019134905af180156117c057611d02575b5062278d008201809211610b115761028a92933390612deb565b611d0e9093919361218b565b9138611ce8565b8082015188820160a401528a96508795508201611cb7565b9080935081813d8311611d55575b611d4581836121d4565b810103126107da57519138611c76565b503d611d3b565b6040513d88823e3d90fd5b5034610201576020366003190112610201576040606091600435815260096020522060018060a01b0390818154169160026001830154920154169060405192835260208301526040820152f35b503461020157608036600319011261020157611dce612149565b50611dd761215f565b50611de0612175565b506064356001600160401b038111610c5257611e009036906004016120cd565b50506040516310e5697360e01b8152602081600481335afa908115611583578291611e31575b602082604051908152f35b90506020813d8211611e5e575b81611e4b602093836121d4565b81010312610c5257602091505138611e26565b3d9150611e3e565b503461020157610100366003190112610201576001600160401b0360643581811161092557611e999036906004016120cd565b505060843581811161092557611eb39036906004016120cd565b505060a43581811161092557611ecd9036906004016120cd565b505060c43581811161092557611ee79036906004016120cd565b505060e435908111610c5257611f019036906004016120cd565b50506004358152600960205260408120600201546001600160a01b031633036107c05780f35b503461020157608036600319011261020157611f41612149565b50611f4a61215f565b506064356001600160401b038111610c5257611f6a9036906004016120cd565b50507f00000000000000000000000000000000000000000000000000000000000000006001600160a01b0316330361200157805415611fb6575b604051630a85bd0160e11b8152602090f35b60405160208101907f93cdeb708b7545dc668eb9280176169d1c33cfd8ed6f04690a0bcc88a93fc4ae8252604435604082015260408152611ff6816121b9565b519020905538611fa4565b604051634a93b62160e11b8152600490fd5b5034610201576020366003190112610201576020906004358152600a8252604060018060a01b0391205416604051908152f35b503461020157612055366120fa565b50505090825250600a60205260408120546001600160a01b031633036120785780f35b6040516306815cbd60e41b8152600490fd5b905034610c525781600319360112610c52577f00000000000000000000000000000000000000000000000000000000000000006001600160a01b03168152602090f35b9181601f84011215610c2b578235916001600160401b038311610c2b5760208381860195010111610c2b57565b906060600319830112610c2b57600435916001600160401b0391602435838111610c2b578261212b916004016120cd565b93909392604435918211610c2b57612145916004016120cd565b9091565b600435906001600160a01b0382168203610c2b57565b602435906001600160a01b0382168203610c2b57565b604435906001600160a01b0382168203610c2b57565b6001600160401b03811161115557604052565b604081019081106001600160401b0382111761115557604052565b606081019081106001600160401b0382111761115557604052565b90601f801991011681019081106001600160401b0382111761115557604052565b6001600160401b0381116111555760051b60200190565b9291612217826121f5565b9161222560405193846121d4565b829481845260208094019160051b8101928311610c2b57905b82821061224b5750505050565b81356001600160a01b0381168103610c2b57815290830190830161223e565b600454600410156114065760046000527f8a35acfbc15ff81a39ae7d344fd709f28e8600b4aa8c65c6b64bfe7fe36bd19f90600090565b600454600110156114065760046000527f8a35acfbc15ff81a39ae7d344fd709f28e8600b4aa8c65c6b64bfe7fe36bd19c90600090565b600454600210156114065760046000527f8a35acfbc15ff81a39ae7d344fd709f28e8600b4aa8c65c6b64bfe7fe36bd19d90600090565b600454156114065760046000527f8a35acfbc15ff81a39ae7d344fd709f28e8600b4aa8c65c6b64bfe7fe36bd19b90600090565b600454600310156114065760046000527f8a35acfbc15ff81a39ae7d344fd709f28e8600b4aa8c65c6b64bfe7fe36bd19e90600090565b60005b83811061238d5750506000910152565b818101518382015260200161237d565b906020916123b68151809281855285808601910161237a565b601f01601f1916010190565b6005546001600160a01b031633036123d657565b606460405162461bcd60e51b815260206004820152602060248201527f4f776e61626c653a2063616c6c6572206973206e6f7420746865206f776e65726044820152fd5b6001600160401b03811161115557601f01601f191660200190565b9291926124418261241a565b9161244f60405193846121d4565b829481845281830111610c2b578281602093846000960137010152565b1561247357565b60405162461bcd60e51b815260206004820152601b60248201527f44424e533a204e6f6465206973206e6f742061207375626e6f646500000000006044820152606490fd5b604051906124c58261219e565b600482526344424e5360e01b6020830152565b906000828152600960205260018060a01b0360408220541690600b60205260ff60408220541660078110156125b45760030361251c57505061251991613254565b90565b838152600b60205260ff60408220541660078110156125b45760010361255d5750612547908261284f565b91821561255357505090565b6125199250613254565b8392508093915052600b60205260ff60408320541660078110156103a057600214908115612592575b50156125195750600190565b825250600b602052604081205460ff1660078110156125b45760041438612586565b634e487b7160e01b82526021600452602482fd5b919060008091848352600960205260018060a01b038060408520541695600b60205260ff60408620541693600785101597886114b557600386036126435750508452600960205280600260408620015416911614935b6125b4576004811190811561263a575b506126365750565b9150565b9050153861262e565b9392509650508395600184146000146126685750906126619161284f565b935b61261e565b95508395600284146000146126825750906126619161284f565b955050508160048203612663576001945061261e565b1561269f57565b60405162461bcd60e51b81526020600482015260096024820152684e6f2061636365737360b81b6044820152606490fd5b90815180825260208080930193019160005b8281106126f0575050505090565b83516001600160a01b0316855293810193928101926001016126e2565b90815180825260208080930193019160005b82811061272d575050505090565b83518552938101939281019260010161271f565b906020815191012060018060a01b03807f00000000000000000000000000000000000000000000000000000000000000001690813b15610c2b5760009160a4839260405194859384926305ef2c7f60e41b84528960048501528860248501523060448501527f00000000000000000000000000000000000000000000000000000000000000001660648401528160848401525af1801561281357612804575b5060405190602082019283526040820152604081526127fe816121b9565b51902090565b61280d9061218b565b386127e0565b6040513d6000823e3d90fd5b3d1561284a573d906128308261241a565b9161283e60405193846121d4565b82523d6000602084013e565b606090565b6040516370a0823160e01b81526001600160a01b0391821660048201529160209183916024918391165afa9081156128135760009161288f575b50151590565b906020823d82116128b8575b816128a8602093836121d4565b8101031261020157505138612889565b3d915061289b565b9392916129479260239261293860405197889481516128e78160209485808b01910161237a565b860193600b60fa1b948584820152612908825180938660218501910161237a565b01846021820152612922825180938560228501910161237a565b019260228401528351938491878501910161237a565b010360038101855201836121d4565b565b61114b90610f036129479593946129ba61296161230f565b97905496604051936129728561219e565b600985526864625f73706163657360b81b60208601526129b46129ae6129ae610f036129a861299f61230f565b9b90549c612ee4565b96612ee4565b92612c93565b926128c0565b92604051926129c8846121b9565b603884527f4442537061636549442c20444253756253706163654f6649442c20444253706160208501527f63654e616d652c20444253756253706163654f664e616d650000000000000000604085015260031b1c905b612ad093603692612b1261251995612a3e612a3846612b2b565b93612b2b565b94612aa96022604051809860209788612a60818501978881519384920161237a565b830190605f60f81b91828b820152612a81825180938d60218501910161237a565b01906021820152612a9a825180938b878501910161237a565b010360028101895201876121d4565b6040519889966b024a729a2a92a1024a72a27960a51b86890152518092602c89019061237a565b8501600560fb1b602c820152612aef8251809386602d8501910161237a565b019167052ac8298aa8aa6560c31b602d840152835193849160358501910161237a565b01602960f81b60358201520360168101845201826121d4565b806000917a184f03e93ff9f4daa797ed6e38ed64bf6a1f01000000000000000080821015612c85575b506d04ee2d6d415b85acef810000000080831015612c76575b50662386f26fc1000080831015612c67575b506305f5e10080831015612c58575b5061271080831015612c49575b506064821015612c39575b600a80921015612c2f575b60019081602181860195612bc48761241a565b96612bd260405198896121d4565b808852612be1601f199161241a565b01366020890137860101905b612bf9575b5050505090565b600019019083906f181899199a1a9b1b9c1cb0b131b232b360811b8282061a835304918215612c2a57919082612bed565b612bf2565b9160010191612bb1565b9190606460029104910191612ba6565b60049193920491019138612b9b565b60089193920491019138612b8e565b60109193920491019138612b7f565b60209193920491019138612b6d565b604093508104915038612b54565b61251960226040518093602760f81b90816020840152612cbd81518092602060218701910161237a565b82019060218201520360028101845201826121d4565b604051906001600160a01b0316612ce9826121b9565b602a82526020820160403682378251156114065760309053815160019081101561140657607860218401536029905b808211612d6c575050612d285790565b606460405162461bcd60e51b815260206004820152602060248201527f537472696e67733a20686578206c656e67746820696e73756666696369656e746044820152fd5b9091600f81166010811015612dc5576f181899199a1a9b1b9c1cb0b131b232b360811b901a612d9b8486612dda565b5360041c918015612db0576000190190612d18565b60246000634e487b7160e01b81526011600452fd5b60246000634e487b7160e01b81526032600452fd5b908151811015611406570160200190565b61114b90610f03612947959394612e60612e03612343565b9790549660405193612e148561219e565b600d85526c737562736372697074696f6e7360981b60208601526129b4610f03612a38610f03612e5a610f03612e54612e4b612343565b9d90549e612ee4565b98612cd3565b94612b2b565b9260405192612e6e846121b9565b602784527f496e7374616e636549442c20737562736372696265722c20746f6b656e49442c60208501526608195b991cd05d60ca1b604085015260031b1c90612a1e565b6000198114612ec15760010190565b634e487b7160e01b600052601160045260246000fd5b8051156114065760200190565b60405190612ef1826121b9565b6040825260209182810191604036843760405190612f0e8261219e565b601082526f181899199a1a9b1b9c1cb0b131b232b360811b8583015260005b858110612f6d5750505061060f60f31b9261251992612f5d6022936040519687948501525180928585019061237a565b81010360028101845201826121d4565b81811a9083518015612ff2576001600160f81b0319908190612f9190850487612dda565b51169060019383851b9284840460021485151715612ec15760001a612fb6848a612dda565b5386518015612ff257612fca910687612dda565b5116928101809111612ec157612fe7612fed9360001a9187612dda565b53612eb2565b612f2d565b634e487b7160e01b600052601260045260246000fd5b7f00000000000000000000000000000000000000000000000000000000000000006001600160a01b031691823b15610c2b576130719260009283604051809681958294631bbd786d60e11b8452306004850152602484015260606044840152606483019061239d565b03925af18015612813576130825750565b6129479061218b565b90916130db939260085460009384916040918251988995869263216c908360e11b845262278d0060048501528660248501526044840152600019606484015260c0608484015260c483019061239d565b60a482018590526001600160a01b039560209586949190920391839188165af196871561324a578597613212575b5082871694853b1561020157815163debe2b0d60e01b815260048101829052603260248201528181604481838b5af180156131f957613203575b50853b156102015781516374cac47d60e01b81523060048201528160248201528160448201528160648201528160848201528160a48201528160c4820152818160e481838b5af180156131f95790859392916131dd575b5060076001948351976131ac8961219e565b338952818901998a5283525220935116926001600160601b0360a01b93848254161781550192511690825416179055565b8193506131ec9094929461218b565b610c52579183913861319a565b83513d84823e3d90fd5b61320c9061218b565b38613143565b9096508181813d8311613243575b61322a81836121d4565b81010312610bb757518281168103610bb7579538613109565b503d613220565b81513d87823e3d90fd5b60009081526007602090815260408083206001015490516370a0823160e01b81526001600160a01b039485166004820152929383916024918391165afa9182156132da5780926132a6575b5050151590565b9091506020823d82116132d2575b816132c1602093836121d4565b81010312610201575051388061329f565b3d91506132b4565b604051903d90823e3d90fd5b600081815260208093600682526040832060018060a01b0380921684528252604083205493835260078252600160408420015416926024604051809581936354b249fb60e01b835260048301525afa92831561337a578193613349575b50505090565b9091809350813d8311613373575b61336181836121d4565b81010312610201575051388080613343565b503d613357565b50604051903d90823e3d90fd5b81471061341d576000918291829182916001600160a01b03165af16133aa61281f565b50156133b257565b60405162461bcd60e51b815260206004820152603a60248201527f416464726573733a20756e61626c6520746f2073656e642076616c75652c207260448201527f6563697069656e74206d617920686176652072657665727465640000000000006064820152608490fd5b60405162461bcd60e51b815260206004820152601d60248201527f416464726573733a20696e73756666696369656e742062616c616e63650000006044820152606490fdfea26469706673582212203163c8f186b9a2933347765a4b512839fe74bdbf03c2c4b6e3b52bf17316936a64736f6c63430008140033",
  "devdoc": {
    "details": "Create a decentralized Database NameSpaces Where space and subSpaces can get created and anyone can create instances inside a space and contribute to the public this is possible by integrating tableland SQL in solidity ENS system to support a decentralized Namespace of Database spaces IPNS and Push protocol for code and space discussions",
    "kind": "dev",
    "methods": {
      "createDBSpace(string,string)": {
        "details": "Create a new space under the given node",
        "params": {
          "_name": "The name of the new space"
        }
      },
      "createDBSubSpace(bytes32,string,string)": {
        "details": "Create a new subnode under the given node",
        "params": {
          "_DBSpace": "The parent node",
          "_name": "The name of the new subnode"
        }
      },
      "createInstanceCode(bytes32,string,string,string,string)": {
        "details": "Create a new instance under the given node",
        "params": {
          "_about": "The about of the new instance",
          "_chatID": "The chatID of the new instance",
          "_codeIPNS": "The IPNS of the new instance",
          "_instance": "The parent node",
          "_name": "The name of the new instance"
        }
      },
      "createSpaceInstance(bytes32,uint256,address[],string,string,string)": {
        "details": "Create a new instance under the given node",
        "params": {
          "_IPNS": "The IPNS of the new instance",
          "_chatID": "The chatID of the new instance",
          "_members": "The hatID of the new instance",
          "_metadataCID": "The name of the new instance",
          "_node": "The parent node"
        }
      },
      "hasViewAccess(bytes32,address)": {
        "details": "Check if the sender has access to the given instance",
        "params": {
          "_instance": "The instance to check",
          "_sender": "The sender to check"
        },
        "returns": {
          "_0": "bool"
        }
      },
      "owner()": {
        "details": "Returns the address of the current owner."
      },
      "renounceOwnership()": {
        "details": "Leaves the contract without owner. It will not be possible to call `onlyOwner` functions. Can only be called by the current owner. NOTE: Renouncing ownership will leave the contract without an owner, thereby disabling any functionality that is only available to the owner."
      },
      "transferOwnership(address)": {
        "details": "Transfers ownership of the contract to a new account (`newOwner`). Can only be called by the current owner."
      },
      "withdraw(bytes32)": {
        "details": "withdraw function for an agentID",
        "params": {
          "_instanceID": "to withdraw money from the lock contract"
        }
      }
    },
    "title": "DBNS",
    "version": 1
  },
  "userdoc": {
    "errors": {
      "ChainNotSupported(uint256)": [
        {
          "notice": "Current chain does not have a TablelandTables deployment."
        }
      ]
    },
    "kind": "user",
    "methods": {
      "withdraw(bytes32)": {
        "notice": "We give back to the agent creator 70% of the total income from that agent the platform keeps 30% of that amount"
      }
    },
    "version": 1
  },
  "storageLayout": {
    "storage": [
      {
        "astId": 4532,
        "contract": "contracts/DBNS.sol:DBNS",
        "label": "DBNS_NODE",
        "offset": 0,
        "slot": "0",
        "type": "t_bytes32"
      },
      {
        "astId": 4724,
        "contract": "contracts/DBNS.sol:DBNS",
        "label": "implementation",
        "offset": 0,
        "slot": "1",
        "type": "t_address"
      },
      {
        "astId": 4802,
        "contract": "contracts/DBNS.sol:DBNS",
        "label": "createTableStatements",
        "offset": 0,
        "slot": "2",
        "type": "t_array(t_string_storage)dyn_storage"
      },
      {
        "astId": 4805,
        "contract": "contracts/DBNS.sol:DBNS",
        "label": "tables",
        "offset": 0,
        "slot": "3",
        "type": "t_array(t_string_storage)dyn_storage"
      },
      {
        "astId": 4808,
        "contract": "contracts/DBNS.sol:DBNS",
        "label": "tableIDs",
        "offset": 0,
        "slot": "4",
        "type": "t_array(t_uint256)dyn_storage"
      },
      {
        "astId": 7,
        "contract": "contracts/DBNS.sol:DBNS",
        "label": "_owner",
        "offset": 0,
        "slot": "5",
        "type": "t_address"
      },
      {
        "astId": 5671,
        "contract": "contracts/DBNS.sol:DBNS",
        "label": "instanceSubscriptions",
        "offset": 0,
        "slot": "6",
        "type": "t_mapping(t_bytes32,t_mapping(t_address,t_uint256))"
      },
      {
        "astId": 5676,
        "contract": "contracts/DBNS.sol:DBNS",
        "label": "instanceLock",
        "offset": 0,
        "slot": "7",
        "type": "t_mapping(t_bytes32,t_struct(InstanceStruct)5665_storage)"
      },
      {
        "astId": 5679,
        "contract": "contracts/DBNS.sol:DBNS",
        "label": "UNLOCK",
        "offset": 0,
        "slot": "8",
        "type": "t_contract(IUnlockV12)3630"
      },
      {
        "astId": 4128,
        "contract": "contracts/DBNS.sol:DBNS",
        "label": "instances",
        "offset": 0,
        "slot": "9",
        "type": "t_mapping(t_bytes32,t_struct(SpaceInstance)4123_storage)"
      },
      {
        "astId": 4132,
        "contract": "contracts/DBNS.sol:DBNS",
        "label": "codeOwner",
        "offset": 0,
        "slot": "10",
        "type": "t_mapping(t_bytes32,t_address)"
      },
      {
        "astId": 4137,
        "contract": "contracts/DBNS.sol:DBNS",
        "label": "isType",
        "offset": 0,
        "slot": "11",
        "type": "t_mapping(t_bytes32,t_enum(Types)4116)"
      }
    ],
    "types": {
      "t_address": {
        "encoding": "inplace",
        "label": "address",
        "numberOfBytes": "20"
      },
      "t_array(t_string_storage)dyn_storage": {
        "base": "t_string_storage",
        "encoding": "dynamic_array",
        "label": "string[]",
        "numberOfBytes": "32"
      },
      "t_array(t_uint256)dyn_storage": {
        "base": "t_uint256",
        "encoding": "dynamic_array",
        "label": "uint256[]",
        "numberOfBytes": "32"
      },
      "t_bytes32": {
        "encoding": "inplace",
        "label": "bytes32",
        "numberOfBytes": "32"
      },
      "t_contract(IUnlockV12)3630": {
        "encoding": "inplace",
        "label": "contract IUnlockV12",
        "numberOfBytes": "20"
      },
      "t_enum(Types)4116": {
        "encoding": "inplace",
        "label": "enum Core.Types",
        "numberOfBytes": "1"
      },
      "t_mapping(t_address,t_uint256)": {
        "encoding": "mapping",
        "key": "t_address",
        "label": "mapping(address => uint256)",
        "numberOfBytes": "32",
        "value": "t_uint256"
      },
      "t_mapping(t_bytes32,t_address)": {
        "encoding": "mapping",
        "key": "t_bytes32",
        "label": "mapping(bytes32 => address)",
        "numberOfBytes": "32",
        "value": "t_address"
      },
      "t_mapping(t_bytes32,t_enum(Types)4116)": {
        "encoding": "mapping",
        "key": "t_bytes32",
        "label": "mapping(bytes32 => enum Core.Types)",
        "numberOfBytes": "32",
        "value": "t_enum(Types)4116"
      },
      "t_mapping(t_bytes32,t_mapping(t_address,t_uint256))": {
        "encoding": "mapping",
        "key": "t_bytes32",
        "label": "mapping(bytes32 => mapping(address => uint256))",
        "numberOfBytes": "32",
        "value": "t_mapping(t_address,t_uint256)"
      },
      "t_mapping(t_bytes32,t_struct(InstanceStruct)5665_storage)": {
        "encoding": "mapping",
        "key": "t_bytes32",
        "label": "mapping(bytes32 => struct Unlock.InstanceStruct)",
        "numberOfBytes": "32",
        "value": "t_struct(InstanceStruct)5665_storage"
      },
      "t_mapping(t_bytes32,t_struct(SpaceInstance)4123_storage)": {
        "encoding": "mapping",
        "key": "t_bytes32",
        "label": "mapping(bytes32 => struct Core.SpaceInstance)",
        "numberOfBytes": "32",
        "value": "t_struct(SpaceInstance)4123_storage"
      },
      "t_string_storage": {
        "encoding": "bytes",
        "label": "string",
        "numberOfBytes": "32"
      },
      "t_struct(InstanceStruct)5665_storage": {
        "encoding": "inplace",
        "label": "struct Unlock.InstanceStruct",
        "members": [
          {
            "astId": 5662,
            "contract": "contracts/DBNS.sol:DBNS",
            "label": "creator",
            "offset": 0,
            "slot": "0",
            "type": "t_address"
          },
          {
            "astId": 5664,
            "contract": "contracts/DBNS.sol:DBNS",
            "label": "lockAddress",
            "offset": 0,
            "slot": "1",
            "type": "t_address"
          }
        ],
        "numberOfBytes": "64"
      },
      "t_struct(SpaceInstance)4123_storage": {
        "encoding": "inplace",
        "label": "struct Core.SpaceInstance",
        "members": [
          {
            "astId": 4118,
            "contract": "contracts/DBNS.sol:DBNS",
            "label": "gatedContract",
            "offset": 0,
            "slot": "0",
            "type": "t_address"
          },
          {
            "astId": 4120,
            "contract": "contracts/DBNS.sol:DBNS",
            "label": "price",
            "offset": 0,
            "slot": "1",
            "type": "t_uint256"
          },
          {
            "astId": 4122,
            "contract": "contracts/DBNS.sol:DBNS",
            "label": "creator",
            "offset": 0,
            "slot": "2",
            "type": "t_address"
          }
        ],
        "numberOfBytes": "96"
      },
      "t_uint256": {
        "encoding": "inplace",
        "label": "uint256",
        "numberOfBytes": "32"
      }
    }
  }
}