{
  "address": "0x67431bB9e8a258a4f8D2085609F4138850968D79",
  "abi": [
    {
      "inputs": [
        {
          "internalType": "address",
          "name": "_nameWrapper",
          "type": "address"
        },
        {
          "internalType": "address",
          "name": "_publicResolver",
          "type": "address"
        },
        {
          "internalType": "address",
          "name": "_ERC6551Registry",
          "type": "address"
        },
        {
          "internalType": "address",
          "name": "_ERC6551Implementation",
          "type": "address"
        },
        {
          "internalType": "string",
          "name": "_name",
          "type": "string"
        },
        {
          "internalType": "string",
          "name": "_symbol",
          "type": "string"
        }
      ],
      "stateMutability": "nonpayable",
      "type": "constructor"
    },
    {
      "inputs": [],
      "name": "AllTokensMinted",
      "type": "error"
    },
    {
      "inputs": [],
      "name": "CallMintCharacter",
      "type": "error"
    },
    {
      "inputs": [],
      "name": "CallMintCharacterWhitelist",
      "type": "error"
    },
    {
      "inputs": [],
      "name": "CannotTransferToTokenERC6551",
      "type": "error"
    },
    {
      "inputs": [],
      "name": "InsufficientFunds",
      "type": "error"
    },
    {
      "inputs": [],
      "name": "InvalidMerkleProof",
      "type": "error"
    },
    {
      "inputs": [],
      "name": "InvalidTokenAmount",
      "type": "error"
    },
    {
      "inputs": [],
      "name": "InvalidTokenID",
      "type": "error"
    },
    {
      "inputs": [],
      "name": "InvalidTokenSender",
      "type": "error"
    },
    {
      "inputs": [],
      "name": "MaxOneTokenPerAddress",
      "type": "error"
    },
    {
      "inputs": [],
      "name": "NonExistentToken",
      "type": "error"
    },
    {
      "inputs": [],
      "name": "NotTokenOwner",
      "type": "error"
    },
    {
      "inputs": [],
      "name": "OnlyOneERC721TokenAllowed",
      "type": "error"
    },
    {
      "inputs": [],
      "name": "OnlyTBAsThatOwnTheCharacterForThatAsset",
      "type": "error"
    },
    {
      "anonymous": false,
      "inputs": [
        {
          "indexed": true,
          "internalType": "address",
          "name": "owner",
          "type": "address"
        },
        {
          "indexed": true,
          "internalType": "address",
          "name": "approved",
          "type": "address"
        },
        {
          "indexed": true,
          "internalType": "uint256",
          "name": "tokenId",
          "type": "uint256"
        }
      ],
      "name": "Approval",
      "type": "event"
    },
    {
      "anonymous": false,
      "inputs": [
        {
          "indexed": true,
          "internalType": "address",
          "name": "owner",
          "type": "address"
        },
        {
          "indexed": true,
          "internalType": "address",
          "name": "operator",
          "type": "address"
        },
        {
          "indexed": false,
          "internalType": "bool",
          "name": "approved",
          "type": "bool"
        }
      ],
      "name": "ApprovalForAll",
      "type": "event"
    },
    {
      "anonymous": false,
      "inputs": [
        {
          "indexed": false,
          "internalType": "bytes32",
          "name": "node",
          "type": "bytes32"
        },
        {
          "indexed": false,
          "internalType": "address",
          "name": "account",
          "type": "address"
        }
      ],
      "name": "Decrypted",
      "type": "event"
    },
    {
      "anonymous": false,
      "inputs": [
        {
          "indexed": true,
          "internalType": "address",
          "name": "previousOwner",
          "type": "address"
        },
        {
          "indexed": true,
          "internalType": "address",
          "name": "newOwner",
          "type": "address"
        }
      ],
      "name": "OwnershipTransferred",
      "type": "event"
    },
    {
      "anonymous": false,
      "inputs": [
        {
          "indexed": false,
          "internalType": "string",
          "name": "name",
          "type": "string"
        },
        {
          "indexed": false,
          "internalType": "bytes32",
          "name": "node",
          "type": "bytes32"
        },
        {
          "indexed": false,
          "internalType": "bytes32",
          "name": "parentNode",
          "type": "bytes32"
        },
        {
          "indexed": false,
          "internalType": "uint256",
          "name": "maxSupply",
          "type": "uint256"
        },
        {
          "indexed": false,
          "internalType": "uint256",
          "name": "price",
          "type": "uint256"
        },
        {
          "indexed": false,
          "internalType": "enum Tokemon.TokenType",
          "name": "tokenType",
          "type": "uint8"
        }
      ],
      "name": "TokenCreated",
      "type": "event"
    },
    {
      "anonymous": false,
      "inputs": [
        {
          "indexed": false,
          "internalType": "bytes32",
          "name": "node",
          "type": "bytes32"
        },
        {
          "indexed": false,
          "internalType": "bytes32",
          "name": "parentNode",
          "type": "bytes32"
        },
        {
          "indexed": false,
          "internalType": "address",
          "name": "account",
          "type": "address"
        },
        {
          "indexed": false,
          "internalType": "enum Tokemon.TokenType",
          "name": "tokenType",
          "type": "uint8"
        }
      ],
      "name": "TokenMinted",
      "type": "event"
    },
    {
      "anonymous": false,
      "inputs": [
        {
          "indexed": true,
          "internalType": "address",
          "name": "from",
          "type": "address"
        },
        {
          "indexed": true,
          "internalType": "address",
          "name": "to",
          "type": "address"
        },
        {
          "indexed": true,
          "internalType": "uint256",
          "name": "tokenId",
          "type": "uint256"
        }
      ],
      "name": "Transfer",
      "type": "event"
    },
    {
      "inputs": [],
      "name": "ERC6551Implementation",
      "outputs": [
        {
          "internalType": "address",
          "name": "",
          "type": "address"
        }
      ],
      "stateMutability": "view",
      "type": "function"
    },
    {
      "inputs": [],
      "name": "ERC6551Registry",
      "outputs": [
        {
          "internalType": "contract IERC6551Registry",
          "name": "",
          "type": "address"
        }
      ],
      "stateMutability": "view",
      "type": "function"
    },
    {
      "inputs": [],
      "name": "NAME_WRAPPER",
      "outputs": [
        {
          "internalType": "contract INameWrapper",
          "name": "",
          "type": "address"
        }
      ],
      "stateMutability": "view",
      "type": "function"
    },
    {
      "inputs": [],
      "name": "PUBLIC_RESOLVER",
      "outputs": [
        {
          "internalType": "contract IENSResolver",
          "name": "",
          "type": "address"
        }
      ],
      "stateMutability": "view",
      "type": "function"
    },
    {
      "inputs": [
        {
          "internalType": "address",
          "name": "to",
          "type": "address"
        },
        {
          "internalType": "uint256",
          "name": "tokenId",
          "type": "uint256"
        }
      ],
      "name": "approve",
      "outputs": [],
      "stateMutability": "nonpayable",
      "type": "function"
    },
    {
      "inputs": [
        {
          "internalType": "address",
          "name": "owner",
          "type": "address"
        }
      ],
      "name": "balanceOf",
      "outputs": [
        {
          "internalType": "uint256",
          "name": "",
          "type": "uint256"
        }
      ],
      "stateMutability": "view",
      "type": "function"
    },
    {
      "inputs": [],
      "name": "baseGamingENSNode",
      "outputs": [
        {
          "internalType": "bytes32",
          "name": "",
          "type": "bytes32"
        }
      ],
      "stateMutability": "view",
      "type": "function"
    },
    {
      "inputs": [],
      "name": "baseGamingENSTokenID",
      "outputs": [
        {
          "internalType": "uint256",
          "name": "",
          "type": "uint256"
        }
      ],
      "stateMutability": "view",
      "type": "function"
    },
    {
      "inputs": [
        {
          "internalType": "bytes32",
          "name": "assetForCharacterNode",
          "type": "bytes32"
        },
        {
          "internalType": "string",
          "name": "_name",
          "type": "string"
        },
        {
          "internalType": "string",
          "name": "_value",
          "type": "string"
        },
        {
          "internalType": "uint256",
          "name": "_maxSupply",
          "type": "uint256"
        },
        {
          "internalType": "uint256",
          "name": "_price",
          "type": "uint256"
        }
      ],
      "name": "createAsset",
      "outputs": [],
      "stateMutability": "nonpayable",
      "type": "function"
    },
    {
      "inputs": [
        {
          "internalType": "string",
          "name": "_name",
          "type": "string"
        },
        {
          "internalType": "string",
          "name": "_value",
          "type": "string"
        },
        {
          "internalType": "uint256",
          "name": "_maxSupply",
          "type": "uint256"
        },
        {
          "internalType": "uint256",
          "name": "_price",
          "type": "uint256"
        }
      ],
      "name": "createCharacter",
      "outputs": [],
      "stateMutability": "nonpayable",
      "type": "function"
    },
    {
      "inputs": [
        {
          "internalType": "bytes32",
          "name": "_node",
          "type": "bytes32"
        }
      ],
      "name": "decrypt",
      "outputs": [],
      "stateMutability": "nonpayable",
      "type": "function"
    },
    {
      "inputs": [
        {
          "internalType": "bytes32",
          "name": "",
          "type": "bytes32"
        }
      ],
      "name": "decrypted",
      "outputs": [
        {
          "internalType": "bool",
          "name": "",
          "type": "bool"
        }
      ],
      "stateMutability": "view",
      "type": "function"
    },
    {
      "inputs": [
        {
          "internalType": "uint256",
          "name": "tokenId",
          "type": "uint256"
        }
      ],
      "name": "getApproved",
      "outputs": [
        {
          "internalType": "address",
          "name": "",
          "type": "address"
        }
      ],
      "stateMutability": "view",
      "type": "function"
    },
    {
      "inputs": [
        {
          "internalType": "bytes32",
          "name": "_tokenNode",
          "type": "bytes32"
        },
        {
          "internalType": "address",
          "name": "_account",
          "type": "address"
        }
      ],
      "name": "hasAccess",
      "outputs": [
        {
          "internalType": "bool",
          "name": "_hasAccess",
          "type": "bool"
        }
      ],
      "stateMutability": "view",
      "type": "function"
    },
    {
      "inputs": [
        {
          "internalType": "address",
          "name": "owner",
          "type": "address"
        },
        {
          "internalType": "address",
          "name": "operator",
          "type": "address"
        }
      ],
      "name": "isApprovedForAll",
      "outputs": [
        {
          "internalType": "bool",
          "name": "",
          "type": "bool"
        }
      ],
      "stateMutability": "view",
      "type": "function"
    },
    {
      "inputs": [
        {
          "internalType": "bytes32",
          "name": "_node",
          "type": "bytes32"
        }
      ],
      "name": "mintAsset",
      "outputs": [],
      "stateMutability": "payable",
      "type": "function"
    },
    {
      "inputs": [
        {
          "internalType": "bytes32",
          "name": "_node",
          "type": "bytes32"
        }
      ],
      "name": "mintCharacter",
      "outputs": [],
      "stateMutability": "payable",
      "type": "function"
    },
    {
      "inputs": [],
      "name": "name",
      "outputs": [
        {
          "internalType": "string",
          "name": "",
          "type": "string"
        }
      ],
      "stateMutability": "view",
      "type": "function"
    },
    {
      "inputs": [
        {
          "internalType": "address",
          "name": "",
          "type": "address"
        },
        {
          "internalType": "address",
          "name": "",
          "type": "address"
        },
        {
          "internalType": "uint256[]",
          "name": "",
          "type": "uint256[]"
        },
        {
          "internalType": "uint256[]",
          "name": "",
          "type": "uint256[]"
        },
        {
          "internalType": "bytes",
          "name": "",
          "type": "bytes"
        }
      ],
      "name": "onERC1155BatchReceived",
      "outputs": [
        {
          "internalType": "bytes4",
          "name": "",
          "type": "bytes4"
        }
      ],
      "stateMutability": "pure",
      "type": "function"
    },
    {
      "inputs": [
        {
          "internalType": "address",
          "name": "",
          "type": "address"
        },
        {
          "internalType": "address",
          "name": "",
          "type": "address"
        },
        {
          "internalType": "uint256",
          "name": "tokenId",
          "type": "uint256"
        },
        {
          "internalType": "uint256",
          "name": "value",
          "type": "uint256"
        },
        {
          "internalType": "bytes",
          "name": "",
          "type": "bytes"
        }
      ],
      "name": "onERC1155Received",
      "outputs": [
        {
          "internalType": "bytes4",
          "name": "",
          "type": "bytes4"
        }
      ],
      "stateMutability": "nonpayable",
      "type": "function"
    },
    {
      "inputs": [],
      "name": "owner",
      "outputs": [
        {
          "internalType": "address",
          "name": "",
          "type": "address"
        }
      ],
      "stateMutability": "view",
      "type": "function"
    },
    {
      "inputs": [
        {
          "internalType": "uint256",
          "name": "tokenId",
          "type": "uint256"
        }
      ],
      "name": "ownerOf",
      "outputs": [
        {
          "internalType": "address",
          "name": "",
          "type": "address"
        }
      ],
      "stateMutability": "view",
      "type": "function"
    },
    {
      "inputs": [],
      "name": "renounceOwnership",
      "outputs": [],
      "stateMutability": "nonpayable",
      "type": "function"
    },
    {
      "inputs": [
        {
          "internalType": "address",
          "name": "from",
          "type": "address"
        },
        {
          "internalType": "address",
          "name": "to",
          "type": "address"
        },
        {
          "internalType": "uint256",
          "name": "tokenId",
          "type": "uint256"
        }
      ],
      "name": "safeTransferFrom",
      "outputs": [],
      "stateMutability": "nonpayable",
      "type": "function"
    },
    {
      "inputs": [
        {
          "internalType": "address",
          "name": "from",
          "type": "address"
        },
        {
          "internalType": "address",
          "name": "to",
          "type": "address"
        },
        {
          "internalType": "uint256",
          "name": "tokenId",
          "type": "uint256"
        },
        {
          "internalType": "bytes",
          "name": "data",
          "type": "bytes"
        }
      ],
      "name": "safeTransferFrom",
      "outputs": [],
      "stateMutability": "nonpayable",
      "type": "function"
    },
    {
      "inputs": [
        {
          "internalType": "address",
          "name": "operator",
          "type": "address"
        },
        {
          "internalType": "bool",
          "name": "approved",
          "type": "bool"
        }
      ],
      "name": "setApprovalForAll",
      "outputs": [],
      "stateMutability": "nonpayable",
      "type": "function"
    },
    {
      "inputs": [
        {
          "internalType": "bytes4",
          "name": "interfaceId",
          "type": "bytes4"
        }
      ],
      "name": "supportsInterface",
      "outputs": [
        {
          "internalType": "bool",
          "name": "",
          "type": "bool"
        }
      ],
      "stateMutability": "pure",
      "type": "function"
    },
    {
      "inputs": [],
      "name": "symbol",
      "outputs": [
        {
          "internalType": "string",
          "name": "",
          "type": "string"
        }
      ],
      "stateMutability": "view",
      "type": "function"
    },
    {
      "inputs": [
        {
          "internalType": "uint256",
          "name": "_tokenID",
          "type": "uint256"
        }
      ],
      "name": "tokenURI",
      "outputs": [
        {
          "internalType": "string",
          "name": "",
          "type": "string"
        }
      ],
      "stateMutability": "view",
      "type": "function"
    },
    {
      "inputs": [
        {
          "internalType": "bytes32",
          "name": "",
          "type": "bytes32"
        }
      ],
      "name": "tokens",
      "outputs": [
        {
          "internalType": "enum Tokemon.TokenType",
          "name": "tokenType",
          "type": "uint8"
        },
        {
          "internalType": "string",
          "name": "name",
          "type": "string"
        },
        {
          "internalType": "uint256",
          "name": "maxSupply",
          "type": "uint256"
        },
        {
          "internalType": "uint256",
          "name": "currentID",
          "type": "uint256"
        },
        {
          "internalType": "uint256",
          "name": "price",
          "type": "uint256"
        }
      ],
      "stateMutability": "view",
      "type": "function"
    },
    {
      "inputs": [
        {
          "internalType": "address",
          "name": "recipient",
          "type": "address"
        }
      ],
      "name": "transferDomain",
      "outputs": [],
      "stateMutability": "nonpayable",
      "type": "function"
    },
    {
      "inputs": [
        {
          "internalType": "address",
          "name": "from",
          "type": "address"
        },
        {
          "internalType": "address",
          "name": "to",
          "type": "address"
        },
        {
          "internalType": "uint256",
          "name": "tokenId",
          "type": "uint256"
        }
      ],
      "name": "transferFrom",
      "outputs": [],
      "stateMutability": "nonpayable",
      "type": "function"
    },
    {
      "inputs": [
        {
          "internalType": "address",
          "name": "newOwner",
          "type": "address"
        }
      ],
      "name": "transferOwnership",
      "outputs": [],
      "stateMutability": "nonpayable",
      "type": "function"
    },
    {
      "inputs": [
        {
          "internalType": "address",
          "name": "_ERC6551Registry",
          "type": "address"
        },
        {
          "internalType": "address",
          "name": "_ERC6551Implementation",
          "type": "address"
        }
      ],
      "name": "updateERC6551Contracts",
      "outputs": [],
      "stateMutability": "nonpayable",
      "type": "function"
    }
  ],
  "transactionHash": "0x28c5e11f67df014019f481e64e2537724d78ebc9f43b2f4dbdfcac51fe73e365",
  "args": [
    "0x114D4603199df73e7D157787f8778E21fCd13066",
    "0xd7a4F6473f32aC2Af804B3686AE8F1932bC35750",
    "0x000000006551c19487814612e58FE06813775758",
    "0x41C8f39463A868d3A88af00cd0fe7102F30E44eC",
    "tokemon",
    "TKMN"
  ],
  "numDeployments": 9,
  "solcInputHash": "5833dcb1d37bbacda064bab911359f7a",
  "bytecode": "0x60c0604052466007553480156200001557600080fd5b50604051620038b1380380620038b18339810160408190526200003891620001e3565b85858585858581816200004b33620000b1565b600162000059838262000326565b50600262000068828262000326565b5050506001600160a01b03958616608052505091831660a052600880549184166001600160a01b03199283161790556009805492909316911617905550620003f2945050505050565b600080546001600160a01b038381166001600160a01b0319831681178455604051919092169283917f8be0079c531659141344cd1fd0a4f28419497f9722a3daafe3b4186f6b6457e09190a35050565b80516001600160a01b03811681146200011957600080fd5b919050565b634e487b7160e01b600052604160045260246000fd5b600082601f8301126200014657600080fd5b81516001600160401b03808211156200016357620001636200011e565b604051601f8301601f19908116603f011681019082821181831017156200018e576200018e6200011e565b81604052838152602092508683858801011115620001ab57600080fd5b600091505b83821015620001cf5785820183015181830184015290820190620001b0565b600093810190920192909252949350505050565b60008060008060008060c08789031215620001fd57600080fd5b620002088762000101565b9550620002186020880162000101565b9450620002286040880162000101565b9350620002386060880162000101565b60808801519093506001600160401b03808211156200025657600080fd5b620002648a838b0162000134565b935060a08901519150808211156200027b57600080fd5b506200028a89828a0162000134565b9150509295509295509295565b600181811c90821680620002ac57607f821691505b602082108103620002cd57634e487b7160e01b600052602260045260246000fd5b50919050565b601f8211156200032157600081815260208120601f850160051c81016020861015620002fc5750805b601f850160051c820191505b818110156200031d5782815560010162000308565b5050505b505050565b81516001600160401b038111156200034257620003426200011e565b6200035a8162000353845462000297565b84620002d3565b602080601f831160018114620003925760008415620003795750858301515b600019600386901b1c1916600185901b1785556200031d565b600085815260208120601f198616915b82811015620003c357888601518255948401946001909101908401620003a2565b5085821015620003e25787850151600019600388901b60f8161c191681555b5050505050600190811b01905550565b60805160a05161344c62000465600039600081816106ac01528181610b430152818161106a01528181611479015281816116900152611e4f0152600081816102d201528181611109015281816113ef0152818161180201528181611b7501528181611bfb0152611e1c015261344c6000f3fe6080604052600436106101f95760003560e01c80638da5cb5b1161010d578063c87b56dd116100a0578063eb9da6141161006f578063eb9da61414610624578063f23a6e611461063a578063f2fde38b1461065a578063fde114191461067a578063ffeb4a301461069a57600080fd5b8063c87b56dd1461057b578063c8c59d061461059b578063db0979d8146105bb578063e985e9c5146105db57600080fd5b8063a22cb465116100dc578063a22cb465146104e7578063adbcef1114610507578063b88d4fde14610527578063bc197c811461054757600080fd5b80638da5cb5b14610463578063904194a31461048157806395d89b41146104b25780639fc137e0146104c757600080fd5b8063329c8cda116101905780636352211e1161015f5780636352211e146103ce57806370a08231146103ee578063715018a61461040e578063822118461461042357806383177db31461044357600080fd5b8063329c8cda1461034b57806342842e0e1461036b5780634838fbac1461038b578063620144951461039e57600080fd5b8063192cf07d116101cc578063192cf07d146102c057806323b872dd146102f45780632b79d5d3146103145780632bcfe4a91461032757600080fd5b806301ffc9a7146101fe57806306fdde0314610244578063081812fc14610266578063095ea7b31461029e575b600080fd5b34801561020a57600080fd5b5061022f6102193660046128c9565b6001600160e01b031916630271189760e51b1490565b60405190151581526020015b60405180910390f35b34801561025057600080fd5b506102596106ce565b60405161023b9190612936565b34801561027257600080fd5b50610286610281366004612949565b610760565b6040516001600160a01b03909116815260200161023b565b3480156102aa57600080fd5b506102be6102b9366004612977565b610787565b005b3480156102cc57600080fd5b506102867f000000000000000000000000000000000000000000000000000000000000000081565b34801561030057600080fd5b506102be61030f3660046129a3565b6108a1565b6102be610322366004612949565b610913565b34801561033357600080fd5b5061033d600b5481565b60405190815260200161023b565b34801561035757600080fd5b506102be610366366004612aaf565b610b13565b34801561037757600080fd5b506102be6103863660046129a3565b610c9a565b6102be610399366004612949565b610cb5565b3480156103aa57600080fd5b5061022f6103b9366004612949565b600f6020526000908152604090205460ff1681565b3480156103da57600080fd5b506102866103e9366004612949565b610f39565b3480156103fa57600080fd5b5061033d610409366004612b22565b610f9f565b34801561041a57600080fd5b506102be611025565b34801561042f57600080fd5b506102be61043e366004612b22565b611039565b34801561044f57600080fd5b5061022f61045e366004612b3f565b61116c565b34801561046f57600080fd5b506000546001600160a01b0316610286565b34801561048d57600080fd5b506104a161049c366004612949565b6111e6565b60405161023b959493929190612ba7565b3480156104be57600080fd5b506102596112a1565b3480156104d357600080fd5b506102be6104e2366004612949565b6112b0565b3480156104f357600080fd5b506102be610502366004612be4565b611349565b34801561051357600080fd5b50600854610286906001600160a01b031681565b34801561053357600080fd5b506102be610542366004612c17565b611358565b34801561055357600080fd5b506105626101f9366004612d22565b6040516001600160e01b0319909116815260200161023b565b34801561058757600080fd5b50610259610596366004612949565b6113d1565b3480156105a757600080fd5b50600954610286906001600160a01b031681565b3480156105c757600080fd5b506102be6105d6366004612de0565b611512565b3480156105e757600080fd5b5061022f6105f6366004612e5e565b6001600160a01b03918216600090815260066020908152604080832093909416825291909152205460ff1690565b34801561063057600080fd5b5061033d600a5481565b34801561064657600080fd5b50610562610655366004612e8c565b6117f5565b34801561066657600080fd5b506102be610675366004612b22565b611889565b34801561068657600080fd5b506102be610695366004612e5e565b611902565b3480156106a657600080fd5b506102867f000000000000000000000000000000000000000000000000000000000000000081565b6060600180546106dd90612f07565b80601f016020809104026020016040519081016040528092919081815260200182805461070990612f07565b80156107565780601f1061072b57610100808354040283529160200191610756565b820191906000526020600020905b81548152906001019060200180831161073957829003601f168201915b5050505050905090565b600061076b82611938565b506000908152600560205260409020546001600160a01b031690565b600061079282610f39565b9050806001600160a01b0316836001600160a01b0316036108045760405162461bcd60e51b815260206004820152602160248201527f4552433732313a20617070726f76616c20746f2063757272656e74206f776e656044820152603960f91b60648201526084015b60405180910390fd5b336001600160a01b0382161480610820575061082081336105f6565b6108925760405162461bcd60e51b815260206004820152603d60248201527f4552433732313a20617070726f76652063616c6c6572206973206e6f7420746f60448201527f6b656e206f776e6572206f7220617070726f76656420666f7220616c6c00000060648201526084016107fb565b61089c8383611997565b505050565b6108ab8382611a05565b6108c8576040516346d8067760e11b815260040160405180910390fd5b6000818152600c602090815260408083206001600160a01b03868116855292528083208054600160ff199182161790915591861683529091208054909116905561089c838383611ab7565b6000818152600e6020526040808220815160a081019092528054829060ff16600181111561094357610943612b6f565b600181111561095457610954612b6f565b815260200160018201805461096890612f07565b80601f016020809104026020016040519081016040528092919081815260200182805461099490612f07565b80156109e15780601f106109b6576101008083540402835291602001916109e1565b820191906000526020600020905b8154815290600101906020018083116109c457829003601f168201915b505050918352505060028201546020820152600382015460408201526004909101546060909101529050600181516001811115610a2057610a20612b6f565b14610a3e57604051636aa2a93760e01b815260040160405180910390fd5b610a4782611ae8565b15610a65576040516321950f8960e21b815260040160405180910390fd5b6060810151610a748382611cb0565b6000610a8884610a8384611d70565b611e02565b905080610a953382611ec7565b6000858152600c602090815260408083203384529091529020805460ff1916600117905560608401805190610ac982612f57565b815250507f2184cb358304bd67d5aeddbbce48951dfb1153d8db22b4337433def83909a3bf828660006001604051610b049493929190612f70565b60405180910390a15050505050565b610b1b612052565b6000610b29600b5486611e02565b60405163043c4ea360e21b81529091506001600160a01b037f000000000000000000000000000000000000000000000000000000000000000016906310f13a8c90610b7a9084908890600401612fa3565b600060405180830381600087803b158015610b9457600080fd5b505af1158015610ba8573d6000803e3d6000fd5b505050506040518060a0016040528060006001811115610bca57610bca612b6f565b81526020018681526020018481526020016001815260200183815250600e600083815260200190815260200160002060008201518160000160006101000a81548160ff02191690836001811115610c2357610c23612b6f565b021790555060208201516001820190610c3c908261302c565b506040820151816002015560608201518160030155608082015181600401559050507fabad37c018660310ba1eaaa17a7e59eac7d485d3d6f3f550c12aa28c3d8327d58582600b5486866000604051610b04969594939291906130eb565b61089c83838360405180602001604052806000815250611358565b6000818152600e6020526040808220815160a081019092528054829060ff166001811115610ce557610ce5612b6f565b6001811115610cf657610cf6612b6f565b8152602001600182018054610d0a90612f07565b80601f0160208091040260200160405190810160405280929190818152602001828054610d3690612f07565b8015610d835780601f10610d5857610100808354040283529160200191610d83565b820191906000526020600020905b815481529060010190602001808311610d6657829003601f168201915b505050918352505060028201546020820152600382015460408201526004909101546060909101529050600081516001811115610dc257610dc2612b6f565b14610de057604051636aa2a93760e01b815260040160405180910390fd5b6060810151610def8382611cb0565b6000610dfe84610a8384611d70565b905080610e0b3382611ec7565b600854600954600754604051638a54c52f60e01b81526001600160a01b03928316600482015260006024820181905260448201929092523060648201526084810185905290929190911690638a54c52f9060a4016020604051808303816000875af1158015610e7e573d6000803e3d6000fd5b505050506040513d601f19601f82011682018060405250810190610ea29190613130565b6000878152600d60209081526040808320338085529083528184208890558a8452600c83528184209084529091529020805460ff19166001179055606086018051919250610eef82612f57565b815250507f2184cb358304bd67d5aeddbbce48951dfb1153d8db22b4337433def83909a3bf8387836000604051610f299493929190612f70565b60405180910390a1505050505050565b6000818152600360205260408120546001600160a01b031680610f995760405162461bcd60e51b8152602060048201526018602482015277115490cdcc8c4e881a5b9d985b1a59081d1bdad95b88125160421b60448201526064016107fb565b92915050565b60006001600160a01b0382166110095760405162461bcd60e51b815260206004820152602960248201527f4552433732313a2061646472657373207a65726f206973206e6f7420612076616044820152683634b21037bbb732b960b91b60648201526084016107fb565b506001600160a01b031660009081526004602052604090205490565b61102d612052565b61103760006120ac565b565b611041612052565b600b5460405162d5fa2b60e81b815260048101919091526001600160a01b0382811660248301527f0000000000000000000000000000000000000000000000000000000000000000169063d5fa2b0090604401600060405180830381600087803b1580156110ae57600080fd5b505af11580156110c2573d6000803e3d6000fd5b5050600a54604051637921219560e11b81523060048201526001600160a01b03858116602483015260448201929092526001606482015260a06084820152600060a48201527f0000000000000000000000000000000000000000000000000000000000000000909116925063f242432a915060c401600060405180830381600087803b15801561115157600080fd5b505af1158015611165573d6000803e3d6000fd5b5050505050565b6000828152600d602090815260408083206001600160a01b03851684529091528120548061119e576000915050610f99565b6000848152600c602090815260408083206001600160a01b038716845290915290205460ff1680156111de57506000818152600f602052604090205460ff165b949350505050565b600e602052600090815260409020805460018201805460ff909216929161120c90612f07565b80601f016020809104026020016040519081016040528092919081815260200182805461123890612f07565b80156112855780601f1061125a57610100808354040283529160200191611285565b820191906000526020600020905b81548152906001019060200180831161126857829003601f168201915b5050505050908060020154908060030154908060040154905085565b6060600280546106dd90612f07565b336112ba82610f39565b6001600160a01b0316146112e1576040516359dc379f60e01b815260040160405180910390fd5b6000818152600f602052604090819020805460ff19166001179055517f96f608e449dd99cb90e1ce2905957b1d6347c80a37fe2d73d40a41501777177b9061133e90839033909182526001600160a01b0316602082015260400190565b60405180910390a150565b6113543383836120fc565b5050565b6113628483611a05565b61137f576040516346d8067760e11b815260040160405180910390fd5b6000828152600c602090815260408083206001600160a01b03878116855292528083208054600160ff19918216179091559187168352909120805490911690556113cb848484846121ca565b50505050565b6040516320c38e2b60e01b81526004810182905260609082906000907f00000000000000000000000000000000000000000000000000000000000000006001600160a01b0316906320c38e2b90602401600060405180830381865afa15801561143e573d6000803e3d6000fd5b505050506040513d6000823e601f3d908101601f19168201604052611466919081019061317d565b90506000611473826121fc565b905060007f00000000000000000000000000000000000000000000000000000000000000006001600160a01b03166359d1d43c836040518263ffffffff1660e01b81526004016114c391906131c5565b600060405180830381865afa1580156114e0573d6000803e3d6000fd5b505050506040513d6000823e601f3d908101601f19168201604052611508919081019061317d565b9695505050505050565b61151a612052565b6000858152600e6020526040808220815160a081019092528054829060ff16600181111561154a5761154a612b6f565b600181111561155b5761155b612b6f565b815260200160018201805461156f90612f07565b80601f016020809104026020016040519081016040528092919081815260200182805461159b90612f07565b80156115e85780601f106115bd576101008083540402835291602001916115e8565b820191906000526020600020905b8154815290600101906020018083116115cb57829003601f168201915b50505091835250506002820154602082015260038201546040820152600490910154606090910152905060008151600181111561162757611627612b6f565b1461164557604051636aa2a93760e01b815260040160405180910390fd5b806060015160000361166a57604051634a1850bf60e11b815260040160405180910390fd5b60006116768787611e02565b60405163043c4ea360e21b81529091506001600160a01b037f000000000000000000000000000000000000000000000000000000000000000016906310f13a8c906116c79084908990600401612fa3565b600060405180830381600087803b1580156116e157600080fd5b505af11580156116f5573d6000803e3d6000fd5b505050506040518060a0016040528060018081111561171657611716612b6f565b81526020018781526020018581526020016001815260200184815250600e600083815260200190815260200160002060008201518160000160006101000a81548160ff0219169083600181111561176f5761176f612b6f565b021790555060208201516001820190611788908261302c565b506040820151816002015560608201518160030155608082015181600401559050507fabad37c018660310ba1eaaa17a7e59eac7d485d3d6f3f550c12aa28c3d8327d5868289878760016040516117e4969594939291906130eb565b60405180910390a150505050505050565b6000336001600160a01b037f0000000000000000000000000000000000000000000000000000000000000000161461184057604051634a93b62160e11b815260040160405180910390fd5b8360011461186157604051632160733960e01b815260040160405180910390fd5b600a5460000361187657600a859055600b8590555b5063f23a6e6160e01b9695505050505050565b611891612052565b6001600160a01b0381166118f65760405162461bcd60e51b815260206004820152602660248201527f4f776e61626c653a206e6577206f776e657220697320746865207a65726f206160448201526564647265737360d01b60648201526084016107fb565b6118ff816120ac565b50565b61190a612052565b600880546001600160a01b039384166001600160a01b03199182161790915560098054929093169116179055565b6000818152600360205260409020546001600160a01b03166118ff5760405162461bcd60e51b8152602060048201526018602482015277115490cdcc8c4e881a5b9d985b1a59081d1bdad95b88125160421b60448201526064016107fb565b600081815260056020526040902080546001600160a01b0319166001600160a01b03841690811790915581906119cc82610f39565b6001600160a01b03167f8c5be1e5ebec7d5bd14f71427d1e84f3dd0314c0f7b2291e5b200ac8c7c3b92560405160405180910390a45050565b6000826001600160a01b03163b60ad14611a2157506001610f99565b6000611a2c84612219565b9050806001600160a01b03163b600003611a4a576001915050610f99565b6009546001600160a01b03828116911614611a69576000915050610f99565b600080611a758661222b565b909450925050506001600160a01b0382163014611a985760019350505050610f99565b848114611aab5760019350505050610f99565b50600195945050505050565b611ac13382612283565b611add5760405162461bcd60e51b81526004016107fb906131ee565b61089c838383612301565b60003360ad813b14611afd5750600092915050565b6000611b0882612219565b9050806001600160a01b03163b600003611b26575060009392505050565b6009546001600160a01b03828116911614611b45575060009392505050565b600080611b518461222b565b6040516320c38e2b60e01b815260048101829052919550935060009250611bf291507f00000000000000000000000000000000000000000000000000000000000000006001600160a01b0316906320c38e2b906024015b600060405180830381865afa158015611bc5573d6000803e3d6000fd5b505050506040513d6000823e601f3d908101601f19168201604052611bed919081019061317d565b6121fc565b90506000611c477f00000000000000000000000000000000000000000000000000000000000000006001600160a01b03166320c38e2b8a6040518263ffffffff1660e01b8152600401611ba891815260200190565b600854600954600754929350611c71926001600160a01b0392831692909116906000908888612465565b6001600160a01b0316866001600160a01b0316148015611c9057508082145b8015611ca457506001600160a01b03841630145b98975050505050505050565b6000828152600e6020526040902060040154341015611ce25760405163356680b760e01b815260040160405180910390fd5b6000828152600c6020908152604080832033845290915290205460ff1615611d1d576040516350c3f0c160e11b815260040160405180910390fd5b80600003611d3e57604051634a1850bf60e11b815260040160405180910390fd5b6000828152600e602052604090206002015481111561135457604051634db085a760e01b815260040160405180910390fd5b60606000611d7d836124e3565b60010190506000816001600160401b03811115611d9c57611d9c6129e4565b6040519080825280601f01601f191660200182016040528015611dc6576020820181803683370190505b5090508181016020015b600019016f181899199a1a9b1b9c1cb0b131b232b360811b600a86061a8153600a8504945084611dd057509392505050565b6040516309306bd160e21b81526000906001600160a01b037f000000000000000000000000000000000000000000000000000000000000000016906324c1af4490611e7d908690869030907f00000000000000000000000000000000000000000000000000000000000000009088908190819060040161323b565b6020604051808303816000875af1158015611e9c573d6000803e3d6000fd5b505050506040513d601f19601f82011682018060405250810190611ec0919061329b565b9392505050565b6001600160a01b038216611f1d5760405162461bcd60e51b815260206004820181905260248201527f4552433732313a206d696e7420746f20746865207a65726f206164647265737360448201526064016107fb565b6000818152600360205260409020546001600160a01b031615611f825760405162461bcd60e51b815260206004820152601c60248201527f4552433732313a20746f6b656e20616c7265616479206d696e7465640000000060448201526064016107fb565b6000818152600360205260409020546001600160a01b031615611fe75760405162461bcd60e51b815260206004820152601c60248201527f4552433732313a20746f6b656e20616c7265616479206d696e7465640000000060448201526064016107fb565b6001600160a01b038216600081815260046020908152604080832080546001019055848352600390915280822080546001600160a01b0319168417905551839291907fddf252ad1be2c89b69c2b068fc378daa952ba7f163c4a11628f55a4df523b3ef908290a45050565b6000546001600160a01b031633146110375760405162461bcd60e51b815260206004820181905260248201527f4f776e61626c653a2063616c6c6572206973206e6f7420746865206f776e657260448201526064016107fb565b600080546001600160a01b038381166001600160a01b0319831681178455604051919092169283917f8be0079c531659141344cd1fd0a4f28419497f9722a3daafe3b4186f6b6457e09190a35050565b816001600160a01b0316836001600160a01b03160361215d5760405162461bcd60e51b815260206004820152601960248201527f4552433732313a20617070726f766520746f2063616c6c65720000000000000060448201526064016107fb565b6001600160a01b03838116600081815260066020908152604080832094871680845294825291829020805460ff191686151590811790915591519182527f17307eab39ab6107e8899845ad3d59bd9653f200f220920489ca2b5937696c31910160405180910390a3505050565b6121d43383612283565b6121f05760405162461bcd60e51b81526004016107fb906131ee565b6113cb848484846125bb565b60008061220a8360006125ee565b91505060006111de84836126a5565b60006014600a600c843c505060005190565b60408051608080825260a0820190925260009182918291829182916020820181803683370190505090506080602d60208301883c8080602001905181019061227391906132b4565b9450945094509450509193509193565b60008061228f83610f39565b9050806001600160a01b0316846001600160a01b031614806122d657506001600160a01b0380821660009081526006602090815260408083209388168352929052205460ff165b806111de5750836001600160a01b03166122ef84610760565b6001600160a01b031614949350505050565b826001600160a01b031661231482610f39565b6001600160a01b03161461233a5760405162461bcd60e51b81526004016107fb906132f3565b6001600160a01b03821661239c5760405162461bcd60e51b8152602060048201526024808201527f4552433732313a207472616e7366657220746f20746865207a65726f206164646044820152637265737360e01b60648201526084016107fb565b826001600160a01b03166123af82610f39565b6001600160a01b0316146123d55760405162461bcd60e51b81526004016107fb906132f3565b600081815260056020908152604080832080546001600160a01b03199081169091556001600160a01b0387811680865260048552838620805460001901905590871680865283862080546001019055868652600390945282852080549092168417909155905184937fddf252ad1be2c89b69c2b068fc378daa952ba7f163c4a11628f55a4df523b3ef91a4505050565b6040805160b78082018490526001600160a01b038516609783015260778201869052605782018790526e5af43d82803e903d91602b57fd5bf3603783015260288201889052733d60ad80600a3d3981f3363d3d373d3d3d363d736014830152815260d781019091528051602090910120600090611ca486828a612764565b60008072184f03e93ff9f4daa797ed6e38ed64bf6a1f0160401b83106125225772184f03e93ff9f4daa797ed6e38ed64bf6a1f0160401b830492506040015b6d04ee2d6d415b85acef8100000000831061254e576d04ee2d6d415b85acef8100000000830492506020015b662386f26fc10000831061256c57662386f26fc10000830492506010015b6305f5e1008310612584576305f5e100830492506008015b612710831061259857612710830492506004015b606483106125aa576064830492506002015b600a8310610f995760010192915050565b6125c6848484612301565b6125d28484848461278e565b6113cb5760405162461bcd60e51b81526004016107fb90613338565b600080835183106126415760405162461bcd60e51b815260206004820152601e60248201527f726561644c6162656c3a20496e646578206f7574206f6620626f756e6473000060448201526064016107fb565b60008484815181106126555761265561338a565b016020015160f81c905080156126815761267a856126748660016133a0565b8361288f565b9250612686565b600092505b61269081856133a0565b61269b9060016133a0565b9150509250929050565b60008060006126b485856125ee565b90925090508161272657600185516126cc91906133b3565b841461271a5760405162461bcd60e51b815260206004820152601d60248201527f6e616d65686173683a204a756e6b20617420656e64206f66206e616d6500000060448201526064016107fb565b5060009150610f999050565b61273085826126a5565b6040805160208101929092528101839052606001604051602081830303815290604052805190602001209250505092915050565b6000604051836040820152846020820152828152600b8101905060ff815360559020949350505050565b60006001600160a01b0384163b1561288457604051630a85bd0160e11b81526001600160a01b0385169063150b7a02906127d29033908990889088906004016133c6565b6020604051808303816000875af192505050801561280d575060408051601f3d908101601f1916820190925261280a918101906133f9565b60015b61286a573d80801561283b576040519150601f19603f3d011682016040523d82523d6000602084013e612840565b606091505b5080516000036128625760405162461bcd60e51b81526004016107fb90613338565b805181602001fd5b6001600160e01b031916630a85bd0160e11b1490506111de565b506001949350505050565b825160009061289e83856133a0565b11156128a957600080fd5b5091016020012090565b6001600160e01b0319811681146118ff57600080fd5b6000602082840312156128db57600080fd5b8135611ec0816128b3565b60005b838110156129015781810151838201526020016128e9565b50506000910152565b600081518084526129228160208601602086016128e6565b601f01601f19169290920160200192915050565b602081526000611ec0602083018461290a565b60006020828403121561295b57600080fd5b5035919050565b6001600160a01b03811681146118ff57600080fd5b6000806040838503121561298a57600080fd5b823561299581612962565b946020939093013593505050565b6000806000606084860312156129b857600080fd5b83356129c381612962565b925060208401356129d381612962565b929592945050506040919091013590565b634e487b7160e01b600052604160045260246000fd5b604051601f8201601f191681016001600160401b0381118282101715612a2257612a226129e4565b604052919050565b60006001600160401b03821115612a4357612a436129e4565b50601f01601f191660200190565b6000612a64612a5f84612a2a565b6129fa565b9050828152838383011115612a7857600080fd5b828260208301376000602084830101529392505050565b600082601f830112612aa057600080fd5b611ec083833560208501612a51565b60008060008060808587031215612ac557600080fd5b84356001600160401b0380821115612adc57600080fd5b612ae888838901612a8f565b95506020870135915080821115612afe57600080fd5b50612b0b87828801612a8f565b949794965050505060408301359260600135919050565b600060208284031215612b3457600080fd5b8135611ec081612962565b60008060408385031215612b5257600080fd5b823591506020830135612b6481612962565b809150509250929050565b634e487b7160e01b600052602160045260246000fd5b60028110612ba357634e487b7160e01b600052602160045260246000fd5b9052565b612bb18187612b85565b60a060208201526000612bc760a083018761290a565b604083019590955250606081019290925260809091015292915050565b60008060408385031215612bf757600080fd5b8235612c0281612962565b915060208301358015158114612b6457600080fd5b60008060008060808587031215612c2d57600080fd5b8435612c3881612962565b93506020850135612c4881612962565b92506040850135915060608501356001600160401b03811115612c6a57600080fd5b8501601f81018713612c7b57600080fd5b612c8a87823560208401612a51565b91505092959194509250565b60008083601f840112612ca857600080fd5b5081356001600160401b03811115612cbf57600080fd5b6020830191508360208260051b8501011115612cda57600080fd5b9250929050565b60008083601f840112612cf357600080fd5b5081356001600160401b03811115612d0a57600080fd5b602083019150836020828501011115612cda57600080fd5b60008060008060008060008060a0898b031215612d3e57600080fd5b8835612d4981612962565b97506020890135612d5981612962565b965060408901356001600160401b0380821115612d7557600080fd5b612d818c838d01612c96565b909850965060608b0135915080821115612d9a57600080fd5b612da68c838d01612c96565b909650945060808b0135915080821115612dbf57600080fd5b50612dcc8b828c01612ce1565b999c989b5096995094979396929594505050565b600080600080600060a08688031215612df857600080fd5b8535945060208601356001600160401b0380821115612e1657600080fd5b612e2289838a01612a8f565b95506040880135915080821115612e3857600080fd5b50612e4588828901612a8f565b9598949750949560608101359550608001359392505050565b60008060408385031215612e7157600080fd5b8235612e7c81612962565b91506020830135612b6481612962565b60008060008060008060a08789031215612ea557600080fd5b8635612eb081612962565b95506020870135612ec081612962565b9450604087013593506060870135925060808701356001600160401b03811115612ee957600080fd5b612ef589828a01612ce1565b979a9699509497509295939492505050565b600181811c90821680612f1b57607f821691505b602082108103612f3b57634e487b7160e01b600052602260045260246000fd5b50919050565b634e487b7160e01b600052601160045260246000fd5b600060018201612f6957612f69612f41565b5060010190565b848152602081018490526001600160a01b038316604082015260808101612f9a6060830184612b85565b95945050505050565b828152606060208201526000612fcc60608301600381526210d25160ea1b602082015260400190565b8281036040840152612f9a818561290a565b601f82111561089c57600081815260208120601f850160051c810160208610156130055750805b601f850160051c820191505b8181101561302457828155600101613011565b505050505050565b81516001600160401b03811115613045576130456129e4565b613059816130538454612f07565b84612fde565b602080601f83116001811461308e57600084156130765750858301515b600019600386901b1c1916600185901b178555613024565b600085815260208120601f198616915b828110156130bd5788860151825594840194600190910190840161309e565b50858210156130db5787850151600019600388901b60f8161c191681555b5050505050600190811b01905550565b60c0815260006130fe60c083018961290a565b905086602083015285604083015284606083015283608083015261312560a0830184612b85565b979650505050505050565b60006020828403121561314257600080fd5b8151611ec081612962565b600061315b612a5f84612a2a565b905082815283838301111561316f57600080fd5b611ec08360208301846128e6565b60006020828403121561318f57600080fd5b81516001600160401b038111156131a557600080fd5b8201601f810184136131b657600080fd5b6111de8482516020840161314d565b818152604060208201526000611ec060408301600381526210d25160ea1b602082015260400190565b6020808252602d908201527f4552433732313a2063616c6c6572206973206e6f7420746f6b656e206f776e6560408201526c1c881bdc88185c1c1c9bdd9959609a1b606082015260800190565b87815260e06020820152600061325460e083018961290a565b6001600160a01b0397881660408401529590961660608201526001600160401b03938416608082015263ffffffff9290921660a083015290911660c0909101529392505050565b6000602082840312156132ad57600080fd5b5051919050565b600080600080608085870312156132ca57600080fd5b845193506020850151925060408501516132e381612962565b6060959095015193969295505050565b60208082526025908201527f4552433732313a207472616e736665722066726f6d20696e636f72726563742060408201526437bbb732b960d91b606082015260800190565b60208082526032908201527f4552433732313a207472616e7366657220746f206e6f6e20455243373231526560408201527131b2b4bb32b91034b6b83632b6b2b73a32b960711b606082015260800190565b634e487b7160e01b600052603260045260246000fd5b80820180821115610f9957610f99612f41565b81810381811115610f9957610f99612f41565b6001600160a01b03858116825284166020820152604081018390526080606082018190526000906115089083018461290a565b60006020828403121561340b57600080fd5b8151611ec0816128b356fea26469706673582212205a1aa90952d33618f600aeec9fae96026c33e262e66f24278b32b76a6fc5808264736f6c63430008140033",
  "devdoc": {
    "events": {
      "Approval(address,address,uint256)": {
        "details": "Emitted when `owner` enables `approved` to manage the `tokenId` token."
      },
      "ApprovalForAll(address,address,bool)": {
        "details": "Emitted when `owner` enables or disables (`approved`) `operator` to manage all of its assets."
      },
      "Transfer(address,address,uint256)": {
        "details": "Emitted when `tokenId` token is transferred from `from` to `to`."
      }
    },
    "kind": "dev",
    "methods": {
      "approve(address,uint256)": {
        "details": "See {IERC721-approve}."
      },
      "balanceOf(address)": {
        "details": "See {IERC721-balanceOf}."
      },
      "getApproved(uint256)": {
        "details": "See {IERC721-getApproved}."
      },
      "isApprovedForAll(address,address)": {
        "details": "See {IERC721-isApprovedForAll}."
      },
      "name()": {
        "details": "See {IERC721Metadata-name}."
      },
      "owner()": {
        "details": "Returns the address of the current owner."
      },
      "ownerOf(uint256)": {
        "details": "See {IERC721-ownerOf}."
      },
      "renounceOwnership()": {
        "details": "Leaves the contract without owner. It will not be possible to call `onlyOwner` functions. Can only be called by the current owner. NOTE: Renouncing ownership will leave the contract without an owner, thereby disabling any functionality that is only available to the owner."
      },
      "safeTransferFrom(address,address,uint256)": {
        "details": "See {IERC721-safeTransferFrom}."
      },
      "safeTransferFrom(address,address,uint256,bytes)": {
        "details": "See {IERC721-safeTransferFrom}."
      },
      "setApprovalForAll(address,bool)": {
        "details": "See {IERC721-setApprovalForAll}."
      },
      "symbol()": {
        "details": "See {IERC721Metadata-symbol}."
      },
      "transferFrom(address,address,uint256)": {
        "details": "See {IERC721-transferFrom}."
      },
      "transferOwnership(address)": {
        "details": "Transfers ownership of the contract to a new account (`newOwner`). Can only be called by the current owner."
      }
    },
    "version": 1
  },
  "userdoc": {
    "kind": "user",
    "methods": {},
    "version": 1
  },
  "storageLayout": {
    "storage": [
      {
        "astId": 784,
        "contract": "contracts/Tokemon.sol:Tokemon",
        "label": "_owner",
        "offset": 0,
        "slot": "0",
        "type": "t_address"
      },
      {
        "astId": 1084,
        "contract": "contracts/Tokemon.sol:Tokemon",
        "label": "_name",
        "offset": 0,
        "slot": "1",
        "type": "t_string_storage"
      },
      {
        "astId": 1086,
        "contract": "contracts/Tokemon.sol:Tokemon",
        "label": "_symbol",
        "offset": 0,
        "slot": "2",
        "type": "t_string_storage"
      },
      {
        "astId": 1090,
        "contract": "contracts/Tokemon.sol:Tokemon",
        "label": "_owners",
        "offset": 0,
        "slot": "3",
        "type": "t_mapping(t_uint256,t_address)"
      },
      {
        "astId": 1094,
        "contract": "contracts/Tokemon.sol:Tokemon",
        "label": "_balances",
        "offset": 0,
        "slot": "4",
        "type": "t_mapping(t_address,t_uint256)"
      },
      {
        "astId": 1098,
        "contract": "contracts/Tokemon.sol:Tokemon",
        "label": "_tokenApprovals",
        "offset": 0,
        "slot": "5",
        "type": "t_mapping(t_uint256,t_address)"
      },
      {
        "astId": 1104,
        "contract": "contracts/Tokemon.sol:Tokemon",
        "label": "_operatorApprovals",
        "offset": 0,
        "slot": "6",
        "type": "t_mapping(t_address,t_mapping(t_address,t_bool))"
      },
      {
        "astId": 4509,
        "contract": "contracts/Tokemon.sol:Tokemon",
        "label": "CHAIN_ID",
        "offset": 0,
        "slot": "7",
        "type": "t_uint256"
      },
      {
        "astId": 4512,
        "contract": "contracts/Tokemon.sol:Tokemon",
        "label": "ERC6551Registry",
        "offset": 0,
        "slot": "8",
        "type": "t_contract(IERC6551Registry)6026"
      },
      {
        "astId": 4514,
        "contract": "contracts/Tokemon.sol:Tokemon",
        "label": "ERC6551Implementation",
        "offset": 0,
        "slot": "9",
        "type": "t_address"
      },
      {
        "astId": 4516,
        "contract": "contracts/Tokemon.sol:Tokemon",
        "label": "baseGamingENSTokenID",
        "offset": 0,
        "slot": "10",
        "type": "t_uint256"
      },
      {
        "astId": 4518,
        "contract": "contracts/Tokemon.sol:Tokemon",
        "label": "baseGamingENSNode",
        "offset": 0,
        "slot": "11",
        "type": "t_bytes32"
      },
      {
        "astId": 4524,
        "contract": "contracts/Tokemon.sol:Tokemon",
        "label": "isTokenOwner",
        "offset": 0,
        "slot": "12",
        "type": "t_mapping(t_bytes32,t_mapping(t_address,t_bool))"
      },
      {
        "astId": 4530,
        "contract": "contracts/Tokemon.sol:Tokemon",
        "label": "tokenToOwnerOfTokenNode",
        "offset": 0,
        "slot": "13",
        "type": "t_mapping(t_bytes32,t_mapping(t_address,t_bytes32))"
      },
      {
        "astId": 5039,
        "contract": "contracts/Tokemon.sol:Tokemon",
        "label": "tokens",
        "offset": 0,
        "slot": "14",
        "type": "t_mapping(t_bytes32,t_struct(Token)5034_storage)"
      },
      {
        "astId": 5043,
        "contract": "contracts/Tokemon.sol:Tokemon",
        "label": "decrypted",
        "offset": 0,
        "slot": "15",
        "type": "t_mapping(t_bytes32,t_bool)"
      }
    ],
    "types": {
      "t_address": {
        "encoding": "inplace",
        "label": "address",
        "numberOfBytes": "20"
      },
      "t_bool": {
        "encoding": "inplace",
        "label": "bool",
        "numberOfBytes": "1"
      },
      "t_bytes32": {
        "encoding": "inplace",
        "label": "bytes32",
        "numberOfBytes": "32"
      },
      "t_contract(IERC6551Registry)6026": {
        "encoding": "inplace",
        "label": "contract IERC6551Registry",
        "numberOfBytes": "20"
      },
      "t_enum(TokenType)5022": {
        "encoding": "inplace",
        "label": "enum Tokemon.TokenType",
        "numberOfBytes": "1"
      },
      "t_mapping(t_address,t_bool)": {
        "encoding": "mapping",
        "key": "t_address",
        "label": "mapping(address => bool)",
        "numberOfBytes": "32",
        "value": "t_bool"
      },
      "t_mapping(t_address,t_bytes32)": {
        "encoding": "mapping",
        "key": "t_address",
        "label": "mapping(address => bytes32)",
        "numberOfBytes": "32",
        "value": "t_bytes32"
      },
      "t_mapping(t_address,t_mapping(t_address,t_bool))": {
        "encoding": "mapping",
        "key": "t_address",
        "label": "mapping(address => mapping(address => bool))",
        "numberOfBytes": "32",
        "value": "t_mapping(t_address,t_bool)"
      },
      "t_mapping(t_address,t_uint256)": {
        "encoding": "mapping",
        "key": "t_address",
        "label": "mapping(address => uint256)",
        "numberOfBytes": "32",
        "value": "t_uint256"
      },
      "t_mapping(t_bytes32,t_bool)": {
        "encoding": "mapping",
        "key": "t_bytes32",
        "label": "mapping(bytes32 => bool)",
        "numberOfBytes": "32",
        "value": "t_bool"
      },
      "t_mapping(t_bytes32,t_mapping(t_address,t_bool))": {
        "encoding": "mapping",
        "key": "t_bytes32",
        "label": "mapping(bytes32 => mapping(address => bool))",
        "numberOfBytes": "32",
        "value": "t_mapping(t_address,t_bool)"
      },
      "t_mapping(t_bytes32,t_mapping(t_address,t_bytes32))": {
        "encoding": "mapping",
        "key": "t_bytes32",
        "label": "mapping(bytes32 => mapping(address => bytes32))",
        "numberOfBytes": "32",
        "value": "t_mapping(t_address,t_bytes32)"
      },
      "t_mapping(t_bytes32,t_struct(Token)5034_storage)": {
        "encoding": "mapping",
        "key": "t_bytes32",
        "label": "mapping(bytes32 => struct Tokemon.Token)",
        "numberOfBytes": "32",
        "value": "t_struct(Token)5034_storage"
      },
      "t_mapping(t_uint256,t_address)": {
        "encoding": "mapping",
        "key": "t_uint256",
        "label": "mapping(uint256 => address)",
        "numberOfBytes": "32",
        "value": "t_address"
      },
      "t_string_storage": {
        "encoding": "bytes",
        "label": "string",
        "numberOfBytes": "32"
      },
      "t_struct(Token)5034_storage": {
        "encoding": "inplace",
        "label": "struct Tokemon.Token",
        "members": [
          {
            "astId": 5025,
            "contract": "contracts/Tokemon.sol:Tokemon",
            "label": "tokenType",
            "offset": 0,
            "slot": "0",
            "type": "t_enum(TokenType)5022"
          },
          {
            "astId": 5027,
            "contract": "contracts/Tokemon.sol:Tokemon",
            "label": "name",
            "offset": 0,
            "slot": "1",
            "type": "t_string_storage"
          },
          {
            "astId": 5029,
            "contract": "contracts/Tokemon.sol:Tokemon",
            "label": "maxSupply",
            "offset": 0,
            "slot": "2",
            "type": "t_uint256"
          },
          {
            "astId": 5031,
            "contract": "contracts/Tokemon.sol:Tokemon",
            "label": "currentID",
            "offset": 0,
            "slot": "3",
            "type": "t_uint256"
          },
          {
            "astId": 5033,
            "contract": "contracts/Tokemon.sol:Tokemon",
            "label": "price",
            "offset": 0,
            "slot": "4",
            "type": "t_uint256"
          }
        ],
        "numberOfBytes": "160"
      },
      "t_uint256": {
        "encoding": "inplace",
        "label": "uint256",
        "numberOfBytes": "32"
      }
    }
  }
}