{
  "address": "0x1741F58771B02DF6448D2f4f62ACDbf0199Ecb6b",
  "abi": [
    {
      "inputs": [
        {
          "internalType": "address",
          "name": "_registry",
          "type": "address"
        },
        {
          "internalType": "address",
          "name": "_registrar",
          "type": "address"
        },
        {
          "internalType": "address",
          "name": "_publicResolver",
          "type": "address"
        },
        {
          "internalType": "bytes32",
          "name": "_baseNode",
          "type": "bytes32"
        },
        {
          "internalType": "address",
          "name": "_gateImplementation",
          "type": "address"
        }
      ],
      "stateMutability": "nonpayable",
      "type": "constructor"
    },
    {
      "inputs": [
        {
          "internalType": "uint256",
          "name": "chainid",
          "type": "uint256"
        }
      ],
      "name": "ChainNotSupported",
      "type": "error"
    },
    {
      "inputs": [],
      "name": "InstanceAlreadyExists",
      "type": "error"
    },
    {
      "inputs": [],
      "name": "InvalidTokenAmount",
      "type": "error"
    },
    {
      "inputs": [],
      "name": "InvalidTokenSender",
      "type": "error"
    },
    {
      "inputs": [],
      "name": "NoCodeOwner",
      "type": "error"
    },
    {
      "inputs": [],
      "name": "NoInstanceAccess",
      "type": "error"
    },
    {
      "inputs": [],
      "name": "NoInstanceCreator",
      "type": "error"
    },
    {
      "inputs": [],
      "name": "SubscribeToGainAccess",
      "type": "error"
    },
    {
      "anonymous": false,
      "inputs": [
        {
          "indexed": true,
          "internalType": "address",
          "name": "previousOwner",
          "type": "address"
        },
        {
          "indexed": true,
          "internalType": "address",
          "name": "newOwner",
          "type": "address"
        }
      ],
      "name": "OwnershipTransferred",
      "type": "event"
    },
    {
      "inputs": [],
      "name": "DBNS_NODE",
      "outputs": [
        {
          "internalType": "bytes32",
          "name": "",
          "type": "bytes32"
        }
      ],
      "stateMutability": "view",
      "type": "function"
    },
    {
      "inputs": [],
      "name": "DOMAIN_ID",
      "outputs": [
        {
          "internalType": "uint256",
          "name": "",
          "type": "uint256"
        }
      ],
      "stateMutability": "view",
      "type": "function"
    },
    {
      "inputs": [],
      "name": "PUBLIC_RESOLVER",
      "outputs": [
        {
          "internalType": "contract IFNSResolver",
          "name": "",
          "type": "address"
        }
      ],
      "stateMutability": "view",
      "type": "function"
    },
    {
      "inputs": [],
      "name": "REGISTRAR",
      "outputs": [
        {
          "internalType": "contract IFNSRegistrar",
          "name": "",
          "type": "address"
        }
      ],
      "stateMutability": "view",
      "type": "function"
    },
    {
      "inputs": [],
      "name": "REGISTRY",
      "outputs": [
        {
          "internalType": "contract IFNS",
          "name": "",
          "type": "address"
        }
      ],
      "stateMutability": "view",
      "type": "function"
    },
    {
      "inputs": [],
      "name": "TABLELAND",
      "outputs": [
        {
          "internalType": "contract ITablelandTables",
          "name": "",
          "type": "address"
        }
      ],
      "stateMutability": "view",
      "type": "function"
    },
    {
      "inputs": [
        {
          "internalType": "bytes32",
          "name": "",
          "type": "bytes32"
        }
      ],
      "name": "codeOwner",
      "outputs": [
        {
          "internalType": "address",
          "name": "",
          "type": "address"
        }
      ],
      "stateMutability": "view",
      "type": "function"
    },
    {
      "inputs": [
        {
          "internalType": "string",
          "name": "_name",
          "type": "string"
        }
      ],
      "name": "createDBSpace",
      "outputs": [],
      "stateMutability": "nonpayable",
      "type": "function"
    },
    {
      "inputs": [
        {
          "internalType": "bytes32",
          "name": "_DBSpace",
          "type": "bytes32"
        },
        {
          "internalType": "string",
          "name": "_name",
          "type": "string"
        }
      ],
      "name": "createDBSubSpace",
      "outputs": [],
      "stateMutability": "nonpayable",
      "type": "function"
    },
    {
      "inputs": [
        {
          "internalType": "bytes32",
          "name": "_instance",
          "type": "bytes32"
        },
        {
          "internalType": "string",
          "name": "_name",
          "type": "string"
        },
        {
          "internalType": "string",
          "name": "_about",
          "type": "string"
        },
        {
          "internalType": "string",
          "name": "_chatID",
          "type": "string"
        },
        {
          "internalType": "string",
          "name": "_codeIPNS",
          "type": "string"
        },
        {
          "internalType": "string",
          "name": "_IPNSEncryptedKey",
          "type": "string"
        }
      ],
      "name": "createInstanceCode",
      "outputs": [],
      "stateMutability": "nonpayable",
      "type": "function"
    },
    {
      "inputs": [
        {
          "internalType": "bytes32",
          "name": "_node",
          "type": "bytes32"
        },
        {
          "internalType": "uint256",
          "name": "_price",
          "type": "uint256"
        },
        {
          "internalType": "address[]",
          "name": "_members",
          "type": "address[]"
        },
        {
          "internalType": "string",
          "name": "_metadataCID",
          "type": "string"
        },
        {
          "internalType": "string",
          "name": "_chatID",
          "type": "string"
        },
        {
          "internalType": "string",
          "name": "_IPNS",
          "type": "string"
        },
        {
          "internalType": "string",
          "name": "_IPNSEncryptedKey",
          "type": "string"
        }
      ],
      "name": "createSpaceInstance",
      "outputs": [],
      "stateMutability": "nonpayable",
      "type": "function"
    },
    {
      "inputs": [
        {
          "internalType": "bytes32",
          "name": "_instanceID",
          "type": "bytes32"
        }
      ],
      "name": "extendInstanceSubscription",
      "outputs": [],
      "stateMutability": "payable",
      "type": "function"
    },
    {
      "inputs": [
        {
          "internalType": "address",
          "name": "_sender",
          "type": "address"
        },
        {
          "internalType": "address",
          "name": "_gatedContract",
          "type": "address"
        }
      ],
      "name": "getAccess",
      "outputs": [
        {
          "internalType": "bool",
          "name": "",
          "type": "bool"
        }
      ],
      "stateMutability": "view",
      "type": "function"
    },
    {
      "inputs": [
        {
          "internalType": "bytes32",
          "name": "_salt",
          "type": "bytes32"
        }
      ],
      "name": "getDeterministicAddress",
      "outputs": [
        {
          "internalType": "address",
          "name": "",
          "type": "address"
        }
      ],
      "stateMutability": "view",
      "type": "function"
    },
    {
      "inputs": [
        {
          "internalType": "bytes32",
          "name": "_instanceID",
          "type": "bytes32"
        },
        {
          "internalType": "address",
          "name": "_subscriber",
          "type": "address"
        }
      ],
      "name": "getRemainingSubscriptionTime",
      "outputs": [
        {
          "internalType": "uint256",
          "name": "",
          "type": "uint256"
        }
      ],
      "stateMutability": "view",
      "type": "function"
    },
    {
      "inputs": [],
      "name": "getTime",
      "outputs": [
        {
          "internalType": "uint256",
          "name": "",
          "type": "uint256"
        }
      ],
      "stateMutability": "view",
      "type": "function"
    },
    {
      "inputs": [
        {
          "internalType": "bytes32",
          "name": "_instanceID",
          "type": "bytes32"
        },
        {
          "internalType": "address",
          "name": "_subscriber",
          "type": "address"
        }
      ],
      "name": "hasActiveSubscription",
      "outputs": [
        {
          "internalType": "bool",
          "name": "",
          "type": "bool"
        }
      ],
      "stateMutability": "view",
      "type": "function"
    },
    {
      "inputs": [
        {
          "internalType": "bytes32",
          "name": "_instance",
          "type": "bytes32"
        },
        {
          "internalType": "address",
          "name": "_sender",
          "type": "address"
        }
      ],
      "name": "hasMutateAccess",
      "outputs": [
        {
          "internalType": "bool",
          "name": "access",
          "type": "bool"
        }
      ],
      "stateMutability": "view",
      "type": "function"
    },
    {
      "inputs": [
        {
          "internalType": "bytes32",
          "name": "_instance",
          "type": "bytes32"
        },
        {
          "internalType": "address",
          "name": "_sender",
          "type": "address"
        }
      ],
      "name": "hasViewAccess",
      "outputs": [
        {
          "internalType": "bool",
          "name": "",
          "type": "bool"
        }
      ],
      "stateMutability": "view",
      "type": "function"
    },
    {
      "inputs": [
        {
          "internalType": "bytes32",
          "name": "_instance",
          "type": "bytes32"
        },
        {
          "internalType": "address[]",
          "name": "_members",
          "type": "address[]"
        }
      ],
      "name": "insertNewMerbers",
      "outputs": [],
      "stateMutability": "nonpayable",
      "type": "function"
    },
    {
      "inputs": [
        {
          "internalType": "bytes32",
          "name": "",
          "type": "bytes32"
        }
      ],
      "name": "instanceSubscription",
      "outputs": [
        {
          "internalType": "address",
          "name": "creator",
          "type": "address"
        },
        {
          "internalType": "uint256",
          "name": "prize",
          "type": "uint256"
        }
      ],
      "stateMutability": "view",
      "type": "function"
    },
    {
      "inputs": [
        {
          "internalType": "bytes32",
          "name": "",
          "type": "bytes32"
        },
        {
          "internalType": "address",
          "name": "",
          "type": "address"
        }
      ],
      "name": "instanceSubscriptions",
      "outputs": [
        {
          "internalType": "uint256",
          "name": "",
          "type": "uint256"
        }
      ],
      "stateMutability": "view",
      "type": "function"
    },
    {
      "inputs": [
        {
          "internalType": "bytes32",
          "name": "",
          "type": "bytes32"
        }
      ],
      "name": "instances",
      "outputs": [
        {
          "internalType": "address",
          "name": "gatedContract",
          "type": "address"
        },
        {
          "internalType": "uint256",
          "name": "price",
          "type": "uint256"
        },
        {
          "internalType": "address",
          "name": "creator",
          "type": "address"
        }
      ],
      "stateMutability": "view",
      "type": "function"
    },
    {
      "inputs": [
        {
          "internalType": "bytes32",
          "name": "",
          "type": "bytes32"
        }
      ],
      "name": "isType",
      "outputs": [
        {
          "internalType": "enum Core.Types",
          "name": "",
          "type": "uint8"
        }
      ],
      "stateMutability": "view",
      "type": "function"
    },
    {
      "inputs": [
        {
          "internalType": "address",
          "name": "",
          "type": "address"
        },
        {
          "internalType": "address",
          "name": "",
          "type": "address"
        },
        {
          "internalType": "uint256",
          "name": "tokenId",
          "type": "uint256"
        },
        {
          "internalType": "bytes",
          "name": "",
          "type": "bytes"
        }
      ],
      "name": "onERC721Received",
      "outputs": [
        {
          "internalType": "bytes4",
          "name": "",
          "type": "bytes4"
        }
      ],
      "stateMutability": "nonpayable",
      "type": "function"
    },
    {
      "inputs": [],
      "name": "owner",
      "outputs": [
        {
          "internalType": "address",
          "name": "",
          "type": "address"
        }
      ],
      "stateMutability": "view",
      "type": "function"
    },
    {
      "inputs": [
        {
          "internalType": "bytes32",
          "name": "_instanceID",
          "type": "bytes32"
        }
      ],
      "name": "purchaseInstanceSubscription",
      "outputs": [],
      "stateMutability": "payable",
      "type": "function"
    },
    {
      "inputs": [
        {
          "internalType": "bytes32",
          "name": "_instance",
          "type": "bytes32"
        },
        {
          "internalType": "address[]",
          "name": "_members",
          "type": "address[]"
        }
      ],
      "name": "removeMembers",
      "outputs": [],
      "stateMutability": "nonpayable",
      "type": "function"
    },
    {
      "inputs": [],
      "name": "renounceOwnership",
      "outputs": [],
      "stateMutability": "nonpayable",
      "type": "function"
    },
    {
      "inputs": [
        {
          "internalType": "uint256",
          "name": "",
          "type": "uint256"
        }
      ],
      "name": "tableIDs",
      "outputs": [
        {
          "internalType": "uint256",
          "name": "",
          "type": "uint256"
        }
      ],
      "stateMutability": "view",
      "type": "function"
    },
    {
      "inputs": [
        {
          "internalType": "uint256",
          "name": "",
          "type": "uint256"
        }
      ],
      "name": "tables",
      "outputs": [
        {
          "internalType": "string",
          "name": "",
          "type": "string"
        }
      ],
      "stateMutability": "view",
      "type": "function"
    },
    {
      "inputs": [
        {
          "internalType": "address",
          "name": "newOwner",
          "type": "address"
        }
      ],
      "name": "transferOwnership",
      "outputs": [],
      "stateMutability": "nonpayable",
      "type": "function"
    },
    {
      "inputs": [
        {
          "internalType": "bytes32",
          "name": "_codeID",
          "type": "bytes32"
        },
        {
          "internalType": "string",
          "name": "_name",
          "type": "string"
        },
        {
          "internalType": "string",
          "name": "_about",
          "type": "string"
        }
      ],
      "name": "updateCode",
      "outputs": [],
      "stateMutability": "nonpayable",
      "type": "function"
    },
    {
      "inputs": [
        {
          "internalType": "bytes32",
          "name": "_instanceID",
          "type": "bytes32"
        },
        {
          "internalType": "string",
          "name": "_metadataCID",
          "type": "string"
        }
      ],
      "name": "updateInstance",
      "outputs": [],
      "stateMutability": "nonpayable",
      "type": "function"
    },
    {
      "inputs": [],
      "name": "withdraw",
      "outputs": [],
      "stateMutability": "nonpayable",
      "type": "function"
    },
    {
      "stateMutability": "payable",
      "type": "receive"
    }
  ],
  "transactionHash": "0x95d41e8afb197e90847e3b6c7476b93a901108e49c96f7084a6cadde4358c749",
  "args": [
    "0x331e3228ca613F52B8E6a0F1EFD7000Cb6DFA581",
    "0x57f1887a8BF19b14fC0dF6Fd9B2acc9Af147eA85",
    "0x55608172cD23E7e1c2BD939f1C3210027EbD031a",
    "0x78f6b1389af563cc5c91f234ea46b055e49658d8b999eeb9e0baef7dbbc93fdb",
    "0xf08a2D9F6CF61427e696C211BAB5d43BA73b2AB1"
  ],
  "numDeployments": 5,
  "solcInputHash": "55df34806802bd9258baa67fed47ede1",
  "bytecode": "0x61012060409080825234620008f05760a0816200428280380380916200002682856200092d565b833981010312620008f0576200003c8162000951565b60206200004b81840162000951565b926200005985820162000951565b926200006d60806060840151930162000951565b6001600160a01b0391821660805294811660a05292831660c05260e052600280549383166001600160a01b031994851617905590919082620000ae62001014565b16610100526200012d620001278551620000c881620008f5565b603881527f44425370616365494420746578742c20444253756253706163654f6649442074848201527f6578742c20444253756253706163654e616d6520746578740000000000000000878201526200012062000982565b9062000f97565b62000a31565b83516001600160401b03949060e0810186811182821017620008da576200022f916200012791845260a781527f496e7374616e6365494420746578742c20696e7374616e63654f665370616365858201527f20746578742c20696e7374616e63655479706520746578742c206d6574616461848201527f746143494420746578742c2063686174494420746578742c2049504e5320746560608201527f78742c2049504e53456e637279707465644b657920746578742c20676174656460808201527f436f6e747261637420746578742c20707269636520746578742c20637265617460a0820152661bdc881d195e1d60ca1b60c08201526200012062000cc6565b805160a0810181811087821117620008da57620002e49162000127918452607081527f496e7374616e6365494420746578742c20636f6465494420746578742c206e61858201527f6d6520746578742c2061626f757420746578742c206368617449442074657874848201527f2c2049504e5320746578742c2049504e53456e637279707465644b657920746560608201526f1e1d0b0818dc99585d1bdc881d195e1d60821b60808201526200012062000d01565b62000341620001278251620002f981620008f5565b602d81527f496e7374616e6365494420746578742c20737562736372696265722074657874858201526c0b08195b991cd05d081d195e1d609a1b848201526200012062000d2e565b62000389620001278251620003568162000911565b601c81527f496e7374616e6365494420746578742c206d656d626572207465787400000000858201526200012062000d59565b8361010051168151906361a23d0f60e01b8252604482019360049230848201526024928584830152600354809752606482019682600592606483851b83010160009a8b94600386528886209186905b8282106200082a57505050508383809203925af1918215620008205787926200077d575b5081518a81116200076b5768010000000000000000928382116200075957849083548385558084106200073c575b5001828952848920895b8381106200072957505050506200044a62000982565b8154156200071757620004696200046f91838a52858a20549062000dab565b62000ba3565b6200047962000cc6565b93815494600195861015620007055762000469620004a191848b5287878c2001549062000dab565b620004ab62000d01565b825460021015620007055762000469620004d091848b526002878c2001549062000dab565b620004da62000d2e565b825460031015620007055762000469620004ff91848b526003878c2001549062000dab565b6200050962000d59565b82548710156200070557828952848920870154620005279162000dab565b92865490811015620006f35780866200054392018855620009a9565b969096620006e35783519b8c11620006d257505089620005648654620009db565b601f811162000694575b50505081601f8a116001146200061b575097809281928798999a6000805160206200426283398151915298946200060f575b50501b916000199060031b1c19161790555b60065493339085161760065551933393169180a361309c9081620011c6823960805181611ccd015260a0518181816105c70152611a78015260c051816101bc015260e05181611aca0152610100518181816105820152612fd90152f35b015192503880620005a0565b909891601f198316998588528288209288905b8c82106200067c575050836000805160206200426283398151915298999a9b1062000662575b505050811b019055620005b2565b015160001960f88460031b161c1916905538808062000654565b8087859682949686015181550195019301906200062e565b620006be92878a52858a209186601f8501831c84019410620006c7575b601f01901c019062000a18565b3889816200056e565b9192508291620006b1565b634e487b7160e01b89526041905287fd5b634e487b7160e01b895288905287fd5b50634e487b7160e01b88526041865287fd5b50634e487b7160e01b88526032865287fd5b634e487b7160e01b8852603286528488fd5b8251828201559186019160010162000434565b848b52828b206200075291810190850162000a18565b386200042a565b634e487b7160e01b8952604187528589fd5b634e487b7160e01b8852604186528488fd5b9091503d8088833e6200079181836200092d565b810190838183031262000818578051908b82116200081c57019080601f8301121562000818578151918b8311620007595782841b90885193620007d7878401866200092d565b84528580850192820101928311620008145785809101915b8383106200080357505050509038620003fc565b8251815291810191869101620007ef565b8980fd5b8780fd5b8880fd5b86513d89823e3d90fd5b9295509290939550606319888203018252888d808754936200084c85620009db565b808252600195808716908115620008bd575060011462000881575b50505091600192960192019201928c9593889593620003d8565b90919492508885528385205b818610620008a65750919301820190508e388062000867565b805483870186015293909401938c9383016200088d565b60ff1916838701525015158b1b01830191508f9050388062000867565b634e487b7160e01b600052604160045260246000fd5b600080fd5b606081019081106001600160401b03821117620008da57604052565b604081019081106001600160401b03821117620008da57604052565b601f909101601f19168101906001600160401b03821190821017620008da57604052565b51906001600160a01b0382168203620008f057565b6001600160401b038111620008da57601f01601f191660200190565b60405190620009918262000911565b600982526864625f73706163657360b81b6020830152565b600454811015620009c557600460005260206000200190600090565b634e487b7160e01b600052603260045260246000fd5b90600182811c9216801562000a0d575b6020831014620009f757565b634e487b7160e01b600052602260045260246000fd5b91607f1691620009eb565b81811062000a24575050565b6000815560010162000a18565b60035468010000000000000000811015620008da5760019182820180600355821015620009c5576003600090815281517fc2575a0e9e593c00f959f8c92f12db2869c3395a3b0502d05e2516446f71f85b90930193602093929091906001600160401b03841162000b8f5762000aa88654620009db565b601f811162000b51575b508491601f851160011462000aee57939450849291908362000ae2575b50501b916000199060031b1c1916179055565b01519250388062000acf565b86815285812093958591601f198316915b8883831062000b36575050501062000b1c575b505050811b019055565b015160001960f88460031b161c1916905538808062000b12565b85870151885590960195948501948793509081019062000aff565b62000b7d90878452868420601f870160051c81019188881062000b84575b601f0160051c019062000a18565b3862000ab2565b909150819062000b6f565b634e487b7160e01b82526041600452602482fd5b60045468010000000000000000811015620008da5762000bcb600191828101600455620009a9565b92909262000cb0578051906001600160401b038211620008da5762000bf18454620009db565b601f811162000c7a575b5060209081601f841160011462000c2e575092829391839260009462000ae25750501b916000199060031b1c1916179055565b919083601f1981168760005284600020946000905b8883831062000c5f575050501062000b1c57505050811b019055565b85870151885590960195948501948793509081019062000c43565b62000ca990856000526020600020601f850160051c8101916020861062000b8457601f0160051c019062000a18565b3862000bfb565b634e487b7160e01b600052600060045260246000fd5b6040519062000cd58262000911565b601382527f64625f7370616365735f696e7374616e636573000000000000000000000000006020830152565b6040519062000d108262000911565b600f82526e696e7374616e6365735f636f64657360881b6020830152565b6040519062000d3d8262000911565b600d82526c737562736372697074696f6e7360981b6020830152565b6040519062000d688262000911565b60078252666d656d6265727360c81b6020830152565b9081519160005b83811062000d97575050016000815290565b806020809284010151818501520162000d85565b62000e149062000e0562000de793600162000dd162000dca4662000e17565b9262000e17565b9162000dfa604051978896602088019062000d7e565b9183605f60f81b93848152019062000d7e565b908152019062000d7e565b03601f1981018352826200092d565b90565b806000917a184f03e93ff9f4daa797ed6e38ed64bf6a1f0100000000000000008082101562000f88575b506d04ee2d6d415b85acef81000000008083101562000f78575b50662386f26fc100008083101562000f68575b506305f5e1008083101562000f58575b506127108083101562000f48575b50606482101562000f37575b600a8092101562000f2c575b6001908160218186019562000eb98762000966565b9662000ec960405198896200092d565b80885262000eda601f199162000966565b01366020890137860101905b62000ef3575b5050505090565b600019019083906f181899199a1a9b1b9c1cb0b131b232b360811b8282061a83530491821562000f265791908262000ee6565b62000eec565b916001019162000ea4565b919060646002910491019162000e98565b6004919392049101913862000e8c565b6008919392049101913862000e7e565b6010919392049101913862000e6e565b6020919392049101913862000e5b565b60409350810491503862000e41565b600162000fdf9262000ffd62000e14938362000fee62000fb74662000e17565b82604051998a976c021a922a0aa22902a20a126229609d1b60208a0152602d89019062000d7e565b605f60f81b8152019062000d7e565b600560fb1b8152019062000d7e565b602960f81b815203601e198101845201826200092d565b46600103620010355773012969f7e3439a9b04025b5a049eb9bad82a8c1290565b46600a03620010565773fad44bf5b843de943a09d4f3e84949a11d3aa3e690565b4661a4b1036200107857739abd75e8640871a5a20d3b4ee6330a04c962affd90565b4661a4ba036200109a57731a22854c5b1642760a827f20137a67930ae108d290565b46608903620010bb57735c4e6a9e5c1e1bf445a062006faf19ea6c49afea90565b4661013a03620010dd577359ef8bf2d6c102b4c42aef9189e1a9f0abfd652d90565b4662aa36a703620011005773c50c62498448acc8dbde43da77f8d5d2e2c7597d90565b466101a403620011225773c72e8a7be04f2469f8c2db3f1bdf69a7d516abba90565b4662066eee03620011455773223a74b8323914afdc3ff1e5005564dc17231d6e90565b4662013881036200116857734b48841d4b32c4650e4abc117a03fe8b51f38f6890565b466204cb2f036200118b5773030bcf3d50cad04c2e57391b12740982a930862190565b46617a6903620011ad5773e7f1725e7734ce288f8367e1bb143e90bb3f051290565b60405163264e42cf60e01b8152466004820152602490fdfe60a080604052600436101561001d575b50361561001b57600080fd5b005b600090813560e01c90816306433b1b14611cb9575080630c9ddf6d14611b3c57806311ad2f3414611b09578063150b7a0214611a2e5780632711447f146119e1578063284e82e8146119125780633ac27522146111d45780633ccfd60b146111b15780633e203835146111825780633ec29e721461103057806347d121c514611009578063557ed1ba14610fee57806367e0970914610f51578063715018a614610ef357806371671bf214610dc75780637a9b777414610d51578063820cc55714610d3357806383a8b3d01461092857806384ec9653146108fb57806388975383146108d45780638a8fd2501461087e5780638da5cb5b146108555780639ad66a231461079a578063a58dcc951461071a578063a5df63d6146106c7578063ba0d18aa1461068c578063bfc51b7e146105f6578063cb609077146105b1578063d68d087c1461056c578063db7baba91461054f578063dd321bfc14610508578063e0cf1e4c14610301578063e2b1e4ed146102b4578063f2fde38b146101ee5763ffeb4a300361000f57346101eb57806003193601126101eb576040517f00000000000000000000000000000000000000000000000000000000000000006001600160a01b03168152602090f35b80fd5b50346101eb5760203660031901126101eb57610208611d2e565b61021061200e565b6001600160a01b0390811690811561026057600654826001600160601b0360a01b821617600655167f8be0079c531659141344cd1fd0a4f28419497f9722a3daafe3b4186f6b6457e0600080a380f35b60405162461bcd60e51b815260206004820152602660248201527f4f776e61626c653a206e6577206f776e657220697320746865207a65726f206160448201526564647265737360d01b6064820152608490fd5b50346101eb5760203660031901126101eb576004358152600b60205260ff6040822054166040519060078110156102ed57602092508152f35b634e487b7160e01b83526021600452602483fd5b50346101eb5761031036611e5d565b818392935260209060098252604083209360018060a01b039461033e86600281845416930154163314612319565b806104a2575b5061034e90612eb3565b91835b825181101561049e5761049990610494660102ba422a922960cd1b886104378861048d896103b28a610381611f24565b969054978b6103be6103b9610394612d86565b9361039d611f24565b989054946103ac60039d612a0b565b9a612da9565b5116612a7a565b612a0b565b9461042e6040519687878101996c024b739ba30b731b2a4a2101e9609d1b8b526d01020a7221036b2b6b132b9101e960951b815161040481602d948d8688019101611fc6565b83019182015282519061041f82603b958c8785019101611fc6565b0103601b810189520187611dd6565b881b1c90612826565b916040519889936b02222a622aa2290232927a6960a51b8486015261046681518092602c968789019101611fc6565b840192830152519061047e8260339586840190611fc6565b01036013810187520185611dd6565b1b1c612fd7565b612d61565b610351565b8480f35b803b156105045784604051809263362eb0ab60e11b82528183816104c98960048301612351565b03925af180156104f9579085916104e1575b50610344565b6104ea90611d8d565b6104f55783386104db565b8380fd5b6040513d87823e3d90fd5b8480fd5b50346101eb5760403660031901126101eb576040610524611d44565b9160043581526007602052209060018060a01b03166000526020526020604060002054604051908152f35b50346101eb57806003193601126101eb5760209054604051908152f35b50346101eb57806003193601126101eb576040517f00000000000000000000000000000000000000000000000000000000000000006001600160a01b03168152602090f35b50346101eb57806003193601126101eb576040517f00000000000000000000000000000000000000000000000000000000000000006001600160a01b03168152602090f35b50346101eb5761060536611d5a565b909291808352600b60205260ff6040842054166007811015610678576106759394610635600561066f93146120b8565b610650610643368684612081565b6020815191012084612395565b808752600b60205260408720805460ff19166005179055933691612081565b916126c9565b80f35b634e487b7160e01b84526021600452602484fd5b50346101eb5760203660031901126101eb576040809160043581526008602052206001808060a01b0382541691015482519182526020820152f35b50346101eb5760403660031901126101eb5760206107106106e6611d44565b600435600052600760205260406000209060018060a01b0316600052602052604060002054421090565b6040519015158152f35b50346101eb5760203660031901126101eb57602060018060a01b03605560438260025416604051903060388301526f5af43d82803e903d91602b57fd5bf3ff60248301526014820152733d602d80600a3d3981f3363d3d373d3d3d363d73815260043560588201526037600c820120607882015201209060405191168152f35b5060203660031901126101eb576004359081815260086020526107c5600160408320015434146124d5565b62278d004201804211610841578282526007602052604082203360005260205280604060002055828252600860205260018060a01b0360408320541692606334023481046063143415171561082d576106759394606461082692049061252d565b3390612cb1565b634e487b7160e01b84526011600452602484fd5b634e487b7160e01b82526011600452602482fd5b50346101eb57806003193601126101eb576006546040516001600160a01b039091168152602090f35b50346101eb5760203660031901126101eb576004356005548110156108d05760209060056000527f036b6384b5eca791c62761152d0c79bb0604c104a5fb6f4eb0703f3154bb3db00154604051908152f35b5080fd5b50346101eb5760403660031901126101eb5760206107106108f3611d44565b600435612235565b50346101eb5760403660031901126101eb57602061071061091a611d2e565b610922611d44565b906123e9565b50346101eb5760c03660031901126101eb576004356024356001600160401b038111610d2f5761095c903690600401611cfc565b6044929192356001600160401b0381116105045761097e903690600401611cfc565b9190926064356001600160401b038111610d2b576109a0903690600401611cfc565b91906084356001600160401b038111610d27576109c1903690600401611cfc565b969060a4356001600160401b038111610d23576109e2903690600401611cfc565b9390926109ef3387612235565b15610d11578b9a8b988b6040518060209c8d8201938c8552808a60408501378201906040820152038c81018252604001610a299082611dd6565b519020809d528d600b8b52604090205460ff166007811015610cfd57610ceb578c8e52600a8a526040808f208054336001600160a01b0319909116179055600b8b528e20805460ff19166006179055610a8491369190612081565b983690610a9092612081565b953690610a9c92612081565b973690610aa892612081565b913690610ab492612081565b96610abd611ea0565b97905496610ac9612b92565b93610ad2611ea0565b9b905496610adf90612eb3565b610ae890612a0b565b94610af290612eb3565b610afb90612a0b565b92610b0590612a0b565b97610b0f90612a0b565b93610b1990612a0b565b91610b2390612a0b565b90610b2d90612a0b565b91610b3733612a7a565b610b4090612a0b565b948a6040519a888c9951908184808d01920191610b5c92611fc6565b890196600b60fa1b978884820152815191828560218401920191610b7f92611fc6565b01908760218301528051809360228401920191610b9b92611fc6565b01856022820152815191828d60238401920191610bb792611fc6565b01846023820152815191828c60248401920191610bd392611fc6565b01836024820152815191828b60258401920191610bef92611fc6565b01826025820152815191828a60268401920191610c0b92611fc6565b01906026820152815191828860278401920191610c2792611fc6565b0103600781018452602701610c3c9084611dd6565b6040519160808301978389106001600160401b038a1117610cd5577f496e7374616e636549442c20636f646549442c206e616d652c2061626f75742c610ccb966106759a604052604886528501527f206368617449442c2049504e532c2049504e53456e637279707465644b65792c6040850152671031b932b0ba37b960c11b606085015260031b1c90612786565b9160031b1c612fd7565b634e487b7160e01b600052604160045260246000fd5b604051631144626f60e01b8152600490fd5b634e487b7160e01b8f52602160045260248ffd5b6040516346627df160e01b8152600490fd5b8a80fd5b8880fd5b8680fd5b8280fd5b50346101eb57806003193601126101eb576020600154604051908152f35b50346101eb5760203660031901126101eb576004356001600160401b0381116108d057610d85610675913690600401611cfc565b61066f610da58554610d98368587612081565b6020815191012090612395565b92838652600b60205260408620600560ff198254161790558554923691612081565b50346101eb576020806003193601126108d057600435600454811015610d2f5760046000527f8a35acfbc15ff81a39ae7d344fd709f28e8600b4aa8c65c6b64bfe7fe36bd19b0190604051918381549460019086821c93828816978815610ee9575b8686108914610ed557868899878a98999a529182600014610eb1575050600114610e75575b505050610e5d92500383611dd6565b610e71604051928284938452830190611fe9565b0390f35b869350819291528282205b858310610e99575050610e5d9350820101388080610e4e565b80548389018501528794508693909201918101610e80565b935094505050610e5d94915060ff191682840152151560051b820101388080610e4e565b634e487b7160e01b83526022600452602483fd5b94607f1694610e29565b50346101eb57806003193601126101eb57610f0c61200e565b600680546001600160a01b031981169091556000906001600160a01b03167f8be0079c531659141344cd1fd0a4f28419497f9722a3daafe3b4186f6b6457e08280a380f35b50346101eb57610f6036611e5d565b8183929352600960205260408220610f8960018060a01b03600281845416930154163314612319565b80610f9a575b506106759192612dbd565b803b15610d2f57826040518092632f41d6e160e21b8252818381610fc18860048301612351565b03925af18015610fe35715610f8f5791610fdd61067593611d8d565b91610f8f565b6040513d85823e3d90fd5b50346101eb57806003193601126101eb576020604051428152f35b50346101eb5760403660031901126101eb576020610710611028611d44565b600435612104565b50346101eb5761103f36611d5a565b82845260096020908152604085206002015490939291906001600160a01b0316330361113d5761112361107c610675959493610ccb933691612081565b92611085611eed565b959054946110b1611133602d611099612a4b565b946110f96103b96110a8611eed565b96905497612a0b565b986110f4602e604051809c6d036b2ba30b230ba30a1a4a2101e960951b888301526110e4815180928a8686019101611fc6565b810103600e81018d52018b611dd6565b612eb3565b60405198826c024b739ba30b731b2a4a2101e9609d1b8b9485015282519283918686019101611fc6565b810103600d810188520186611dd6565b60031b1c90612bbd565b60405162461bcd60e51b815260048101859052601860248201527f44424e533a204e6f20696e7374616e63652061636365737300000000000000006044820152606490fd5b50346101eb5760403660031901126101eb5760206111a96111a1611d44565b600435612608565b604051908152f35b50346101eb57806003193601126101eb576111ca61200e565b610675473361252d565b50346101eb5760e03660031901126101eb576001600160401b03604435116101eb573660236044350112156101eb576001600160401b0360443560040135116101eb573660246044356004013560051b6044350101116101eb576064356001600160401b0381116108d05761124d903690600401611cfc565b91906084356001600160401b038111610d2f5761126e903690600401611cfc565b919060a4356001600160401b0381116105045761128f903690600401611cfc565b939060c4356001600160401b038111610d2b576112b0903690600401611cfc565b916004358852600b60205260ff60408920541660078110156118fe5760056112d891146120b8565b60405160208101906004358252888360408301376113086040828b81018d83820152036020810184520182611dd6565b51902094858952600b60205260ff60408a20541660078110156118ea57610ceb57889660443560040135611782575b6040518060608101106001600160401b0360608301111761176e576060810160405260018060a01b038916815260243560208201526040810190338252888c526009602052600260408d20602060018060a01b03845116936001600160601b0360a01b948584541617835501516001820155019160018060a01b039051169082541617905560018060a01b038816151560243515156000146116f85750868a52600b60205260408a20805460ff191660031790556113f78760243561247b565b868a52600b60205260ff60408b2054169a60078c10156116e457936114436103b99c9461143b611605989561143361144b9660299a3691612081565b9a3691612081565b9b3691612081565b923691612081565b94611454611eed565b99905498611460612a4b565b9761147561146c611eed565b9f90549b612eb3565b946114ba6103b96114b46114ae6114ae6114a86114a26103b961149c6103b9600435612eb3565b9e6128a3565b9a612a0b565b98612a0b565b94612a0b565b94612a7a565b936114c96103b96024356128a3565b956114d66103b933612a7a565b976040516080526114f281518092602080608051019101611fc6565b6080510198600b60fa1b998a6020820152611517825180936020602185019101611fc6565b01896021820152611532825180936020602285019101611fc6565b0188602282015261154d825180936020602385019101611fc6565b01876023820152611568825180936020602485019101611fc6565b01866024820152611583825180936020602585019101611fc6565b0185602582015261159e825180936020602685019101611fc6565b018460268201526115b9825180936020602785019101611fc6565b018360278201526115d4825180936020602885019101611fc6565b019160288301526115ee8151809260208686019101611fc6565b608051910103600981016080515201608051611dd6565b6040519160a083018381106001600160401b038211176116d05791610ccb9391610675979893604052607583527f496e7374616e636549442c20696e7374616e63654f6653706163652c20696e7360208401527f74616e6365547970652c206d657461646174614349442c206368617449442c2060408401527f49504e532c2049504e53456e637279707465644b65792c206761746564436f6e6060840152743a3930b1ba1610383934b1b2961031b932b0ba37b960591b60808401526080519360031b1c90612786565b634e487b7160e01b87526041600452602487fd5b634e487b7160e01b8b52602160045260248bfd5b8080611767575b1561172d5750868a52600b60205260408a20805460ff191660011790556117288760243561247b565b6113f7565b1561174e57868a52600b60205260408a20805460ff191660021790556113f7565b600b60205260408a20805460ff191660041790556113f7565b508a6116ff565b634e487b7160e01b8b52604160045260248bfd5b965061179a3660443560040135602460443501611df7565b600254608881901c62ffffff16763d602d80600a3d3981f3363d3d373d3d3d363d73000000178b5260781b6effffffffffffffffffffffffffffff19166e5af43d82803e903d91602b57fd5bf31760205286603760098cf5906001600160a01b038216156118a5578a809160405161183581611827602082019463a224cee760e01b865260248301612351565b03601f198101835282611dd6565b519082855af16118436123b9565b501561186e57966118696118633660443560040135602460443501611df7565b88612dbd565b611337565b60405162461bcd60e51b815260206004820152600f60248201526e6572726f72206465706c6f79696e6760881b6044820152606490fd5b60405162461bcd60e51b815260206004820152601760248201527f455243313136373a2063726561746532206661696c65640000000000000000006044820152606490fd5b634e487b7160e01b8a52602160045260248afd5b634e487b7160e01b89526021600452602489fd5b5060203660031901126101eb5760043561192c3382612608565b908083526008602052611947600160408520015434146124d5565b80835260076020526040832033845260205260408320805462278d00918282018092116119cd5755818452600860205260018060a01b0360408520541660633402348104606314341517156119cd579060646119a492049061252d565b82018092116119b95790610675913390612cb1565b634e487b7160e01b83526011600452602483fd5b634e487b7160e01b86526011600452602486fd5b50346101eb5760203660031901126101eb576040606091600435815260096020522060018060a01b0390818154169160026001830154920154169060405192835260208301526040820152f35b50346101eb5760803660031901126101eb57611a48611d2e565b50611a51611d44565b506044356064356001600160401b038111610d2f57611a74903690600401611cfc565b50507f00000000000000000000000000000000000000000000000000000000000000006001600160a01b03163303611af757815415611ac0575b604051630a85bd0160e11b8152602090f35b80611aee916001557f0000000000000000000000000000000000000000000000000000000000000000612395565b90553880611aae565b604051634a93b62160e11b8152600490fd5b50346101eb5760203660031901126101eb576020906004358152600a8252604060018060a01b0391205416604051908152f35b50346101eb5760603660031901126101eb576004356001600160401b036024358181116104f557611b71903690600401611cfc565b909160443590811161050457611b8b903690600401611cfc565b848652600a60209081526040872054909391906001600160a01b03163303611ca75761067595611bd1610ccb94611bc9602998611c97963691612081565b933691612081565b91611c0c611133611be0611ea0565b99905498611c716103b9611bf2612b92565b976110f46031611c12611c03611ea0565b9a90549b612a0b565b9c612a0b565b9b6040519c8d916603730b6b2901e960cd1b89840152611c3b815180928b602787019101611fc6565b8201690161030b137baba101e960b51b6027820152611c62825180938b8785019101611fc6565b0103601181018d52018b611dd6565b604051988268031b7b232a4a2101e960bd1b8b9485015282519283918686019101611fc6565b8101036009810188520186611dd6565b6040516306815cbd60e41b8152600490fd5b9050346108d057816003193601126108d0577f00000000000000000000000000000000000000000000000000000000000000006001600160a01b03168152602090f35b9181601f84011215611d29578235916001600160401b038311611d295760208381860195010111611d2957565b600080fd5b600435906001600160a01b0382168203611d2957565b602435906001600160a01b0382168203611d2957565b906040600319830112611d295760043591602435906001600160401b038211611d2957611d8991600401611cfc565b9091565b6001600160401b038111610cd557604052565b606081019081106001600160401b03821117610cd557604052565b604081019081106001600160401b03821117610cd557604052565b90601f801991011681019081106001600160401b03821117610cd557604052565b9092916001600160401b038411610cd5578360051b6040519260208094611e2082850182611dd6565b8097815201918101928311611d2957905b828210611e3e5750505050565b81356001600160a01b0381168103611d29578152908301908301611e31565b906040600319830112611d295760043591602435906001600160401b038211611d295780602383011215611d2957816024611e9d93600401359101611df7565b90565b60055460021015611ed75760056000527f036b6384b5eca791c62761152d0c79bb0604c104a5fb6f4eb0703f3154bb3db290600090565b634e487b7160e01b600052603260045260246000fd5b60055460011015611ed75760056000527f036b6384b5eca791c62761152d0c79bb0604c104a5fb6f4eb0703f3154bb3db190600090565b60055460041015611ed75760056000527f036b6384b5eca791c62761152d0c79bb0604c104a5fb6f4eb0703f3154bb3db490600090565b60055415611ed75760056000527f036b6384b5eca791c62761152d0c79bb0604c104a5fb6f4eb0703f3154bb3db090600090565b60055460031015611ed75760056000527f036b6384b5eca791c62761152d0c79bb0604c104a5fb6f4eb0703f3154bb3db390600090565b60005b838110611fd95750506000910152565b8181015183820152602001611fc9565b9060209161200281518092818552858086019101611fc6565b601f01601f1916010190565b6006546001600160a01b0316330361202257565b606460405162461bcd60e51b815260206004820152602060248201527f4f776e61626c653a2063616c6c6572206973206e6f7420746865206f776e65726044820152fd5b6001600160401b038111610cd557601f01601f191660200190565b92919261208d82612066565b9161209b6040519384611dd6565b829481845281830111611d29578281602093846000960137010152565b156120bf57565b60405162461bcd60e51b815260206004820152601b60248201527f44424e533a204e6f6465206973206e6f742061207375626e6f646500000000006044820152606490fd5b906000828152600960205260018060a01b0360408220541690600b60205260ff604082205416600781101561222157600303612167575050611e9d91600052600760205260406000209060018060a01b0316600052602052604060002054421090565b838152600b60205260ff6040822054166007811015612221576001036121ca575061219290826123e9565b91821561219e57505090565b611e9d9250600052600760205260406000209060018060a01b0316600052602052604060002054421090565b8392508093915052600b60205260ff60408320541660078110156102ed576002149081156121ff575b5015611e9d5750600190565b825250600b602052604081205460ff16600781101561222157600414386121f3565b634e487b7160e01b82526021600452602482fd5b919060008091848352600960205260018060a01b038060408520541695600b60205260ff604086205416936007851015978861230557600386036122b05750508452600960205280600260408620015416911614935b61222157600481119081156122a7575b506122a35750565b9150565b9050153861229b565b9392509650508395600184146000146122d55750906122ce916123e9565b935b61228b565b95508395600284146000146122ef5750906122ce916123e9565b9550505081600482036122d0576001945061228b565b634e487b7160e01b87526021600452602487fd5b1561232057565b60405162461bcd60e51b81526020600482015260096024820152684e6f2061636365737360b81b6044820152606490fd5b6020908160408183019282815285518094520193019160005b828110612378575050505090565b83516001600160a01b03168552938101939281019260010161236a565b9060405190602082019283526040820152604081526123b381611da0565b51902090565b3d156123e4573d906123ca82612066565b916123d86040519384611dd6565b82523d6000602084013e565b606090565b6000916001600160a01b039081169190826124075750505050600090565b602460209260405194859384926370a0823160e01b84521660048301525afa91821561246f57809261243b575b5050151590565b9091506020823d8211612467575b8161245660209383611dd6565b810103126101eb5750513880612434565b3d9150612449565b604051903d90823e3d90fd5b906040519160408301918383106001600160401b03841117610cd557600192604052338452602084019182526000526008602052604060002092828060a01b039051166001600160601b0360a01b84541617835551910155565b156124dc57565b60405162461bcd60e51b8152602060048201526024808201527f44424e533a204e6f2070726963652073657420666f72207468697320696e7374604482015263616e636560e01b6064820152608490fd5b8147106125c3576000918291829182916001600160a01b03165af16125506123b9565b501561255857565b60405162461bcd60e51b815260206004820152603a60248201527f416464726573733a20756e61626c6520746f2073656e642076616c75652c207260448201527f6563697069656e74206d617920686176652072657665727465640000000000006064820152608490fd5b60405162461bcd60e51b815260206004820152601d60248201527f416464726573733a20696e73756666696369656e742062616c616e63650000006044820152606490fd5b9060009182526007602052604082209060018060a01b0316825260205260408120549042821061265457428203918211612640575090565b634e487b7160e01b81526011600452602490fd5b905090565b6022906126c7929493604051958261267b889451809260208088019101611fc6565b830190600b60fa1b9182602082015261269e825180936020602185019101611fc6565b019060218201526126b88251809360208785019101611fc6565b01036002810185520183611dd6565b565b90610ccb612736926103b96126c7956126e0611f5b565b96905495604051926126f184611dbb565b600984526864625f73706163657360b81b602085015261273061272a6103b961272461271b611f5b565b9990549a612eb3565b94612eb3565b91612a0b565b91612659565b926040519261274484611da0565b602984527f4442537061636549442c20444253756253706163654f6649442c20444253756260208501526853706163654e616d6560b81b604085015260031b1c905b92612797603692611e9d9495612826565b906040519485926b024a729a2a92a1024a72a27960a51b60208501526127c7815180926020602c88019101611fc6565b8301600560fb1b602c8201526127e7825180936020602d85019101611fc6565b0167052ac8298aa8aa6560c31b602d82015261280d825180936020603585019101611fc6565b01602960f81b6035820152036016810184520182611dd6565b6022611e9d9161283e612838466128a3565b946128a3565b6040519482612857879451809260208088019101611fc6565b830190605f60f81b9182602082015261287a825180936020602185019101611fc6565b019060218201526128948251809360208785019101611fc6565b01036002810184520182611dd6565b806000917a184f03e93ff9f4daa797ed6e38ed64bf6a1f010000000000000000808210156129fd575b506d04ee2d6d415b85acef8100000000808310156129ee575b50662386f26fc10000808310156129df575b506305f5e100808310156129d0575b50612710808310156129c1575b5060648210156129b1575b600a809210156129a7575b6001908160218186019561293c87612066565b9661294a6040519889611dd6565b808852612959601f1991612066565b01366020890137860101905b612971575b5050505090565b600019019083906f181899199a1a9b1b9c1cb0b131b232b360811b8282061a8353049182156129a257919082612965565b61296a565b9160010191612929565b919060646002910491019161291e565b60049193920491019138612913565b60089193920491019138612906565b601091939204910191386128f7565b602091939204910191386128e5565b6040935081049150386128cc565b611e9d60226040518093602760f81b90816020840152612a35815180926020602187019101611fc6565b8201906021820152036002810184520182611dd6565b60405190612a5882611dbb565b601382527264625f7370616365735f696e7374616e63657360681b6020830152565b604051906001600160a01b0316612a9082611da0565b602a8252602082016040368237825115611ed757603090538151600190811015611ed757607860218401536029905b808211612b13575050612acf5790565b606460405162461bcd60e51b815260206004820152602060248201527f537472696e67733a20686578206c656e67746820696e73756666696369656e746044820152fd5b9091600f81166010811015612b6c576f181899199a1a9b1b9c1cb0b131b232b360811b901a612b428486612b81565b5360041c918015612b57576000190190612abf565b60246000634e487b7160e01b81526011600452fd5b60246000634e487b7160e01b81526032600452fd5b908151811015611ed7570160200190565b60405190612b9f82611dbb565b600f82526e696e7374616e6365735f636f64657360881b6020830152565b90612bca91939293612826565b9060405191602091828401928484106001600160401b03851117610cd557611e9d94602c9460405260008152918051612c6c575b50612c5d6040519687946602aa82220aa22960cd1b84870152612c2a815180928660278a019101611fc6565b85016401029a2aa160dd1b6027820152612c4c82518093868a85019101611fc6565b019183519384918785019101611fc6565b0103600c810184520182611dd6565b909150612caa60276040518093660102ba422a922960cd1b86830152612c9a81518092888686019101611fc6565b8101036007810184520182611dd6565b9038612bfe565b90610ccb612d1f926103b96126c795612cc8611f8f565b9690549560405192612cd984611dbb565b600d84526c737562736372697074696f6e7360981b60208501526127306103b9612d196103b9612d13612d0a611f8f565b9a90549b612eb3565b95612a7a565b926128a3565b9260405192612d2d84611dbb565b601e84527f496e7374616e636549442c20737562736372696265722c20656e647341740000602085015260031b1c90612786565b6000198114612d705760010190565b634e487b7160e01b600052601160045260246000fd5b60405190612d9382611dbb565b60078252666d656d6265727360c81b6020830152565b8051821015611ed75760209160051b010190565b612dc990929192612eb3565b9160005b8151811015612ead57612ea890610494612de5611f24565b9054612def612d86565b91612ea0612dfb611f24565b9054600395612e098d612a0b565b91612e226103b98d6103b28d60018060a01b0392612da9565b937124b739ba30b731b2a4a2161036b2b6b132b960711b6040612e85815197888851612e568160209b8c8086019101611fc6565b8101600b60fa1b8a820152825190612e76826021958d8785019101611fc6565b0103600181018a520188611dd6565b5194612e9086611dbb565b60128652850152881b1c90612786565b921b1c612fd7565b612dcd565b50509050565b60405190612ec082611da0565b6040825260209182810191604036843760405190612edd82611dbb565b601082526f181899199a1a9b1b9c1cb0b131b232b360811b8583015260005b858110612f3c5750505061060f60f31b92611e9d92612f2c60229360405196879485015251809285850190611fc6565b8101036002810184520182611dd6565b81811a9083518015612fc1576001600160f81b0319908190612f6090850487612b81565b51169060019383851b9284840460021485151715612d705760001a612f85848a612b81565b5386518015612fc157612f99910687612b81565b5116928101809111612d7057612fb6612fbc9360001a9187612b81565b53612d61565b612efc565b634e487b7160e01b600052601260045260246000fd5b7f00000000000000000000000000000000000000000000000000000000000000006001600160a01b031691823b15611d29576130409260009283604051809681958294631bbd786d60e11b84523060048501526024840152606060448401526064830190611fe9565b03925af1801561305a576130515750565b6126c790611d8d565b6040513d6000823e3d90fdfea2646970667358221220cd64a9622828c5124b4e51733c2f7c5ba86999343f82e1f2fa0e2bff10d0936564736f6c634300081400338be0079c531659141344cd1fd0a4f28419497f9722a3daafe3b4186f6b6457e0",
  "devdoc": {
    "details": "Create a decentralized Database NameSpaces Where space and subSpaces can get created and anyone can create instances inside a space and contribute to the public this is possible by integrating tableland SQL in solidity ENS system to support a decentralized Namespace of Database spaces IPNS and Push protocol for code and space discussions",
    "kind": "dev",
    "methods": {
      "createDBSpace(string)": {
        "details": "Create a new space under the given node",
        "params": {
          "_name": "The name of the new space"
        }
      },
      "createDBSubSpace(bytes32,string)": {
        "details": "Create a new subnode under the given node",
        "params": {
          "_DBSpace": "The parent node",
          "_name": "The name of the new subnode"
        }
      },
      "createInstanceCode(bytes32,string,string,string,string,string)": {
        "details": "Create a new instance under the given node",
        "params": {
          "_about": "The about of the new instance",
          "_chatID": "The chatID of the new instance",
          "_codeIPNS": "The IPNS of the new instance",
          "_instance": "The parent node",
          "_name": "The name of the new instance"
        }
      },
      "createSpaceInstance(bytes32,uint256,address[],string,string,string,string)": {
        "details": "Create a new instance under the given node",
        "params": {
          "_IPNS": "The IPNS of the new instance",
          "_chatID": "The chatID of the new instance",
          "_members": "The hatID of the new instance",
          "_metadataCID": "The name of the new instance",
          "_node": "The parent node"
        }
      },
      "hasViewAccess(bytes32,address)": {
        "details": "Check if the sender has access to the given instance",
        "params": {
          "_instance": "The instance to check",
          "_sender": "The sender to check"
        },
        "returns": {
          "_0": "bool"
        }
      },
      "owner()": {
        "details": "Returns the address of the current owner."
      },
      "renounceOwnership()": {
        "details": "Leaves the contract without owner. It will not be possible to call `onlyOwner` functions. Can only be called by the current owner. NOTE: Renouncing ownership will leave the contract without an owner, thereby disabling any functionality that is only available to the owner."
      },
      "transferOwnership(address)": {
        "details": "Transfers ownership of the contract to a new account (`newOwner`). Can only be called by the current owner."
      }
    },
    "title": "DBNS",
    "version": 1
  },
  "userdoc": {
    "errors": {
      "ChainNotSupported(uint256)": [
        {
          "notice": "Current chain does not have a TablelandTables deployment."
        }
      ]
    },
    "kind": "user",
    "methods": {},
    "version": 1
  },
  "storageLayout": {
    "storage": [
      {
        "astId": 3545,
        "contract": "contracts/DBNS.sol:DBNS",
        "label": "DBNS_NODE",
        "offset": 0,
        "slot": "0",
        "type": "t_bytes32"
      },
      {
        "astId": 3549,
        "contract": "contracts/DBNS.sol:DBNS",
        "label": "DOMAIN_ID",
        "offset": 0,
        "slot": "1",
        "type": "t_uint256"
      },
      {
        "astId": 3707,
        "contract": "contracts/DBNS.sol:DBNS",
        "label": "implementation",
        "offset": 0,
        "slot": "2",
        "type": "t_address"
      },
      {
        "astId": 4055,
        "contract": "contracts/DBNS.sol:DBNS",
        "label": "createTableStatements",
        "offset": 0,
        "slot": "3",
        "type": "t_array(t_string_storage)dyn_storage"
      },
      {
        "astId": 4058,
        "contract": "contracts/DBNS.sol:DBNS",
        "label": "tables",
        "offset": 0,
        "slot": "4",
        "type": "t_array(t_string_storage)dyn_storage"
      },
      {
        "astId": 4061,
        "contract": "contracts/DBNS.sol:DBNS",
        "label": "tableIDs",
        "offset": 0,
        "slot": "5",
        "type": "t_array(t_uint256)dyn_storage"
      },
      {
        "astId": 7,
        "contract": "contracts/DBNS.sol:DBNS",
        "label": "_owner",
        "offset": 0,
        "slot": "6",
        "type": "t_address"
      },
      {
        "astId": 3827,
        "contract": "contracts/DBNS.sol:DBNS",
        "label": "instanceSubscriptions",
        "offset": 0,
        "slot": "7",
        "type": "t_mapping(t_bytes32,t_mapping(t_address,t_uint256))"
      },
      {
        "astId": 3832,
        "contract": "contracts/DBNS.sol:DBNS",
        "label": "instanceSubscription",
        "offset": 0,
        "slot": "8",
        "type": "t_mapping(t_bytes32,t_struct(InstanceStruct)3821_storage)"
      },
      {
        "astId": 3141,
        "contract": "contracts/DBNS.sol:DBNS",
        "label": "instances",
        "offset": 0,
        "slot": "9",
        "type": "t_mapping(t_bytes32,t_struct(SpaceInstance)3136_storage)"
      },
      {
        "astId": 3145,
        "contract": "contracts/DBNS.sol:DBNS",
        "label": "codeOwner",
        "offset": 0,
        "slot": "10",
        "type": "t_mapping(t_bytes32,t_address)"
      },
      {
        "astId": 3150,
        "contract": "contracts/DBNS.sol:DBNS",
        "label": "isType",
        "offset": 0,
        "slot": "11",
        "type": "t_mapping(t_bytes32,t_enum(Types)3129)"
      }
    ],
    "types": {
      "t_address": {
        "encoding": "inplace",
        "label": "address",
        "numberOfBytes": "20"
      },
      "t_array(t_string_storage)dyn_storage": {
        "base": "t_string_storage",
        "encoding": "dynamic_array",
        "label": "string[]",
        "numberOfBytes": "32"
      },
      "t_array(t_uint256)dyn_storage": {
        "base": "t_uint256",
        "encoding": "dynamic_array",
        "label": "uint256[]",
        "numberOfBytes": "32"
      },
      "t_bytes32": {
        "encoding": "inplace",
        "label": "bytes32",
        "numberOfBytes": "32"
      },
      "t_enum(Types)3129": {
        "encoding": "inplace",
        "label": "enum Core.Types",
        "numberOfBytes": "1"
      },
      "t_mapping(t_address,t_uint256)": {
        "encoding": "mapping",
        "key": "t_address",
        "label": "mapping(address => uint256)",
        "numberOfBytes": "32",
        "value": "t_uint256"
      },
      "t_mapping(t_bytes32,t_address)": {
        "encoding": "mapping",
        "key": "t_bytes32",
        "label": "mapping(bytes32 => address)",
        "numberOfBytes": "32",
        "value": "t_address"
      },
      "t_mapping(t_bytes32,t_enum(Types)3129)": {
        "encoding": "mapping",
        "key": "t_bytes32",
        "label": "mapping(bytes32 => enum Core.Types)",
        "numberOfBytes": "32",
        "value": "t_enum(Types)3129"
      },
      "t_mapping(t_bytes32,t_mapping(t_address,t_uint256))": {
        "encoding": "mapping",
        "key": "t_bytes32",
        "label": "mapping(bytes32 => mapping(address => uint256))",
        "numberOfBytes": "32",
        "value": "t_mapping(t_address,t_uint256)"
      },
      "t_mapping(t_bytes32,t_struct(InstanceStruct)3821_storage)": {
        "encoding": "mapping",
        "key": "t_bytes32",
        "label": "mapping(bytes32 => struct Subscriptions.InstanceStruct)",
        "numberOfBytes": "32",
        "value": "t_struct(InstanceStruct)3821_storage"
      },
      "t_mapping(t_bytes32,t_struct(SpaceInstance)3136_storage)": {
        "encoding": "mapping",
        "key": "t_bytes32",
        "label": "mapping(bytes32 => struct Core.SpaceInstance)",
        "numberOfBytes": "32",
        "value": "t_struct(SpaceInstance)3136_storage"
      },
      "t_string_storage": {
        "encoding": "bytes",
        "label": "string",
        "numberOfBytes": "32"
      },
      "t_struct(InstanceStruct)3821_storage": {
        "encoding": "inplace",
        "label": "struct Subscriptions.InstanceStruct",
        "members": [
          {
            "astId": 3818,
            "contract": "contracts/DBNS.sol:DBNS",
            "label": "creator",
            "offset": 0,
            "slot": "0",
            "type": "t_address"
          },
          {
            "astId": 3820,
            "contract": "contracts/DBNS.sol:DBNS",
            "label": "prize",
            "offset": 0,
            "slot": "1",
            "type": "t_uint256"
          }
        ],
        "numberOfBytes": "64"
      },
      "t_struct(SpaceInstance)3136_storage": {
        "encoding": "inplace",
        "label": "struct Core.SpaceInstance",
        "members": [
          {
            "astId": 3131,
            "contract": "contracts/DBNS.sol:DBNS",
            "label": "gatedContract",
            "offset": 0,
            "slot": "0",
            "type": "t_address"
          },
          {
            "astId": 3133,
            "contract": "contracts/DBNS.sol:DBNS",
            "label": "price",
            "offset": 0,
            "slot": "1",
            "type": "t_uint256"
          },
          {
            "astId": 3135,
            "contract": "contracts/DBNS.sol:DBNS",
            "label": "creator",
            "offset": 0,
            "slot": "2",
            "type": "t_address"
          }
        ],
        "numberOfBytes": "96"
      },
      "t_uint256": {
        "encoding": "inplace",
        "label": "uint256",
        "numberOfBytes": "32"
      }
    }
  }
}