{
  "address": "0x788613d4e65cB8A93ef7b2851Fa93B41C30C030a",
  "abi": [
    {
      "inputs": [
        {
          "internalType": "address",
          "name": "_registry",
          "type": "address"
        },
        {
          "internalType": "address",
          "name": "_registrar",
          "type": "address"
        },
        {
          "internalType": "address",
          "name": "_publicResolver",
          "type": "address"
        },
        {
          "internalType": "bytes32",
          "name": "_baseNode",
          "type": "bytes32"
        },
        {
          "internalType": "address",
          "name": "_unlockContract",
          "type": "address"
        },
        {
          "internalType": "address",
          "name": "_gateImplementation",
          "type": "address"
        }
      ],
      "stateMutability": "nonpayable",
      "type": "constructor"
    },
    {
      "inputs": [
        {
          "internalType": "uint256",
          "name": "chainid",
          "type": "uint256"
        }
      ],
      "name": "ChainNotSupported",
      "type": "error"
    },
    {
      "inputs": [],
      "name": "InstanceAlreadyExists",
      "type": "error"
    },
    {
      "inputs": [],
      "name": "InvalidTokenAmount",
      "type": "error"
    },
    {
      "inputs": [],
      "name": "InvalidTokenSender",
      "type": "error"
    },
    {
      "inputs": [],
      "name": "NoCodeOwner",
      "type": "error"
    },
    {
      "inputs": [],
      "name": "NoInstanceAccess",
      "type": "error"
    },
    {
      "inputs": [],
      "name": "NoInstanceCreator",
      "type": "error"
    },
    {
      "inputs": [],
      "name": "SubscribeToGainAccess",
      "type": "error"
    },
    {
      "anonymous": false,
      "inputs": [
        {
          "indexed": true,
          "internalType": "address",
          "name": "previousOwner",
          "type": "address"
        },
        {
          "indexed": true,
          "internalType": "address",
          "name": "newOwner",
          "type": "address"
        }
      ],
      "name": "OwnershipTransferred",
      "type": "event"
    },
    {
      "inputs": [],
      "name": "DBNS_NODE",
      "outputs": [
        {
          "internalType": "bytes32",
          "name": "",
          "type": "bytes32"
        }
      ],
      "stateMutability": "view",
      "type": "function"
    },
    {
      "inputs": [],
      "name": "DOMAIN_ID",
      "outputs": [
        {
          "internalType": "uint256",
          "name": "",
          "type": "uint256"
        }
      ],
      "stateMutability": "view",
      "type": "function"
    },
    {
      "inputs": [],
      "name": "PUBLIC_RESOLVER",
      "outputs": [
        {
          "internalType": "contract IFNSResolver",
          "name": "",
          "type": "address"
        }
      ],
      "stateMutability": "view",
      "type": "function"
    },
    {
      "inputs": [],
      "name": "REGISTRAR",
      "outputs": [
        {
          "internalType": "contract IFNSRegistrar",
          "name": "",
          "type": "address"
        }
      ],
      "stateMutability": "view",
      "type": "function"
    },
    {
      "inputs": [],
      "name": "REGISTRY",
      "outputs": [
        {
          "internalType": "contract IFNS",
          "name": "",
          "type": "address"
        }
      ],
      "stateMutability": "view",
      "type": "function"
    },
    {
      "inputs": [],
      "name": "TABLELAND",
      "outputs": [
        {
          "internalType": "contract ITablelandTables",
          "name": "",
          "type": "address"
        }
      ],
      "stateMutability": "view",
      "type": "function"
    },
    {
      "inputs": [
        {
          "internalType": "bytes32",
          "name": "",
          "type": "bytes32"
        }
      ],
      "name": "codeOwner",
      "outputs": [
        {
          "internalType": "address",
          "name": "",
          "type": "address"
        }
      ],
      "stateMutability": "view",
      "type": "function"
    },
    {
      "inputs": [
        {
          "internalType": "string",
          "name": "_name",
          "type": "string"
        }
      ],
      "name": "createDBSpace",
      "outputs": [],
      "stateMutability": "nonpayable",
      "type": "function"
    },
    {
      "inputs": [
        {
          "internalType": "bytes32",
          "name": "_DBSpace",
          "type": "bytes32"
        },
        {
          "internalType": "string",
          "name": "_name",
          "type": "string"
        }
      ],
      "name": "createDBSubSpace",
      "outputs": [],
      "stateMutability": "nonpayable",
      "type": "function"
    },
    {
      "inputs": [
        {
          "internalType": "bytes32",
          "name": "_instance",
          "type": "bytes32"
        },
        {
          "internalType": "string",
          "name": "_name",
          "type": "string"
        },
        {
          "internalType": "string",
          "name": "_about",
          "type": "string"
        },
        {
          "internalType": "string",
          "name": "_chatID",
          "type": "string"
        },
        {
          "internalType": "string",
          "name": "_codeIPNS",
          "type": "string"
        },
        {
          "internalType": "string",
          "name": "_IPNSEncryptedKey",
          "type": "string"
        }
      ],
      "name": "createInstanceCode",
      "outputs": [],
      "stateMutability": "nonpayable",
      "type": "function"
    },
    {
      "inputs": [
        {
          "internalType": "bytes32",
          "name": "_node",
          "type": "bytes32"
        },
        {
          "internalType": "uint256",
          "name": "_price",
          "type": "uint256"
        },
        {
          "internalType": "address[]",
          "name": "_members",
          "type": "address[]"
        },
        {
          "internalType": "string",
          "name": "_metadataCID",
          "type": "string"
        },
        {
          "internalType": "string",
          "name": "_chatID",
          "type": "string"
        },
        {
          "internalType": "string",
          "name": "_IPNS",
          "type": "string"
        },
        {
          "internalType": "string",
          "name": "_IPNSEncryptedKey",
          "type": "string"
        }
      ],
      "name": "createSpaceInstance",
      "outputs": [],
      "stateMutability": "nonpayable",
      "type": "function"
    },
    {
      "inputs": [
        {
          "internalType": "bytes32",
          "name": "_instanceID",
          "type": "bytes32"
        }
      ],
      "name": "extendInstanceSubscription",
      "outputs": [],
      "stateMutability": "payable",
      "type": "function"
    },
    {
      "inputs": [
        {
          "internalType": "address",
          "name": "_sender",
          "type": "address"
        },
        {
          "internalType": "address",
          "name": "_gatedContract",
          "type": "address"
        }
      ],
      "name": "getAccess",
      "outputs": [
        {
          "internalType": "bool",
          "name": "",
          "type": "bool"
        }
      ],
      "stateMutability": "view",
      "type": "function"
    },
    {
      "inputs": [
        {
          "internalType": "bytes32",
          "name": "_salt",
          "type": "bytes32"
        }
      ],
      "name": "getDeterministicAddress",
      "outputs": [
        {
          "internalType": "address",
          "name": "",
          "type": "address"
        }
      ],
      "stateMutability": "view",
      "type": "function"
    },
    {
      "inputs": [
        {
          "internalType": "bytes32",
          "name": "_instanceID",
          "type": "bytes32"
        },
        {
          "internalType": "address",
          "name": "_subscriber",
          "type": "address"
        }
      ],
      "name": "getRemainingSubscriptionTime",
      "outputs": [
        {
          "internalType": "uint256",
          "name": "",
          "type": "uint256"
        }
      ],
      "stateMutability": "view",
      "type": "function"
    },
    {
      "inputs": [],
      "name": "getTime",
      "outputs": [
        {
          "internalType": "uint256",
          "name": "",
          "type": "uint256"
        }
      ],
      "stateMutability": "view",
      "type": "function"
    },
    {
      "inputs": [
        {
          "internalType": "bytes32",
          "name": "_instanceID",
          "type": "bytes32"
        },
        {
          "internalType": "address",
          "name": "_subscriber",
          "type": "address"
        }
      ],
      "name": "hasActiveSubscription",
      "outputs": [
        {
          "internalType": "bool",
          "name": "",
          "type": "bool"
        }
      ],
      "stateMutability": "view",
      "type": "function"
    },
    {
      "inputs": [
        {
          "internalType": "bytes32",
          "name": "_instance",
          "type": "bytes32"
        },
        {
          "internalType": "address",
          "name": "_sender",
          "type": "address"
        }
      ],
      "name": "hasMutateAccess",
      "outputs": [
        {
          "internalType": "bool",
          "name": "access",
          "type": "bool"
        }
      ],
      "stateMutability": "view",
      "type": "function"
    },
    {
      "inputs": [
        {
          "internalType": "bytes32",
          "name": "_instance",
          "type": "bytes32"
        },
        {
          "internalType": "address",
          "name": "_sender",
          "type": "address"
        }
      ],
      "name": "hasViewAccess",
      "outputs": [
        {
          "internalType": "bool",
          "name": "",
          "type": "bool"
        }
      ],
      "stateMutability": "view",
      "type": "function"
    },
    {
      "inputs": [
        {
          "internalType": "bytes32",
          "name": "_instance",
          "type": "bytes32"
        },
        {
          "internalType": "address[]",
          "name": "_members",
          "type": "address[]"
        }
      ],
      "name": "insertNewMerbers",
      "outputs": [],
      "stateMutability": "nonpayable",
      "type": "function"
    },
    {
      "inputs": [
        {
          "internalType": "bytes32",
          "name": "",
          "type": "bytes32"
        }
      ],
      "name": "instanceLock",
      "outputs": [
        {
          "internalType": "address",
          "name": "creator",
          "type": "address"
        },
        {
          "internalType": "address",
          "name": "lockAddress",
          "type": "address"
        }
      ],
      "stateMutability": "view",
      "type": "function"
    },
    {
      "inputs": [
        {
          "internalType": "bytes32",
          "name": "",
          "type": "bytes32"
        },
        {
          "internalType": "address",
          "name": "",
          "type": "address"
        }
      ],
      "name": "instanceSubscriptions",
      "outputs": [
        {
          "internalType": "uint256",
          "name": "",
          "type": "uint256"
        }
      ],
      "stateMutability": "view",
      "type": "function"
    },
    {
      "inputs": [
        {
          "internalType": "bytes32",
          "name": "",
          "type": "bytes32"
        }
      ],
      "name": "instances",
      "outputs": [
        {
          "internalType": "address",
          "name": "gatedContract",
          "type": "address"
        },
        {
          "internalType": "uint256",
          "name": "price",
          "type": "uint256"
        },
        {
          "internalType": "address",
          "name": "creator",
          "type": "address"
        }
      ],
      "stateMutability": "view",
      "type": "function"
    },
    {
      "inputs": [
        {
          "internalType": "bytes32",
          "name": "",
          "type": "bytes32"
        }
      ],
      "name": "isType",
      "outputs": [
        {
          "internalType": "enum Core.Types",
          "name": "",
          "type": "uint8"
        }
      ],
      "stateMutability": "view",
      "type": "function"
    },
    {
      "inputs": [
        {
          "internalType": "address",
          "name": "",
          "type": "address"
        },
        {
          "internalType": "address",
          "name": "",
          "type": "address"
        },
        {
          "internalType": "address",
          "name": "",
          "type": "address"
        },
        {
          "internalType": "bytes",
          "name": "",
          "type": "bytes"
        }
      ],
      "name": "keyPurchasePrice",
      "outputs": [
        {
          "internalType": "uint256",
          "name": "minKeyPrice",
          "type": "uint256"
        }
      ],
      "stateMutability": "view",
      "type": "function"
    },
    {
      "inputs": [
        {
          "internalType": "address",
          "name": "",
          "type": "address"
        },
        {
          "internalType": "address",
          "name": "",
          "type": "address"
        },
        {
          "internalType": "uint256",
          "name": "tokenId",
          "type": "uint256"
        },
        {
          "internalType": "bytes",
          "name": "",
          "type": "bytes"
        }
      ],
      "name": "onERC721Received",
      "outputs": [
        {
          "internalType": "bytes4",
          "name": "",
          "type": "bytes4"
        }
      ],
      "stateMutability": "nonpayable",
      "type": "function"
    },
    {
      "inputs": [
        {
          "internalType": "uint256",
          "name": "",
          "type": "uint256"
        },
        {
          "internalType": "address",
          "name": "from",
          "type": "address"
        },
        {
          "internalType": "address",
          "name": "",
          "type": "address"
        },
        {
          "internalType": "address",
          "name": "",
          "type": "address"
        },
        {
          "internalType": "bytes",
          "name": "",
          "type": "bytes"
        },
        {
          "internalType": "uint256",
          "name": "",
          "type": "uint256"
        },
        {
          "internalType": "uint256",
          "name": "",
          "type": "uint256"
        }
      ],
      "name": "onKeyPurchase",
      "outputs": [],
      "stateMutability": "view",
      "type": "function"
    },
    {
      "inputs": [],
      "name": "owner",
      "outputs": [
        {
          "internalType": "address",
          "name": "",
          "type": "address"
        }
      ],
      "stateMutability": "view",
      "type": "function"
    },
    {
      "inputs": [
        {
          "internalType": "bytes32",
          "name": "_instanceID",
          "type": "bytes32"
        }
      ],
      "name": "purchaseInstanceSubscription",
      "outputs": [],
      "stateMutability": "payable",
      "type": "function"
    },
    {
      "inputs": [
        {
          "internalType": "bytes32",
          "name": "_instance",
          "type": "bytes32"
        },
        {
          "internalType": "address[]",
          "name": "_members",
          "type": "address[]"
        }
      ],
      "name": "removeMembers",
      "outputs": [],
      "stateMutability": "nonpayable",
      "type": "function"
    },
    {
      "inputs": [],
      "name": "renounceOwnership",
      "outputs": [],
      "stateMutability": "nonpayable",
      "type": "function"
    },
    {
      "inputs": [
        {
          "internalType": "uint256",
          "name": "",
          "type": "uint256"
        }
      ],
      "name": "tableIDs",
      "outputs": [
        {
          "internalType": "uint256",
          "name": "",
          "type": "uint256"
        }
      ],
      "stateMutability": "view",
      "type": "function"
    },
    {
      "inputs": [
        {
          "internalType": "uint256",
          "name": "",
          "type": "uint256"
        }
      ],
      "name": "tables",
      "outputs": [
        {
          "internalType": "string",
          "name": "",
          "type": "string"
        }
      ],
      "stateMutability": "view",
      "type": "function"
    },
    {
      "inputs": [
        {
          "internalType": "address",
          "name": "newOwner",
          "type": "address"
        }
      ],
      "name": "transferOwnership",
      "outputs": [],
      "stateMutability": "nonpayable",
      "type": "function"
    },
    {
      "inputs": [
        {
          "internalType": "bytes32",
          "name": "_codeID",
          "type": "bytes32"
        },
        {
          "internalType": "string",
          "name": "_name",
          "type": "string"
        },
        {
          "internalType": "string",
          "name": "_about",
          "type": "string"
        }
      ],
      "name": "updateCode",
      "outputs": [],
      "stateMutability": "nonpayable",
      "type": "function"
    },
    {
      "inputs": [
        {
          "internalType": "bytes32",
          "name": "_instanceID",
          "type": "bytes32"
        },
        {
          "internalType": "string",
          "name": "_metadataCID",
          "type": "string"
        }
      ],
      "name": "updateInstance",
      "outputs": [],
      "stateMutability": "nonpayable",
      "type": "function"
    },
    {
      "inputs": [],
      "name": "withdraw",
      "outputs": [],
      "stateMutability": "nonpayable",
      "type": "function"
    },
    {
      "inputs": [
        {
          "internalType": "bytes32",
          "name": "_instanceID",
          "type": "bytes32"
        }
      ],
      "name": "withdraw",
      "outputs": [],
      "stateMutability": "nonpayable",
      "type": "function"
    },
    {
      "stateMutability": "payable",
      "type": "receive"
    }
  ],
  "transactionHash": "0xecf5943d09e1354dd51395df13f29136f76473b25b504948674fb16f11769b19",
  "args": [
    "0x331e3228ca613F52B8E6a0F1EFD7000Cb6DFA581",
    "0x57f1887a8BF19b14fC0dF6Fd9B2acc9Af147eA85",
    "0x55608172cD23E7e1c2BD939f1C3210027EbD031a",
    "0x78f6b1389af563cc5c91f234ea46b055e49658d8b999eeb9e0baef7dbbc93fdb",
    "0xa4E2E8c8A18bd0641cb3288Bf7a55fb3A2F1880F",
    "0xf08a2D9F6CF61427e696C211BAB5d43BA73b2AB1"
  ],
  "numDeployments": 2,
  "solcInputHash": "cfcf1de45b0c0f3370fb2df21aaeaf30",
  "bytecode": "0x6101208060405234620007cd5760c081620049a08038038091620000248285620008ce565b833981010312620007cd576200003a81620008f2565b6200004860208301620008f2565b6200005660408401620008f2565b6060840151916200007860a06200007060808801620008f2565b9601620008f2565b6001600160a01b0394851660805290841660a05290831660c05260e091909152600280546001600160a01b031916918316919091179055620000b962000fa5565b16906101009182526200013e62000138604051620000d78162000896565b603881527f44425370616365494420746578742c20444253756253706163654f664944207460208201527f6578742c20444253756253706163654e616d652074657874000000000000000060408201526200013162000923565b9062000f28565b620009a0565b60405160e081016001600160401b0381118282101762000710576200024c91620001389160405260b281527f496e7374616e6365494420746578742c20696e7374616e63654f66537061636560208201527f20746578742c20696e7374616e63655479706520746578742c206d657461646160408201527f746143494420746578742c2063686174494420746578742c2049504e5320746560608201527f78742c2049504e53456e637279707465644b657920746578742c20676174656460808201527f436f6e747261637420746578742c20707269636520746578742c206c6f636b2060a0820152711d195e1d0b0818dc99585d1bdc881d195e1d60721b60c08201526200013162000c57565b60405160a081016001600160401b0381118282101762000710576200030c916200013891604052607081527f496e7374616e6365494420746578742c20636f6465494420746578742c206e6160208201527f6d6520746578742c2061626f757420746578742c20636861744944207465787460408201527f2c2049504e5320746578742c2049504e53456e637279707465644b657920746560608201526f1e1d0b0818dc99585d1bdc881d195e1d60821b60808201526200013162000c92565b6200037c62000138604051620003228162000896565b603b81527f496e7374616e6365494420746578742c2073756273637269626572207465787460208201527f2c20746f6b656e494420746578742c20656e647341742074657874000000000060408201526200013162000cbf565b620003c6620001386040516200039281620008b2565b601c81527f496e7374616e6365494420746578742c206d656d62657220746578740000000060208201526200013162000cea565b60018060a01b03825116604051906361a23d0f60e01b8252816044810130600483015260406024830152600354809152606482019060648160051b8401019160036000526020600020916000915b818310620007de57505050509181600081819503925af1908115620007d25760009162000726575b508051906001600160401b0382116200071057680100000000000000008211620007105760209060055483600555808410620006ef575b50016005600052602060002060005b838110620006da5785856200049662000923565b60055415620006c45760056000527f036b6384b5eca791c62761152d0c79bb0604c104a5fb6f4eb0703f3154bb3db054620004dd91620004d7919062000d3c565b62000b12565b620004e762000c57565b60055460011015620006c45760056000527f036b6384b5eca791c62761152d0c79bb0604c104a5fb6f4eb0703f3154bb3db1546200052b91620004d7919062000d3c565b6200053562000c92565b60055460021015620006c45760056000527f036b6384b5eca791c62761152d0c79bb0604c104a5fb6f4eb0703f3154bb3db2546200057991620004d7919062000d3c565b6200058362000cbf565b60055460031015620006c45760056000527f036b6384b5eca791c62761152d0c79bb0604c104a5fb6f4eb0703f3154bb3db354620005c791620004d7919062000d3c565b620005d162000cea565b60055460041015620006c45760056000527f036b6384b5eca791c62761152d0c79bb0604c104a5fb6f4eb0703f3154bb3db4546200061591620004d7919062000d3c565b60068054336001600160a01b0319821681179092556040519291906001600160a01b03167f8be0079c531659141344cd1fd0a4f28419497f9722a3daafe3b4186f6b6457e0600080a3600980546001600160a01b0319166001600160a01b0392909216919091179055613849918262001157833960805182612261015260a0518281816105ee015261200c015260c051826101dd015260e0518261205e0152518181816105a901526134160152f35b634e487b7160e01b600052603260045260246000fd5b60019060208451940193818401550162000482565b620007099060056000528484600020918201910162000987565b3862000473565b634e487b7160e01b600052604160045260246000fd5b90503d806000833e6200073a8183620008ce565b810190602081830312620007cd578051906001600160401b038211620007cd57019080601f83011215620007cd578151916001600160401b03831162000710578260051b9060405193620007926020840186620008ce565b8452602080850192820101928311620007cd57602001905b828210620007bc57505050386200043c565b8151815260209182019101620007aa565b600080fd5b6040513d6000823e3d90fd5b878503606319018152835493955091939092600091620007fe826200094a565b808252916001811690811562000872575060011462000831575b5050602060018092960192019301909186949362000414565b909150856000526020600020916000925b8184106200085b57505001602090810190600162000818565b600181602092548387870101520193019262000842565b60ff191660208381019190915292151560051b909101820192506001905062000818565b606081019081106001600160401b038211176200071057604052565b604081019081106001600160401b038211176200071057604052565b601f909101601f19168101906001600160401b038211908210176200071057604052565b51906001600160a01b0382168203620007cd57565b6001600160401b0381116200071057601f01601f191660200190565b604051906200093282620008b2565b600982526864625f73706163657360b81b6020830152565b90600182811c921680156200097c575b60208310146200096657565b634e487b7160e01b600052602260045260246000fd5b91607f16916200095a565b81811062000993575050565b6000815560010162000987565b60035468010000000000000000811015620007105760019182820180600355821015620006c4576003600090815281517fc2575a0e9e593c00f959f8c92f12db2869c3395a3b0502d05e2516446f71f85b90930193602093929091906001600160401b03841162000afe5762000a1786546200094a565b601f811162000ac0575b508491601f851160011462000a5d57939450849291908362000a51575b50501b916000199060031b1c1916179055565b01519250388062000a3e565b86815285812093958591601f198316915b8883831062000aa5575050501062000a8b575b505050811b019055565b015160001960f88460031b161c1916905538808062000a81565b85870151885590960195948501948793509081019062000a6e565b62000aec90878452868420601f870160051c81019188881062000af3575b601f0160051c019062000987565b3862000a21565b909150819062000ade565b634e487b7160e01b82526041600452602482fd5b60048054906801000000000000000082101562000c4257600180830180835583101562000c2d576000828152602080822086519501959094936001600160401b03851162000c1a575062000b6786546200094a565b601f811162000be8575b508491601f851160011462000ba057939450849291908362000a515750501b916000199060031b1c1916179055565b86815285812093958591601f198316915b8883831062000bcd575050501062000a8b57505050811b019055565b85870151885590960195948501948793509081019062000bb1565b62000c1390878452868420601f870160051c81019188881062000af357601f0160051c019062000987565b3862000b71565b634e487b7160e01b835260419052602482fd5b603282634e487b7160e01b6000525260246000fd5b604190634e487b7160e01b6000525260246000fd5b6040519062000c6682620008b2565b601382527f64625f7370616365735f696e7374616e636573000000000000000000000000006020830152565b6040519062000ca182620008b2565b600f82526e696e7374616e6365735f636f64657360881b6020830152565b6040519062000cce82620008b2565b600d82526c737562736372697074696f6e7360981b6020830152565b6040519062000cf982620008b2565b60078252666d656d6265727360c81b6020830152565b9081519160005b83811062000d28575050016000815290565b806020809284010151818501520162000d16565b62000da59062000d9662000d7893600162000d6262000d5b4662000da8565b9262000da8565b9162000d8b604051978896602088019062000d0f565b9183605f60f81b93848152019062000d0f565b908152019062000d0f565b03601f198101835282620008ce565b90565b806000917a184f03e93ff9f4daa797ed6e38ed64bf6a1f0100000000000000008082101562000f19575b506d04ee2d6d415b85acef81000000008083101562000f09575b50662386f26fc100008083101562000ef9575b506305f5e1008083101562000ee9575b506127108083101562000ed9575b50606482101562000ec8575b600a8092101562000ebd575b6001908160218186019562000e4a8762000907565b9662000e5a6040519889620008ce565b80885262000e6b601f199162000907565b01366020890137860101905b62000e84575b5050505090565b600019019083906f181899199a1a9b1b9c1cb0b131b232b360811b8282061a83530491821562000eb75791908262000e77565b62000e7d565b916001019162000e35565b919060646002910491019162000e29565b6004919392049101913862000e1d565b6008919392049101913862000e0f565b6010919392049101913862000dff565b6020919392049101913862000dec565b60409350810491503862000dd2565b600162000f709262000f8e62000da5938362000f7f62000f484662000da8565b82604051998a976c021a922a0aa22902a20a126229609d1b60208a0152602d89019062000d0f565b605f60f81b8152019062000d0f565b600560fb1b8152019062000d0f565b602960f81b815203601e19810184520182620008ce565b4660010362000fc65773012969f7e3439a9b04025b5a049eb9bad82a8c1290565b46600a0362000fe75773fad44bf5b843de943a09d4f3e84949a11d3aa3e690565b4661a4b1036200100957739abd75e8640871a5a20d3b4ee6330a04c962affd90565b4661a4ba036200102b57731a22854c5b1642760a827f20137a67930ae108d290565b466089036200104c57735c4e6a9e5c1e1bf445a062006faf19ea6c49afea90565b4661013a036200106e577359ef8bf2d6c102b4c42aef9189e1a9f0abfd652d90565b4662aa36a703620010915773c50c62498448acc8dbde43da77f8d5d2e2c7597d90565b466101a403620010b35773c72e8a7be04f2469f8c2db3f1bdf69a7d516abba90565b4662066eee03620010d65773223a74b8323914afdc3ff1e5005564dc17231d6e90565b466201388103620010f957734b48841d4b32c4650e4abc117a03fe8b51f38f6890565b466204cb2f036200111c5773030bcf3d50cad04c2e57391b12740982a930862190565b46617a69036200113e5773e7f1725e7734ce288f8367e1bb143e90bb3f051290565b60405163264e42cf60e01b8152466004820152602490fdfe608080604052600436101561001d575b50361561001b57600080fd5b005b600090813560e01c90816306433b1b1461224d575080630c9ddf6d146120d057806311ad2f341461209d578063150b7a0214611fc2578063221c1fd114611f105780632711447f14611ec3578063284e82e814611d565780633ac27522146115b95780633ccfd60b146115965780633e203835146115675780633ec29e721461141557806347d121c5146113ee578063557ed1ba146113d35780635e895f291461137157806367e09709146112d8578063715018a61461127a57806371671bf21461114e5780637a9b7774146110d8578063820cc557146110ba57806383a8b3d014610caf57806384ec965314610c825780638897538314610c5b5780638a8fd25014610c095780638da5cb5b14610be05780638e19899e14610b095780639ad66a23146107a2578063a58dcc9514610722578063a5df63d6146106f1578063bfc51b7e1461065b578063c6a36c4b1461061d578063cb609077146105d8578063d68d087c14610593578063db7baba914610576578063dd321bfc1461052f578063e0cf1e4c14610322578063e2b1e4ed146102d5578063f2fde38b1461020f5763ffeb4a300361000f573461020c578060031936011261020c576040517f00000000000000000000000000000000000000000000000000000000000000006001600160a01b03168152602090f35b80fd5b503461020c57602036600319011261020c576102296122bd565b6102316125c2565b6001600160a01b0390811690811561028157600654826001600160601b0360a01b821617600655167f8be0079c531659141344cd1fd0a4f28419497f9722a3daafe3b4186f6b6457e0600080a380f35b60405162461bcd60e51b815260206004820152602660248201527f4f776e61626c653a206e6577206f776e657220697320746865207a65726f206160448201526564647265737360d01b6064820152608490fd5b503461020c57602036600319011261020c576004358152600c60205260ff60408220541660405190600781101561030e57602092508152f35b634e487b7160e01b83526021600452602483fd5b503461020c5761033136612411565b8183929352602090600a8252604083209360018060a01b039461035f866002818454169301541633146128a9565b806104c3575b5061036f906132f0565b91835b82518110156104bf576104ba906104b5660102ba422a922960cd1b88610458886104ae896103d38a6103a26124d8565b969054978b6103df6103da6103b56131b6565b936103be6124d8565b989054946103cd60039d612da6565b9a6131e6565b5116612e15565b612da6565b9461044f6040519687878101996c024b739ba30b731b2a4a2101e9609d1b8b526d01020a7221036b2b6b132b9101e960951b815161042581602d948d868801910161257a565b83019182015282519061044082603b958c878501910161257a565b0103601b81018952018761237b565b881b1c90612bc1565b916040519889936b02222a622aa2290232927a6960a51b8486015261048781518092602c96878901910161257a565b840192830152519061049f826033958684019061257a565b0103601381018752018561237b565b1b1c613414565b613191565b610372565b8480f35b803b1561052b5784604051809263362eb0ab60e11b82528660048301528183816104f0602482018a6128e1565b03925af1801561052057908591610508575b50610365565b61051190612332565b61051c578338610502565b8380fd5b6040513d87823e3d90fd5b8480fd5b503461020c57604036600319011261020c57604061054b6122d3565b9160043581526007602052209060018060a01b03166000526020526020604060002054604051908152f35b503461020c578060031936011261020c5760209054604051908152f35b503461020c578060031936011261020c576040517f00000000000000000000000000000000000000000000000000000000000000006001600160a01b03168152602090f35b503461020c578060031936011261020c576040517f00000000000000000000000000000000000000000000000000000000000000006001600160a01b03168152602090f35b503461020c57602036600319011261020c5760408091600435815260086020522060018060a01b036001818354169201541682519182526020820152f35b503461020c5761066a366122ff565b909291808352600c60205260ff60408420541660078110156106dd576106da939461069a60056106d4931461266c565b6106b56106a8368684612635565b602081519101208461291e565b808752600c60205260408720805460ff19166005179055933691612635565b91612a04565b80f35b634e487b7160e01b84526021600452602484fd5b503461020c57604036600319011261020c5760206107186107106122d3565b60043561366c565b6040519015158152f35b503461020c57602036600319011261020c57602060018060a01b03605560438260025416604051903060388301526f5af43d82803e903d91602b57fd5bf3ff60248301526014820152733d602d80600a3d3981f3363d3d373d3d3d363d73815260043560588201526037600c820120607882015201209060405191168152f35b506003199060203683018113610b0557600435926040516107c281612345565b600190818152833681830137604051916107db83612345565b808352843681850137604051936107f185612345565b8185528536818701376040519461080786612345565b82865286860193873686376040519461081f86612345565b848652888a5b818110610af5575060405161083981612345565b86815281369101378a8a52600889526040808b2086015490516310e5697360e01b81526001600160a01b0390911697908a816004818c5afa908115610aea578c91610ab8575b50918b98969391999795949230610895846131d9565b5261089f896131d9565b52336108aa8b6131d9565b52604051633381899760e01b815260a06004820152975160a4890181905297998a9860c48a0192908b8e5b828210610a8b5750505050916108fc8261091c9594888c61090c96030160248d01526128e1565b90868a83030160448b01526128e1565b90848883030160648901526128e1565b9185830301608486015282518083528883019289808360051b83010195019388915b8b848410610a565750505050505050828091039134905af18015610a4b5783906109b5575b61096d91506131d9565b519083835260078152604083209033600052528060406000205562278d004201908142116109a1576106da9293339061304c565b634e487b7160e01b83526011600452602483fd5b503d8084833e6109c5818361237b565b810190828183031261051c578051906001600160401b03821161052b57019080601f8301121561051c5781516109fa8161239c565b92610a08604051948561237b565b818452848085019260051b820101928311610a475784809101915b838310610a37575050505061096d90610963565b8251815291810191859101610a23565b8580fd5b6040513d85823e3d90fd5b919497995092958792959850610a778291601f198682030187528a5161259d565b9801930193018a979592938997959261093e565b9194889b9d5083839295979994989a9b9d505181520195019101908b99979694928e9b999694928e6108d5565b90508a81813d8311610ae3575b610acf818361237b565b81010312610ade57513861087f565b600080fd5b503d610ac5565b6040513d8e823e3d90fd5b606082828a010152018990610825565b5080fd5b503461020c57602036600319011261020c57600435815260086020526040812060405190610b3682612345565b80546001600160a01b0390811680845260019092015481166020840190815290913303610bce57819051169083823192803b15610b0557818091606460405180948193636ce5768960e11b83528160048401523060248401528960448401525af18015610bc357610baf575b50506106da925116613738565b610bb890612332565b61051c578338610ba2565b6040513d84823e3d90fd5b60405163c00f906f60e01b8152600490fd5b503461020c578060031936011261020c576006546040516001600160a01b039091168152602090f35b503461020c57602036600319011261020c57600435600554811015610b055760209060056000527f036b6384b5eca791c62761152d0c79bb0604c104a5fb6f4eb0703f3154bb3db00154604051908152f35b503461020c57604036600319011261020c576020610718610c7a6122d3565b6004356127c5565b503461020c57604036600319011261020c576020610718610ca16122bd565b610ca96122d3565b90612972565b503461020c5760c036600319011261020c576004356024356001600160401b0381116110b657610ce3903690600401612290565b6044929192356001600160401b03811161052b57610d05903690600401612290565b9190926064356001600160401b0381116110b257610d27903690600401612290565b91906084356001600160401b0381116110ae57610d48903690600401612290565b969060a4356001600160401b0381116110aa57610d69903690600401612290565b939092610d7633876127c5565b15611098578b9a8b988b6040518060209c8d8201938c8552808a60408501378201906040820152038c81018252604001610db0908261237b565b519020809d528d600c8b52604090205460ff16600781101561108457611072578c8e52600b8a526040808f208054336001600160a01b0319909116179055600c8b528e20805460ff19166006179055610e0b91369190612635565b983690610e1792612635565b953690610e2392612635565b973690610e2f92612635565b913690610e3b92612635565b96610e44612454565b97905496610e50612f2d565b93610e59612454565b9b905496610e66906132f0565b610e6f90612da6565b94610e79906132f0565b610e8290612da6565b92610e8c90612da6565b97610e9690612da6565b93610ea090612da6565b91610eaa90612da6565b90610eb490612da6565b91610ebe33612e15565b610ec790612da6565b948a6040519a888c9951908184808d01920191610ee39261257a565b890196600b60fa1b978884820152815191828560218401920191610f069261257a565b01908760218301528051809360228401920191610f229261257a565b01856022820152815191828d60238401920191610f3e9261257a565b01846023820152815191828c60248401920191610f5a9261257a565b01836024820152815191828b60258401920191610f769261257a565b01826025820152815191828a60268401920191610f929261257a565b01906026820152815191828860278401920191610fae9261257a565b0103600781018452602701610fc3908461237b565b6040519160808301978389106001600160401b038a111761105c577f496e7374616e636549442c20636f646549442c206e616d652c2061626f75742c611052966106da9a604052604886528501527f206368617449442c2049504e532c2049504e53456e637279707465644b65792c6040850152671031b932b0ba37b960c11b606085015260031b1c90612b21565b9160031b1c613414565b634e487b7160e01b600052604160045260246000fd5b604051631144626f60e01b8152600490fd5b634e487b7160e01b8f52602160045260248ffd5b6040516346627df160e01b8152600490fd5b8a80fd5b8880fd5b8680fd5b8280fd5b503461020c578060031936011261020c576020600154604051908152f35b503461020c57602036600319011261020c576004356001600160401b038111610b055761110c6106da913690600401612290565b6106d461112c855461111f368587612635565b602081519101209061291e565b92838652600c60205260408620600560ff198254161790558554923691612635565b503461020c57602080600319360112610b05576004356004548110156110b65760046000527f8a35acfbc15ff81a39ae7d344fd709f28e8600b4aa8c65c6b64bfe7fe36bd19b0190604051918381549460019086821c93828816978815611270575b868610891461125c57868899878a98999a5291826000146112385750506001146111fc575b5050506111e49250038361237b565b6111f860405192828493845283019061259d565b0390f35b869350819291528282205b8583106112205750506111e493508201013880806111d5565b80548389018501528794508693909201918101611207565b9350945050506111e494915060ff191682840152151560051b8201013880806111d5565b634e487b7160e01b83526022600452602483fd5b94607f16946111b0565b503461020c578060031936011261020c576112936125c2565b600680546001600160a01b031981169091556000906001600160a01b03167f8be0079c531659141344cd1fd0a4f28419497f9722a3daafe3b4186f6b6457e08280a380f35b503461020c576112e736612411565b818352600a602052826040812061130f60018060a01b036002818454169301541633146128a9565b80611320575b50506106da916131fa565b803b15610b0557816040518092632f41d6e160e21b82526020600483015281838161134e602482018a6128e1565b03925af18015610bc357156113155761136690612332565b6110b6578238611315565b503461020c5760e036600319011261020c5761138b6122d3565b6113936122e9565b506001600160a01b0360643581811603610ade576084356001600160401b03811161051c576113c6903690600401612290565b50503091160361020c5780f35b503461020c578060031936011261020c576020604051428152f35b503461020c57604036600319011261020c57602061071861140d6122d3565b6004356126d8565b503461020c57611424366122ff565b828452600a6020908152604085206002015490939291906001600160a01b03163303611522576115086114616106da959493611052933691612635565b9261146a6124a1565b95905494611496611518602d61147e612de6565b946114de6103da61148d6124a1565b96905497612da6565b986114d9602e604051809c6d036b2ba30b230ba30a1a4a2101e960951b888301526114c9815180928a868601910161257a565b810103600e81018d52018b61237b565b6132f0565b60405198826c024b739ba30b731b2a4a2101e9609d1b8b948501528251928391868601910161257a565b810103600d81018852018661237b565b60031b1c90612f58565b60405162461bcd60e51b815260048101859052601860248201527f44424e533a204e6f20696e7374616e63652061636365737300000000000000006044820152606490fd5b503461020c57604036600319011261020c57602061158e6115866122d3565b600435613697565b604051908152f35b503461020c578060031936011261020c576115af6125c2565b6106da4733613738565b503461020c5760e036600319011261020c576001600160401b036044351161020c5736602360443501121561020c576001600160401b03604435600401351161020c573660246044356004013560051b60443501011161020c576064356001600160401b038111610b0557611632903690600401612290565b6084356001600160401b03811161051c57611651903690600401612290565b9260a4356001600160401b038111610a4757611671903690600401612290565b94909160c4356001600160401b038111611d5257611693903690600401612290565b94906004358952600c60205260ff60408a2054166007811015611d3e5760056116bc911461266c565b60405160208101906004358252898760408301376116ed6040828d8d8201908382015203602081018452018261237b565b51902094858a52600c60205260ff60408b2054166007811015611d2a5761107257899260443560040135611bba575b6040518060608101106001600160401b0360608301111761105c578060608d920160405260018060a01b0386168152602435602082015260026040808301933385528b8152600a60205220602060018060a01b03845116936001600160601b0360a01b948584541617835501516001820155019160018060a01b03905116908254161790558a60018060a01b03851615156024351515600014611b3f575050868b52600c60205260408b20805460ff191660031790556117e6876117de6126b8565b6024356134a3565b945b878c52600c60205260ff60408d2054169960078b1015611b2b57369061180d92612635565b95369061181992612635565b98369061182592612635565b95369061183192612635565b9661183a6124a1565b97905496611846612de6565b9461184f6124a1565b9b90549861185c906132f0565b61186590612da6565b956118716004356132f0565b61187a90612da6565b9461188490612c3e565b61188d90612da6565b9861189790612da6565b956118a190612da6565b936118ab90612da6565b916118b590612da6565b906118bf90612e15565b6118c890612da6565b916118d4602435612c3e565b6118dd90612da6565b936118e790612e15565b6118f090612da6565b946118fa33612e15565b61190390612da6565b976040519b8c8b819c51602081930191602001916119209261257a565b8b0198600b60fa1b998a6020820152815191826021830191602001916119459261257a565b01896021820152815191826022830191602001916119629261257a565b018860228201528151918260238301916020019161197f9261257a565b018760238201528151918260248301916020019161199c9261257a565b01866024820152815191826025830191602001916119b99261257a565b01856025820152815191826026830191602001916119d69261257a565b01846026820152815191826027830191602001916119f39261257a565b0183602782015281519182602883019160200191611a109261257a565b0182602882015281519182602983019160200191611a2d9261257a565b0190602982015281519182602a83019160200191611a4a9261257a565b0103600a81018352602a01611a5f908361237b565b6040519060a08201938285106001600160401b0386111761105c576106da9761105295604052607b84527f496e7374616e636549442c20696e7374616e63654f6653706163652c20696e7360208501527f74616e6365547970652c206d657461646174614349442c206368617449442c2060408501527f49504e532c2049504e53456e637279707465644b65792c206761746564436f6e60608501527f74726163742c2070726963652c206c6f636b2c2063726561746f720000000000608085015260031b1c90612b21565b634e487b7160e01b8d52602160045260248dfd5b8080611bb3575b15611b76575050868b52600c60205260408b20805460ff19166001179055611b70876117de6126b8565b946117e8565b90959015611b9a57878c52600c60205260408c20805460ff191660021790556117e8565b600c60205260408c20805460ff191660041790556117e8565b508c611b46565b9250611bd236604435600401356024604435016123b3565b600254608881901c62ffffff16763d602d80600a3d3981f3363d3d373d3d3d363d73000000178c5260781b6effffffffffffffffffffffffffffff19166e5af43d82803e903d91602b57fd5bf31760205286603760098df5906001600160a01b03821615611ce5578b8091604051611c7581611c67602082019463a224cee760e01b86526020602484015260448301906128e1565b03601f19810183528261237b565b519082855af1611c83612942565b5015611cae5792611ca9611ca336604435600401356024604435016123b3565b886131fa565b61171c565b60405162461bcd60e51b815260206004820152600f60248201526e6572726f72206465706c6f79696e6760881b6044820152606490fd5b60405162461bcd60e51b815260206004820152601760248201527f455243313136373a2063726561746532206661696c65640000000000000000006044820152606490fd5b634e487b7160e01b8b52602160045260248bfd5b634e487b7160e01b8a52602160045260248afd5b8780fd5b506020908160031936011261020c5760043591611d733384613697565b838352600782526040808420338552835280842054858552600884528185206001015491516310e5697360e01b815292939092916001600160a01b0316908083600481855afa928315611eb8578693611e89575b50813b15610a475791859160405193849263d813cc1960e01b8452600484015285602484015230604484015260809081606485015260605191826084860152855b838110611e715750505060a483828683839584010152601f8019910116810103019134905af18015611e6657611e53575b5062278d0082018092116109a1576106da9293339061304c565b611e5f90939193612332565b9138611e39565b6040513d86823e3d90fd5b8082015188820160a401528a96508795508201611e08565b9080935081813d8311611eb1575b611ea1818361237b565b81010312610a4757519138611dc7565b503d611e97565b6040513d88823e3d90fd5b503461020c57602036600319011261020c5760406060916004358152600a6020522060018060a01b0390818154169160026001830154920154169060405192835260208301526040820152f35b503461020c57608036600319011261020c57611f2a6122bd565b50611f336122d3565b50611f3c6122e9565b506064356001600160401b038111610b0557611f5c903690600401612290565b50506040516310e5697360e01b8152602081600481335afa908115610bc3578291611f8d575b602082604051908152f35b90506020813d8211611fba575b81611fa76020938361237b565b81010312610b0557602091505138611f82565b3d9150611f9a565b503461020c57608036600319011261020c57611fdc6122bd565b50611fe56122d3565b506044356064356001600160401b0381116110b657612008903690600401612290565b50507f00000000000000000000000000000000000000000000000000000000000000006001600160a01b0316330361208b57815415612054575b604051630a85bd0160e11b8152602090f35b80612082916001557f000000000000000000000000000000000000000000000000000000000000000061291e565b90553880612042565b604051634a93b62160e11b8152600490fd5b503461020c57602036600319011261020c576020906004358152600b8252604060018060a01b0391205416604051908152f35b503461020c57606036600319011261020c576004356001600160401b0360243581811161051c57612105903690600401612290565b909160443590811161052b5761211f903690600401612290565b848652600b60209081526040872054909391906001600160a01b0316330361223b576106da956121656110529461215d60299861222b963691612635565b933691612635565b916121a0611518612174612454565b999054986122056103da612186612f2d565b976114d960316121a6612197612454565b9a90549b612da6565b9c612da6565b9b6040519c8d916603730b6b2901e960cd1b898401526121cf815180928b60278701910161257a565b8201690161030b137baba101e960b51b60278201526121f6825180938b878501910161257a565b0103601181018d52018b61237b565b604051988268031b7b232a4a2101e960bd1b8b948501528251928391868601910161257a565b810103600981018852018661237b565b6040516306815cbd60e41b8152600490fd5b905034610b055781600319360112610b05577f00000000000000000000000000000000000000000000000000000000000000006001600160a01b03168152602090f35b9181601f84011215610ade578235916001600160401b038311610ade5760208381860195010111610ade57565b600435906001600160a01b0382168203610ade57565b602435906001600160a01b0382168203610ade57565b604435906001600160a01b0382168203610ade57565b906040600319830112610ade5760043591602435906001600160401b038211610ade5761232e91600401612290565b9091565b6001600160401b03811161105c57604052565b604081019081106001600160401b0382111761105c57604052565b606081019081106001600160401b0382111761105c57604052565b90601f801991011681019081106001600160401b0382111761105c57604052565b6001600160401b03811161105c5760051b60200190565b92916123be8261239c565b916123cc604051938461237b565b829481845260208094019160051b8101928311610ade57905b8282106123f25750505050565b81356001600160a01b0381168103610ade5781529083019083016123e5565b906040600319830112610ade5760043591602435906001600160401b038211610ade5780602383011215610ade57816024612451936004013591016123b3565b90565b6005546002101561248b5760056000527f036b6384b5eca791c62761152d0c79bb0604c104a5fb6f4eb0703f3154bb3db290600090565b634e487b7160e01b600052603260045260246000fd5b6005546001101561248b5760056000527f036b6384b5eca791c62761152d0c79bb0604c104a5fb6f4eb0703f3154bb3db190600090565b6005546004101561248b5760056000527f036b6384b5eca791c62761152d0c79bb0604c104a5fb6f4eb0703f3154bb3db490600090565b6005541561248b5760056000527f036b6384b5eca791c62761152d0c79bb0604c104a5fb6f4eb0703f3154bb3db090600090565b6005546003101561248b5760056000527f036b6384b5eca791c62761152d0c79bb0604c104a5fb6f4eb0703f3154bb3db390600090565b60005b83811061258d5750506000910152565b818101518382015260200161257d565b906020916125b68151809281855285808601910161257a565b601f01601f1916010190565b6006546001600160a01b031633036125d657565b606460405162461bcd60e51b815260206004820152602060248201527f4f776e61626c653a2063616c6c6572206973206e6f7420746865206f776e65726044820152fd5b6001600160401b03811161105c57601f01601f191660200190565b9291926126418261261a565b9161264f604051938461237b565b829481845281830111610ade578281602093846000960137010152565b1561267357565b60405162461bcd60e51b815260206004820152601b60248201527f44424e533a204e6f6465206973206e6f742061207375626e6f646500000000006044820152606490fd5b604051906126c582612345565b600482526344424e5360e01b6020830152565b906000828152600a60205260018060a01b0360408220541690600c60205260ff60408220541660078110156127b1576003036127195750506124519161366c565b838152600c60205260ff60408220541660078110156127b15760010361275a57506127449082612972565b91821561275057505090565b612451925061366c565b8392508093915052600c60205260ff604083205416600781101561030e5760021490811561278f575b50156124515750600190565b825250600c602052604081205460ff1660078110156127b15760041438612783565b634e487b7160e01b82526021600452602482fd5b919060008091848352600a60205260018060a01b038060408520541695600c60205260ff604086205416936007851015978861289557600386036128405750508452600a60205280600260408620015416911614935b6127b15760048111908115612837575b506128335750565b9150565b9050153861282b565b93925096505083956001841460001461286557509061285e91612972565b935b61281b565b955083956002841460001461287f57509061285e91612972565b955050508160048203612860576001945061281b565b634e487b7160e01b87526021600452602487fd5b156128b057565b60405162461bcd60e51b81526020600482015260096024820152684e6f2061636365737360b81b6044820152606490fd5b90815180825260208080930193019160005b828110612901575050505090565b83516001600160a01b0316855293810193928101926001016128f3565b90604051906020820192835260408201526040815261293c81612360565b51902090565b3d1561296d573d906129538261261a565b91612961604051938461237b565b82523d6000602084013e565b606090565b6000916001600160a01b039081169190826129905750505050600090565b602460209260405194859384926370a0823160e01b84521660048301525afa9182156129f85780926129c4575b5050151590565b9091506020823d82116129f0575b816129df6020938361237b565b8101031261020c57505138806129bd565b3d91506129d2565b604051903d90823e3d90fd5b611052612b1f93612a1361250f565b9490549360405190612a2482612345565b600982526103da612ace60226020956864625f73706163657360b81b87870152612a6d612a676103da612a61612a5861250f565b989054996132f0565b936132f0565b98612da6565b6040519882612a858b945180928c808801910161257a565b830190600b60fa1b91828b820152612aa6825180938d60218501910161257a565b01906021820152612abf825180938b878501910161257a565b0103600281018852018661237b565b7f4442537061636549442c20444253756253706163654f6649442c20444253756260405194612afc86612360565b602986528501526853706163654e616d6560b81b604085015260031b1c90612b21565b565b92612b326036926124519495612bc1565b906040519485926b024a729a2a92a1024a72a27960a51b6020850152612b62815180926020602c8801910161257a565b8301600560fb1b602c820152612b82825180936020602d8501910161257a565b0167052ac8298aa8aa6560c31b602d820152612ba882518093602060358501910161257a565b01602960f81b603582015203601681018452018261237b565b602261245191612bd9612bd346612c3e565b94612c3e565b6040519482612bf287945180926020808801910161257a565b830190605f60f81b91826020820152612c1582518093602060218501910161257a565b01906021820152612c2f825180936020878501910161257a565b0103600281018452018261237b565b806000917a184f03e93ff9f4daa797ed6e38ed64bf6a1f01000000000000000080821015612d98575b506d04ee2d6d415b85acef810000000080831015612d89575b50662386f26fc1000080831015612d7a575b506305f5e10080831015612d6b575b5061271080831015612d5c575b506064821015612d4c575b600a80921015612d42575b60019081602181860195612cd78761261a565b96612ce5604051988961237b565b808852612cf4601f199161261a565b01366020890137860101905b612d0c575b5050505090565b600019019083906f181899199a1a9b1b9c1cb0b131b232b360811b8282061a835304918215612d3d57919082612d00565b612d05565b9160010191612cc4565b9190606460029104910191612cb9565b60049193920491019138612cae565b60089193920491019138612ca1565b60109193920491019138612c92565b60209193920491019138612c80565b604093508104915038612c67565b61245160226040518093602760f81b90816020840152612dd081518092602060218701910161257a565b820190602182015203600281018452018261237b565b60405190612df382612345565b601382527264625f7370616365735f696e7374616e63657360681b6020830152565b604051906001600160a01b0316612e2b82612360565b602a825260208201604036823782511561248b5760309053815160019081101561248b57607860218401536029905b808211612eae575050612e6a5790565b606460405162461bcd60e51b815260206004820152602060248201527f537472696e67733a20686578206c656e67746820696e73756666696369656e746044820152fd5b9091600f81166010811015612f07576f181899199a1a9b1b9c1cb0b131b232b360811b901a612edd8486612f1c565b5360041c918015612ef2576000190190612e5a565b60246000634e487b7160e01b81526011600452fd5b60246000634e487b7160e01b81526032600452fd5b90815181101561248b570160200190565b60405190612f3a82612345565b600f82526e696e7374616e6365735f636f64657360881b6020830152565b90612f6591939293612bc1565b9060405191602091828401928484106001600160401b0385111761105c5761245194602c9460405260008152918051613007575b50612ff86040519687946602aa82220aa22960cd1b84870152612fc5815180928660278a01910161257a565b85016401029a2aa160dd1b6027820152612fe782518093868a8501910161257a565b01918351938491878501910161257a565b0103600c81018452018261237b565b90915061304560276040518093660102ba422a922960cd1b868301526130358151809288868601910161257a565b810103600781018452018261237b565b9038612f99565b9091612b1f936110529161305e612543565b959054946103da61314260236040519461307786612345565b600d86526020966c737562736372697074696f6e7360981b888801526130c56103da6130bf6103da612bd36103da6130b96130b0612543565b9c90549d6132f0565b97612e15565b9a612c3e565b9060405199836130de8c955180928d808901910161257a565b840191600b60fa1b92838c8201526131008c835193849160218501910161257a565b0182602182015261311a825180938d60228501910161257a565b01906022820152613133825180938b878501910161257a565b0103600381018852018661237b565b7f496e7374616e636549442c20737562736372696265722c20746f6b656e49442c6040519461317086612360565b602786528501526608195b991cd05d60ca1b604085015260031b1c90612b21565b60001981146131a05760010190565b634e487b7160e01b600052601160045260246000fd5b604051906131c382612345565b60078252666d656d6265727360c81b6020830152565b80511561248b5760200190565b805182101561248b5760209160051b010190565b613206909291926132f0565b9160005b81518110156132ea576132e5906104b56132226124d8565b905461322c6131b6565b916132dd6132386124d8565b90546003956132468d612da6565b9161325f6103da8d6103d38d60018060a01b03926131e6565b937124b739ba30b731b2a4a2161036b2b6b132b960711b60406132c28151978888516132938160209b8c808601910161257a565b8101600b60fa1b8a8201528251906132b3826021958d878501910161257a565b0103600181018a52018861237b565b51946132cd86612345565b60128652850152881b1c90612b21565b921b1c613414565b61320a565b50509050565b604051906132fd82612360565b604082526020918281019160403684376040519061331a82612345565b601082526f181899199a1a9b1b9c1cb0b131b232b360811b8583015260005b8581106133795750505061060f60f31b92612451926133696022936040519687948501525180928585019061257a565b810103600281018452018261237b565b81811a90835180156133fe576001600160f81b031990819061339d90850487612f1c565b51169060019383851b92848404600214851517156131a05760001a6133c2848a612f1c565b53865180156133fe576133d6910687612f1c565b51169281018091116131a0576133f36133f99360001a9187612f1c565b53613191565b613339565b634e487b7160e01b600052601260045260246000fd5b7f00000000000000000000000000000000000000000000000000000000000000006001600160a01b031691823b15610ade5761347d9260009283604051809681958294631bbd786d60e11b8452306004850152602484015260606044840152606483019061259d565b03925af180156134975761348e5750565b612b1f90612332565b6040513d6000823e3d90fd5b90916134f3939260095460009384916040918251988995869263216c908360e11b845262278d0060048501528660248501526044840152600019606484015260c0608484015260c483019061259d565b60a482018590526001600160a01b039560209586949190920391839188165af196871561366257859761362a575b5082871694853b1561020c57815163debe2b0d60e01b815260048101829052603260248201528181604481838b5af180156136115761361b575b50853b1561020c5781516374cac47d60e01b81523060048201528160248201528160448201528160648201528160848201528160a48201528160c4820152818160e481838b5af180156136115790859392916135f5575b5060086001948351976135c489612345565b338952818901998a5283525220935116926001600160601b0360a01b93848254161781550192511690825416179055565b81935061360490949294612332565b610b0557918391386135b2565b83513d84823e3d90fd5b61362490612332565b3861355b565b9096508181813d831161365b575b613642818361237b565b8101031261052b5751828116810361052b579538613521565b503d613638565b81513d87823e3d90fd5b60009081526008602052604081206001015490916001600160a01b0391821691826129905750505090565b600081815260208093600782526040832060018060a01b0380921684528252604083205493835260088252600160408420015416926024604051809581936354b249fb60e01b835260048301525afa92831561372b5781936136fa575b50505090565b9091809350813d8311613724575b613712818361237b565b8101031261020c5750513880806136f4565b503d613708565b50604051903d90823e3d90fd5b8147106137ce576000918291829182916001600160a01b03165af161375b612942565b501561376357565b60405162461bcd60e51b815260206004820152603a60248201527f416464726573733a20756e61626c6520746f2073656e642076616c75652c207260448201527f6563697069656e74206d617920686176652072657665727465640000000000006064820152608490fd5b60405162461bcd60e51b815260206004820152601d60248201527f416464726573733a20696e73756666696369656e742062616c616e63650000006044820152606490fdfea2646970667358221220207ee321f7978b4a0f9aa566b2ece92d454b5bdba8cc01118bdc7ed33e61caa164736f6c63430008140033",
  "devdoc": {
    "details": "Create a decentralized Database NameSpaces Where space and subSpaces can get created and anyone can create instances inside a space and contribute to the public this is possible by integrating tableland SQL in solidity ENS system to support a decentralized Namespace of Database spaces IPNS and Push protocol for code and space discussions",
    "kind": "dev",
    "methods": {
      "createDBSpace(string)": {
        "details": "Create a new space under the given node",
        "params": {
          "_name": "The name of the new space"
        }
      },
      "createDBSubSpace(bytes32,string)": {
        "details": "Create a new subnode under the given node",
        "params": {
          "_DBSpace": "The parent node",
          "_name": "The name of the new subnode"
        }
      },
      "createInstanceCode(bytes32,string,string,string,string,string)": {
        "details": "Create a new instance under the given node",
        "params": {
          "_about": "The about of the new instance",
          "_chatID": "The chatID of the new instance",
          "_codeIPNS": "The IPNS of the new instance",
          "_instance": "The parent node",
          "_name": "The name of the new instance"
        }
      },
      "createSpaceInstance(bytes32,uint256,address[],string,string,string,string)": {
        "details": "Create a new instance under the given node",
        "params": {
          "_IPNS": "The IPNS of the new instance",
          "_chatID": "The chatID of the new instance",
          "_members": "The hatID of the new instance",
          "_metadataCID": "The name of the new instance",
          "_node": "The parent node"
        }
      },
      "hasViewAccess(bytes32,address)": {
        "details": "Check if the sender has access to the given instance",
        "params": {
          "_instance": "The instance to check",
          "_sender": "The sender to check"
        },
        "returns": {
          "_0": "bool"
        }
      },
      "owner()": {
        "details": "Returns the address of the current owner."
      },
      "renounceOwnership()": {
        "details": "Leaves the contract without owner. It will not be possible to call `onlyOwner` functions. Can only be called by the current owner. NOTE: Renouncing ownership will leave the contract without an owner, thereby disabling any functionality that is only available to the owner."
      },
      "transferOwnership(address)": {
        "details": "Transfers ownership of the contract to a new account (`newOwner`). Can only be called by the current owner."
      },
      "withdraw(bytes32)": {
        "details": "withdraw function for an agentID",
        "params": {
          "_instanceID": "to withdraw money from the lock contract"
        }
      }
    },
    "title": "DBNS",
    "version": 1
  },
  "userdoc": {
    "errors": {
      "ChainNotSupported(uint256)": [
        {
          "notice": "Current chain does not have a TablelandTables deployment."
        }
      ]
    },
    "kind": "user",
    "methods": {
      "withdraw(bytes32)": {
        "notice": "We give back to the agent creator 70% of the total income from that agent the platform keeps 30% of that amount"
      }
    },
    "version": 1
  },
  "storageLayout": {
    "storage": [
      {
        "astId": 4545,
        "contract": "contracts/DBNS.sol:DBNS",
        "label": "DBNS_NODE",
        "offset": 0,
        "slot": "0",
        "type": "t_bytes32"
      },
      {
        "astId": 4549,
        "contract": "contracts/DBNS.sol:DBNS",
        "label": "DOMAIN_ID",
        "offset": 0,
        "slot": "1",
        "type": "t_uint256"
      },
      {
        "astId": 4707,
        "contract": "contracts/DBNS.sol:DBNS",
        "label": "implementation",
        "offset": 0,
        "slot": "2",
        "type": "t_address"
      },
      {
        "astId": 4810,
        "contract": "contracts/DBNS.sol:DBNS",
        "label": "createTableStatements",
        "offset": 0,
        "slot": "3",
        "type": "t_array(t_string_storage)dyn_storage"
      },
      {
        "astId": 4813,
        "contract": "contracts/DBNS.sol:DBNS",
        "label": "tables",
        "offset": 0,
        "slot": "4",
        "type": "t_array(t_string_storage)dyn_storage"
      },
      {
        "astId": 4816,
        "contract": "contracts/DBNS.sol:DBNS",
        "label": "tableIDs",
        "offset": 0,
        "slot": "5",
        "type": "t_array(t_uint256)dyn_storage"
      },
      {
        "astId": 7,
        "contract": "contracts/DBNS.sol:DBNS",
        "label": "_owner",
        "offset": 0,
        "slot": "6",
        "type": "t_address"
      },
      {
        "astId": 5684,
        "contract": "contracts/DBNS.sol:DBNS",
        "label": "instanceSubscriptions",
        "offset": 0,
        "slot": "7",
        "type": "t_mapping(t_bytes32,t_mapping(t_address,t_uint256))"
      },
      {
        "astId": 5689,
        "contract": "contracts/DBNS.sol:DBNS",
        "label": "instanceLock",
        "offset": 0,
        "slot": "8",
        "type": "t_mapping(t_bytes32,t_struct(InstanceStruct)5678_storage)"
      },
      {
        "astId": 5692,
        "contract": "contracts/DBNS.sol:DBNS",
        "label": "UNLOCK",
        "offset": 0,
        "slot": "9",
        "type": "t_contract(IUnlockV12)3630"
      },
      {
        "astId": 4128,
        "contract": "contracts/DBNS.sol:DBNS",
        "label": "instances",
        "offset": 0,
        "slot": "10",
        "type": "t_mapping(t_bytes32,t_struct(SpaceInstance)4123_storage)"
      },
      {
        "astId": 4132,
        "contract": "contracts/DBNS.sol:DBNS",
        "label": "codeOwner",
        "offset": 0,
        "slot": "11",
        "type": "t_mapping(t_bytes32,t_address)"
      },
      {
        "astId": 4137,
        "contract": "contracts/DBNS.sol:DBNS",
        "label": "isType",
        "offset": 0,
        "slot": "12",
        "type": "t_mapping(t_bytes32,t_enum(Types)4116)"
      }
    ],
    "types": {
      "t_address": {
        "encoding": "inplace",
        "label": "address",
        "numberOfBytes": "20"
      },
      "t_array(t_string_storage)dyn_storage": {
        "base": "t_string_storage",
        "encoding": "dynamic_array",
        "label": "string[]",
        "numberOfBytes": "32"
      },
      "t_array(t_uint256)dyn_storage": {
        "base": "t_uint256",
        "encoding": "dynamic_array",
        "label": "uint256[]",
        "numberOfBytes": "32"
      },
      "t_bytes32": {
        "encoding": "inplace",
        "label": "bytes32",
        "numberOfBytes": "32"
      },
      "t_contract(IUnlockV12)3630": {
        "encoding": "inplace",
        "label": "contract IUnlockV12",
        "numberOfBytes": "20"
      },
      "t_enum(Types)4116": {
        "encoding": "inplace",
        "label": "enum Core.Types",
        "numberOfBytes": "1"
      },
      "t_mapping(t_address,t_uint256)": {
        "encoding": "mapping",
        "key": "t_address",
        "label": "mapping(address => uint256)",
        "numberOfBytes": "32",
        "value": "t_uint256"
      },
      "t_mapping(t_bytes32,t_address)": {
        "encoding": "mapping",
        "key": "t_bytes32",
        "label": "mapping(bytes32 => address)",
        "numberOfBytes": "32",
        "value": "t_address"
      },
      "t_mapping(t_bytes32,t_enum(Types)4116)": {
        "encoding": "mapping",
        "key": "t_bytes32",
        "label": "mapping(bytes32 => enum Core.Types)",
        "numberOfBytes": "32",
        "value": "t_enum(Types)4116"
      },
      "t_mapping(t_bytes32,t_mapping(t_address,t_uint256))": {
        "encoding": "mapping",
        "key": "t_bytes32",
        "label": "mapping(bytes32 => mapping(address => uint256))",
        "numberOfBytes": "32",
        "value": "t_mapping(t_address,t_uint256)"
      },
      "t_mapping(t_bytes32,t_struct(InstanceStruct)5678_storage)": {
        "encoding": "mapping",
        "key": "t_bytes32",
        "label": "mapping(bytes32 => struct Unlock.InstanceStruct)",
        "numberOfBytes": "32",
        "value": "t_struct(InstanceStruct)5678_storage"
      },
      "t_mapping(t_bytes32,t_struct(SpaceInstance)4123_storage)": {
        "encoding": "mapping",
        "key": "t_bytes32",
        "label": "mapping(bytes32 => struct Core.SpaceInstance)",
        "numberOfBytes": "32",
        "value": "t_struct(SpaceInstance)4123_storage"
      },
      "t_string_storage": {
        "encoding": "bytes",
        "label": "string",
        "numberOfBytes": "32"
      },
      "t_struct(InstanceStruct)5678_storage": {
        "encoding": "inplace",
        "label": "struct Unlock.InstanceStruct",
        "members": [
          {
            "astId": 5675,
            "contract": "contracts/DBNS.sol:DBNS",
            "label": "creator",
            "offset": 0,
            "slot": "0",
            "type": "t_address"
          },
          {
            "astId": 5677,
            "contract": "contracts/DBNS.sol:DBNS",
            "label": "lockAddress",
            "offset": 0,
            "slot": "1",
            "type": "t_address"
          }
        ],
        "numberOfBytes": "64"
      },
      "t_struct(SpaceInstance)4123_storage": {
        "encoding": "inplace",
        "label": "struct Core.SpaceInstance",
        "members": [
          {
            "astId": 4118,
            "contract": "contracts/DBNS.sol:DBNS",
            "label": "gatedContract",
            "offset": 0,
            "slot": "0",
            "type": "t_address"
          },
          {
            "astId": 4120,
            "contract": "contracts/DBNS.sol:DBNS",
            "label": "price",
            "offset": 0,
            "slot": "1",
            "type": "t_uint256"
          },
          {
            "astId": 4122,
            "contract": "contracts/DBNS.sol:DBNS",
            "label": "creator",
            "offset": 0,
            "slot": "2",
            "type": "t_address"
          }
        ],
        "numberOfBytes": "96"
      },
      "t_uint256": {
        "encoding": "inplace",
        "label": "uint256",
        "numberOfBytes": "32"
      }
    }
  }
}